:020000021000EC
:10E000000C9446F00C9466F00C9466F00C9466F058
:10E010000C9466F00C9466F00C9466F00C9466F028
:10E020000C9466F00C9466F00C9466F00C9466F018
:10E030000C9466F00C9466F00C9466F00C9466F008
:10E040000C943FF80C9466F00C9466F00C9466F017
:10E050000C9466F00C9466F00C9466F00C9466F0E8
:10E060000C9466F00C9466F00C9466F00C9466F0D8
:10E070000C9466F00C9466F00C9466F00C9466F0C8
:10E080000C9466F00C9466F00C9466F011241FBE9C
:10E09000CFEFD0E1DEBFCDBF11E0A0E0B1E0EAE715
:10E0A000FFEF01E00BBF02C007900D92A636B1074B
:10E0B000D9F71BBE11E0A6E6B1E001C01D92A73C56
:10E0C000B107E1F70E9468F00C94BBFF0C9400F0DC
:10E0D00081E085BF82E085BF0E943FFE0E9462F61C
:10E0E0000E946BF60E9457F278940E94EEFD0E9407
:10E0F00082F60E94C0F2FBCFEF92FF920F931F9324
:10E10000CF93DF938C01F62EE72EE6E9F1E065E090
:10E1100070E0C0E0D0E035C06150704086819781EA
:10E12000A085B18582179307A407B50711F58BE089
:10E1300090E0689FF001699FF00D789FF00D112429
:10E14000E659FE4F2F2D3E2DC901DC0186E00D90D2
:10E1500001928150E1F78BE090E0689FF001699FA8
:10E16000F00D789FF00D1124E659FE4F8FEF828756
:10E1700020C0209721F09A858285981708F4EF0136
:10E180003B97D8012D913D914D915C9161157105A1
:10E1900019F62E833F8348875987DE018F2D9E2DE8
:10E1A0009C01F90186E001900D928150E1F78FEF1B
:10E1B0008A8780E0DF91CF911F910F91FF90EF90C0
:10E1C00008951092A0011092950110928A01109268
:10E1D0007F011092740180E797E162EF70EF0E9477
:10E1E000CCF60895E0EAF1E006C08081882311F0C2
:10E1F000815080833B9781E0E936F807B1F780E7EB
:10E2000097E162EF70EF0E94CCF60895AF92BF9253
:10E21000CF92DF92EF92FF920F931F93DF93CF93F2
:10E2200000D000D000D0CDB7DEB75C018B016A0111
:10E230006CE170E00E944EFB7C0180E091E0F70110
:10E240009183808388E090E09383828386E0848357
:10E2500084E08583F80180819181A281B381F701F7
:10E26000808F918FA28FB38F0E9454F2D70118969E
:10E27000FC0186E001900D928150E1F70E9406F3C7
:10E28000FC0180819181A281B381F7018687978704
:10E29000A08BB18BC114D104D1F480E091E09783BD
:10E2A0008683128A138A148A158A168A178ADE01CF
:10E2B0001196E0E0F1E086E001900D928150E1F7E7
:10E2C000C50168E076E0AE014F5F5F4F11C080E0AE
:10E2D00092E0F70197838683D7015296F60186E094
:10E2E00001900D928150E1F7C50168E076E0A6014A
:10E2F0000E94CFF226960FB6F894DEBF0FBECDBFB8
:10E30000CF91DF911F910F91FF90EF90DF90CF9011
:10E31000BF90AF900895EF92FF920F931F938C01DF
:10E320007B010E9486FBB801A7010E9406F11F91A4
:10E330000F91FF90EF900895EF92FF920F931F932C
:10E34000DF93CF93CDB7DEB76C970FB6F894DEBFEF
:10E350000FBECDBF8C010E94CDFA4C9708F43FC090
:10E36000C801BE016F5F7F4F4CE150E00E94D7FAB9
:10E3700089819A818050914091F58B819C81089789
:10E3800071F58D81863059F58E81843041F5E98CA7
:10E39000FA8C0B8D1C8D0E9406F3FC01808191810B
:10E3A000A281B381E816F9060A071B07C1F48F8121
:10E3B000988521E08030920721F08050924079F4D6
:10E3C00007C0CE010F96BE01675F7F4F0E948BF1A1
:10E3D000CE010F96BE01675F7F4F0E947CF06C9666
:10E3E0000FB6F894DEBF0FBECDBFCF91DF911F9166
:10E3F0000F91FF90EF9008950F931F938C010E944F
:10E4000086FBB80140E050E00E9406F11F910F9199
:10E4100008950F931F93CF93DF93EC01162F072FCF
:10E42000ECE9F1E065E070E033C0615070402081BC
:10E430003181428153813B9788819981AA81BB8137
:10E44000281739074A075B0719F58BE090E0689FAA
:10E45000F001699FF00D789FF00D1124212F302FCE
:10E46000C901DC01E659FE4F86E001900D92815012
:10E47000E1F78BE090E0689FF001699FF00D789FD5
:10E48000F00D1124E659FE4F8FEF828780E007C020
:10E490006115710551F6CE010E94FCF181E0DF911A
:10E4A000CF911F910F91089586E091E008950F9309
:10E4B0001F93DF93CF9300D000D000D0CDB7DEB74D
:10E4C00080E092E08E010F5F1F4FB80146E00E948E
:10E4D00064FE882341F0A6E0B1E0F80186E00190F7
:10E4E0000D928150E1F786E091E00E94B0FB0E941E
:10E4F000E1F00E9409F326960FB6F894DEBF0FBE36
:10E50000CDBFCF91DF911F910F9108950F931F936E
:10E51000DF93CF93CDB7DEB72E970FB6F894DEBF5B
:10E520000FBECDBF8C010E94CDFA0E97F0F0C8014E
:10E53000BE016F5F7F4F4EE050E00E94D7FA8D859D
:10E540009E858830910521F08850964071F407C06F
:10E55000C801BE01695F7F4F0E94FAF306C0C8017F
:10E56000BE01695F7F4F0E949CF12E960FB6F89412
:10E57000DEBF0FBECDBFCF91DF911F910F910895E8
:10E58000CF93DF930E948EFBEC01009729F00E944D
:10E5900086F2CE010E94F5FADF91CF910895CF92D5
:10E5A000DF92EF92FF920F931F93CF93DF937C0143
:10E5B0006B01142F052F6EE070E00E944EFBFC01F2
:10E5C000EC01212F302FC901DC0186E00D9009926A
:10E5D0008150E1F7EF012696A6E0B1E086E00D90CC
:10E5E00009928150E1F7D586C486C70160E00E9498
:10E5F0002DFCC7010E9416FB80E0DF91CF911F9197
:10E600000F91FF90EF90DF90CF9008958CE091E014
:10E610000895DF93CF93CDB7DEB72C970FB6F8945C
:10E62000DEBF0FBECDBF80E091E0BE016F5F7F4FC8
:10E630004CE00E9464FE882321F189819A81AB819C
:10E64000BC8180930C0190930D01A0930E01B093B7
:10E650000F0189859A85AB85BC85809310019093C5
:10E660001101A0931201B09313018D819E81AF819E
:10E67000B8858093140190931501A0931601B0936F
:10E6800017012C960FB6F894DEBF0FBECDBFCF9109
:10E69000DF9108958F929F92AF92BF92CF92DF92B7
:10E6A000EF92FF920F931F93DF93CF9300D000D090
:10E6B00000D0CDB7DEB76C015B01E42EFB01808199
:10E6C0009181A281B381209110013091110140917B
:10E6D00012015091130182279327A427B527209177
:10E6E00014013091150140911601509117018223B8
:10E6F0009323A423B5230097A105B10511F4CB0101
:10E7000002C080E191E04E010894811C911CB4018B
:10E710000E9409F2882329F0C6010E9416FB81E0BD
:10E7200056C0C60164E170E00E944EFB8C0185E496
:10E73000F80180831182C6010E94BFFAF92EC6013A
:10E740000E94BFFA382F20E08F2D90E0282B392B24
:10E75000F8013383228390911801809119018483F9
:10E760009583F50180819181A281B381F801808B2D
:10E77000918BA28BB38B80910C0190910D01A09194
:10E780000E01B0910F0184879587A687B787809186
:10E790001801909119010196909319018093180125
:10E7A00080E490E09783868380E88087E186138603
:10E7B0001286C80164E170E00E9405FEF8019387AB
:10E7C0008287C60168E070E0A4010E94CFF226961D
:10E7D0000FB6F894DEBF0FBECDBFCF91DF911F9172
:10E7E0000F91FF90EF90DF90CF90BF90AF909F90F0
:10E7F0008F900895EF92FF920F931F93DF93CF9323
:10E80000CDB7DEB764970FB6F894DEBF0FBECDBFAD
:10E810007C018B010E94CDFA449708F44EC0C701D9
:10E82000BE016F5F7F4F44E150E00E94D7FA298913
:10E830003A894B895C8980910C0190910D01A091DE
:10E840000E01B0910F01281739074A075B07A9F598
:10E85000F801808180FD28C0809110019091110104
:10E86000A0911201B09113012D853E854F855889E5
:10E8700082279327A427B5272091140130911501F1
:10E88000409116015091170182239323A423B523AD
:10E890000097A105B10519F4CE010D9602C080E1E3
:10E8A00091E0B8010E947CF08A85813131F4C70182
:10E8B000BE01635F7F4F0E946AF464960FB6F894BE
:10E8C000DEBF0FBECDBFCF91DF911F910F91FF90A3
:10E8D000EF900895EF92FF920F931F93DF93CF93E2
:10E8E000CDB7DEB72E970FB6F894DEBF0FBECDBF03
:10E8F0008C017B010E94CDFA089700F1C801BE018E
:10E90000695F7F4F48E050E00E94D7FAF70120810D
:10E910003181428153817F81688599858A858534DB
:10E92000910561F46D837E8329833A834B835C83F5
:10E93000C801BE016F5F7F4F0E94C8F52E960FB6CB
:10E94000F894DEBF0FBECDBFCF91DF911F910F9125
:10E95000FF90EF900895AF92BF92CF92DF92EF9227
:10E96000FF920F931F936C015B017A0168E070E0E6
:10E970000E944EFB8C01F70190818181F801808318
:10E980009183F50194818581F801828393831782B5
:10E990001682C6010E94BFFAF92EC6010E94BFFA74
:10E9A000382F20E08F2D90E0282B392BF80135836C
:10E9B0002483C601B50141E10E944AF31F910F91E2
:10E9C000FF90EF90DF90CF90BF90AF9008950F939E
:10E9D0001F93182F092F86E090E00E9466FE809317
:10E9E000660190936701DC01212F302FC901FC01E2
:10E9F00086E001900D928150E1F71092690110922A
:10EA000068011F910F9108958091680190916901AB
:10EA1000009711F00E9474F6809166019091670151
:10EA20000E9410FF10926701109266011092690116
:10EA30001092680108958F929F92AF92BF92CF92E9
:10EA4000DF92FF920F931F93DF93CF9300D0CDB748
:10EA5000DEB75C014B01F42E809166019091670155
:10EA6000892B09F442C00E9486FB6C010F2D10E037
:10EA7000B8016B5F7F4F0E944EFB9C0185E090E0E8
:10EA8000F90191838083B382A282020F131FF801E0
:10EA900015820BC0FA94EF2DF0E0D901AE0FBF1F25
:10EAA000E80DF91D808114968C93FF2099F785E479
:10EAB00090E09A8389836091660170916701C60135
:10EAC000AE014F5F5F4F0E94ABF48091680190915F
:10EAD00069010E9474F680E29EE469E576EF0E9487
:10EAE000CCF690936901809368010F900F90CF91BD
:10EAF000DF911F910F91FF90DF90CF90BF90AF906B
:10EB00009F908F900895EF92FF920F931F93DF9342
:10EB1000CF9300D0CDB7DEB77C0180916601909194
:10EB20006701892B61F10E9486FB8C0164E070E033
:10EB30000E944EFBFC0180E094E091838083F3828D
:10EB4000E28285E490E09A83898360916601709106
:10EB50006701C801AE014F5F5F4F0E94ABF4809127
:10EB60006801909169010E9474F680E29EE469E573
:10EB700076EF0E94CCF690936901809368010F9024
:10EB80000F90CF91DF911F910F91FF90EF9008951B
:10EB9000AF92BF92CF92DF92EF92FF920F931F93AB
:10EBA000CF93DF936C017B010E94CDFA8C010E9410
:10EBB00066FEEC01009709F471C0C601BE01A80110
:10EBC0000E94D7FA8881998122E08030920729F04B
:10EBD0008050934009F05FC01BC080916601909106
:10EBE0006701892B09F057C0C7010E94E7F4025062
:10EBF0001040CE010296B8010E94A2FD882319F0B0
:10EC00000E9404F548C080E090E00E9483F539C07E
:10EC1000E0916601F09167013097E9F1208131813F
:10EC200042815381D701AD90BD90CD90DC90139778
:10EC30002A153B054C055D0571F524813581149637
:10EC40008D919C9115972817390729F5045010408C
:10EC5000BE016C5F7F4FE091AB01F091AC018A8106
:10EC60009B81A80109950050124028F40E9404F5E8
:10EC70000E9411FD10C080916801909169010E946D
:10EC800074F680E29EE469E576EF0E94CCF69093FC
:10EC9000690180936801CE010E9410FFDF91CF913E
:10ECA0001F910F91FF90EF90DF90CF90BF90AF90AA
:10ECB000089510926901109268010E9404F50E9463
:10ECC0001BFD08950E9465F808950E94A9F8089513
:10ECD0000E9481F808951092A3011092A20110924F
:10ECE000A5011092A40108950F931F938C0182EA4D
:10ECF00091E0B8010E9420F8C8010E9410FF1F9106
:10ED00000F910895AF92BF92CF92DF92EF92FF9250
:10ED10000F931F93E091A201F091A301309799F115
:10ED2000A480B580C680D780E084F18412850385F5
:10ED30000E9468F6901738F10917D1F4811718F17D
:10ED40001817B1F47F15F8F0F71691F46E15D8F096
:10ED5000E61671F45D15B8F0D51651F44C1598F01F
:10ED6000C41631F43B1578F0B31611F42A1558F097
:10ED7000E091A201F091A30104851585CF010E94C5
:10ED800074F6F80109951F910F91FF90EF90DF90B5
:10ED9000CF90BF90AF9008958F929F92AF92BF9205
:10EDA000CF92DF92EF92FF920F931F93CF93DF9357
:10EDB0008C014B018EE090E00E9466FEEC010E9407
:10EDC00068F6F42EE52ED62EC72EB82EA92EA80151
:10EDD000122F140FE1E0121708F0E0E0032F050FE7
:10EDE000F1E0031708F0F0E0BE2FB00F21E0B017FC
:10EDF00008F020E03F2F322B3F0D21E03F1508F0B7
:10EE000020E0A22FAE0D21E0AE1508F020E0522F39
:10EE10005D0D21E05D1508F020E0422F4C0D21E052
:10EE20004C1508F020E02B0D91E02B1508F090E038
:10EE30009A0D1C83BD833E83AF83588749872A87F9
:10EE40009B879D868C86E091A201F091A30130976B
:10EE500031F482EA91E0BE010E94B1F732C08385AD
:10EE6000981748F1891709F58285281720F182172C
:10EE7000E1F481854817F8F08417B9F480855817B4
:10EE8000D0F0851791F48781A817A8F08A1769F444
:10EE90008681381780F0831741F48581B81758F0C0
:10EEA0008B1719F48481181730F00280F381E02D5C
:10EEB0003097A9F614C082EA91E0BF01AE010E942A
:10EEC00095F7CE01DF91CF911F910F91FF90EF90B9
:10EED000DF90CF90BF90AF909F908F90089582EA7F
:10EEE00091E0BE010E94DAF7ECCFCF93DF939C0153
:10EEF000DB01FA017183608312968D919C911397C7
:10EF0000938382831296CD91DC911397209721F4FD
:10EF1000E9015B834A8302C0598348831396FC93BB
:10EF2000EE931297DF91CF910895CF93DF939C01D9
:10EF3000DB01FA018D919C911197918380837383FA
:10EF40006283CD91DC911197209721F4E9015983D7
:10EF5000488302C05B834A83ED93FC93DF91CF919A
:10EF60000895CF93DF939C01FB01EC01A881B98147
:10EF7000109749F4798368837B836A8311821082B6
:10EF80001382128214C08D919C911197918380837A
:10EF9000B383A283CD91DC911197209721F4E901ED
:10EFA0007983688302C07B836A83ED93FC93DF914E
:10EFB000CF910895CF93DF939C01FB01EC01AA81CF
:10EFC000BB81109711F5A881B981109749F4798315
:10EFD00068837B836A8311821082138212822DC020
:10EFE0008D919C91119791838083B383A283CD915E
:10EFF000DC911197209721F4E9017983688302C09D
:10F000007B836A83ED93FC9318C0B183A08312962F
:10F010008D919C911397938382831296CD91DC916D
:10F020001397209721F4E9017B836A8302C07983D7
:10F0300068831396FC93EE931297DF91CF91089516
:10F04000CF93DF93EC01FB01A081B1818281938199
:10F05000109719F49983888304C013969C938E9318
:10F060001297A281B38160817181109719F47B831B
:10F070006A8302C06D937C93DF91CF9108951F92B4
:10F080000F920FB60F9211248F939F93AF93BF935C
:10F0900012BE8091A6019091A701A091A801B09104
:10F0A000A9010196A11DB11D8093A6019093A7010E
:10F0B000A093A801B093A901BF91AF919F918F91A7
:10F0C0000F900FBE0F901F9018951092A6011092EE
:10F0D000A7011092A8011092A90187B78C7F87BF62
:10F0E00080B7886080BF12BE11BE83E083BF00B6C8
:10F0F00002FEFDCF86B78C7F86BF87B7816087BF52
:10F100000895AF92BF92CF92DF92EF92FF920F934A
:10F110001F93A090A601B090A701C090A801D09025
:10F12000A90182B7DC2CCB2CBA2CAA24A80EB11CC6
:10F13000C11CD11C9501A60160E070E080E090E068
:10F140001F910F91FF90EF90DF90CF90BF90AF9005
:10F1500008952091A6013091A7014091A8015091F6
:10F16000A90182B7542F432F322F2227280F311D98
:10F17000411D511DB901CA0108952091A601309188
:10F18000A7014091A8015091A90182B7322F2227EF
:10F19000280F311DC9010895FB01C0988FB9779BD5
:10F1A000FECF07C080818FB9779BFECF319641504B
:10F1B000504041155105B1F7C09A0895DF93CF93A0
:10F1C0000F92CDB7DEB76983C0988FB9779BFECF1A
:10F1D000FE0131969E012E5F3F4F05C080818FB9A1
:10F1E000779BFECF3196E217F307C1F7C09A0F90D5
:10F1F000CF91DF910895FB01C0988FB9779BFECF27
:10F2000004C01FB8779BFECF21502223D1F707C03F
:10F210001FB8779BFECF8FB181934150504041156D
:10F220005105B1F7C09A0895DF93CF930F92CDB7F0
:10F23000DEB7482F87FD3DC0282F30E020763070A4
:10F240008091AA0190E08217930799F183E0898366
:10F25000C0988FEB8FB9779BFECFFE013196BE0130
:10F260006E5F7F4F05C080818FB9779BFECF31964F
:10F27000E617F707C1F7C09A85E0359527958A9577
:10F28000E1F72983C0988FE98FB9779BFECFFE0104
:10F2900031969E012E5F3F4F05C080818FB9779BCD
:10F2A000FECF3196E217F307C1F7C09A407640933C
:10F2B000AA010F90CF91DF91089587E087BBBB989B
:10F2C000C09A80E58DB981E08EB91092AA010895A7
:10F2D00090E0807690708034910521F020E08036B7
:10F2E000910509F421E0822F0895DF92EF92FF92B9
:10F2F0000F931F93182F062FD72E7A010E9414F90F
:10F30000812F0E9468F9282F812F8F71602F7D2D0A
:10F31000A7010E94FBF8802F9D2D1F910F91FF9058
:10F32000EF90DF900895DF93CF930F92CDB7DEB7C4
:10F33000BE016F5F7F4F41E050E00E9475F9898107
:10F340000F90CF91DF910895DF93CF9300D0CDB789
:10F35000DEB7BE016F5F7F4F42E050E00E9475F95B
:10F360008A8199810F900F90CF91DF9108950F932B
:10F370001F93162F072F0E9475F9812F902F1F9131
:10F380000F910895EF92FF921F93CF93DF93182F61
:10F390007B01EA010E9414F91F711064C0981FB923
:10F3A000779BFECF09C0F70180818FB9779BFECF95
:10F3B0000894E11CF11C21972097A9F7C09ADF91CE
:10F3C000CF911F91FF90EF900895DF93CF930F920D
:10F3D000CDB7DEB76983BE016F5F7F4F41E050E07C
:10F3E0000E94C2F90F90CF91DF910895DF93CF93E0
:10F3F00000D0CDB7DEB77A836983BE016F5F7F4FE0
:10F4000042E050E00E94C2F90F900F90CF91DF913F
:10F4100008950E94C2F908951F93DF93CF930F922E
:10F42000CDB7DEB7182F69830E9414F91F711068D9
:10F43000C0981FB9779BFECFFE0131969E012E5FCB
:10F440003F4F05C080818FB9779BFECF3196E21781
:10F45000F307C1F7C09A0F90CF91DF911F910895E4
:10F460001F93DF93CF930F92CDB7DEB7182F698329
:10F470000E9414F91F71106AC0981FB9779BFECFC4
:10F48000FE0131969E012E5F3F4F05C080818FB9EE
:10F49000779BFECF3196E217F307C1F7C09A0F9022
:10F4A000CF91DF911F910895DF93CF930F92CDB746
:10F4B000DEB78AE3BE016F5F7F4F41E050E020E09E
:10F4C0000E94FBF889810F90CF91DF910895DF931F
:10F4D000CF9300D0CDB7DEB78AE3BE016F5F7F4F19
:10F4E00042E050E020E00E94FBF889819A810F9071
:10F4F0000F90CF91DF9108950F931F93182F092F2D
:10F50000AB018AE3612F792F20E00E94FBF8812F65
:10F51000902F1F910F910895FC01C0988AE78FB931
:10F52000779BFECF07C080818FB9779BFECF319646
:10F530006150704061157105B1F7C09A0895C09887
:10F540008FEF8FB9779BFECFC09A08950F931F93CB
:10F55000982F162F072F84E5692F0E94E5F986E57D
:10F56000612F0E94E5F987E5602F0E94E5F98AE6A0
:10F570000E9493F980FDFBCF1F910F910895FC012C
:10F580000190F081E02D309719F4E0E0F0E003C045
:10F590000680F781E02DCF010895FC01009719F452
:10F5A00020E030E002C020813181C90108950F932D
:10F5B0001F93CF93DF938C01DC01ED91FC91EA0165
:10F5C000E417F50708F4EF01CB01BE010E947CFAB5
:10F5D000F801808191818C1B9D0B91838083CE01EA
:10F5E000DF91CF911F910F910895CF93DF93EC019D
:10F5F0006A817B81615070408AE16030780720F039
:10F600008CE06FEF79E101C08CE00E94F6F98EE9A1
:10F6100060E40E940CFA6A817B8180E00E94F6F926
:10F62000CE010E9410FFDF91CF9108950F931F9399
:10F63000CF93DF938C01009779F416C0888199816C
:10F64000009711F00E9410FF8C819D81F801918339
:10F650008083CE010E9410FFF801C081D1812097E4
:10F6600069F7C8010E9410FFDF91CF911F910F91A0
:10F6700008951F93CF93DF9312E3C0E0D0E908C051
:10F680008FE90E9493F983FF05C0CE010197F1F73E
:10F690001150B0F7DF91CF911F910895EF92FF9233
:10F6A0000F931F93CF93DF937C018B0188E090E051
:10F6B0000E9466FEEC011B830A830115110519F4F3
:10F6C0001982188205C0C8010E9466FE888399834A
:10F6D000D701ED91FC91FD83EC832A813B8130972A
:10F6E00019F43F832E8306C086819781820F931F72
:10F6F0009F838E83F701D183C08388819981DF91B5
:10F70000CF911F910F91FF90EF90089582E090E0CC
:10F710000E9466FEFC01118210820895CF93DF9350
:10F720008CE90E9493F986FD08C089E30E9493F951
:10F73000882319F4C0E0D0E00FC084E090E00E947C
:10F7400066FEEC010E9467FA9B838A830E9467FA37
:10F75000998388830E9467FACE01DF91CF91089543
:10F76000CF93DF93EC010E945DF90E949FFA84EF32
:10F7700091E020E731E0F9013197F1F70197D9F7EE
:10F780008DE90E9493F980FFFBCF88E060E00E9442
:10F79000E5F989E060E00E94E5F98AE06FEF0E94F8
:10F7A000E5F98BE069E10E94E5F984E060E07AE147
:10F7B0000E94F6F986E06FEF7FE10E94F6F981E49E
:10F7C00060E00E94E5F980E46DE00E94E5F982E4E2
:10F7D00062E30E94E5F98AE46EEE0E94E5F98BE4AB
:10F7E00065E00E94E5F984E462E10E94E5F986E4BF
:10F7F00062E10E94E5F987E46CE00E94E5F981E6A8
:10F800006D810E94E5F980E66C810E94E5F983E64E
:10F810006B810E94E5F982E66A810E94E5F985E63E
:10F8200069810E94E5F984E668810E94E5F980E13A
:10F8300060E071E00E94A6FA84E162E774E00E9451
:10F84000A6FA8FE964E00E940CFA80E060E070E0C4
:10F850000E94F6F9DF91CF910895DF92EF92FF9227
:10F860000F931F93DF93CF930F92CDB7DEB77C0139
:10F87000D62E0E9439FB84E060E07AE10E94F6F91E
:10F8800082E060E07AE10E94F6F91982CE010196E9
:10F8900061E070E00E948CFAD7010D911C910CC0C0
:10F8A000F80162817381808191810E948CFAD80174
:10F8B00014960D911C9115970115110589F7D70123
:10F8C000ED91FC91668177816050764E86E00E94D2
:10F8D000F6F98FE960E80E940CFA8FE960E80E946F
:10F8E00030FA8FE96CE00E940CFA1D2DD0FC0FC09D
:10F8F0008FE90E9493F983FFFBCF11FD08C08DE9CA
:10F900000E9493F990E0827119F091E001C090E0BB
:10F91000892F0F90CF91DF911F910F91FF90EF9062
:10F92000DF9008959C01E199FECF3FBB2EBB6DBBDC
:10F930000FB6F894E29AE19A0FBE0895FC01DB013C
:10F940009081992321F08D9131969817C9F3808188
:10F95000882311F080E008956C91611161E081E0ED
:10F9600086270895BF92CF92DF92EF92FF920F9376
:10F970001F93CF93DF937B018C016A01F894E19987
:10F98000FECF83E0F70100935B0080936800E89569
:10F990008091680080FDFCCF40E050E060E070E0C6
:10F9A000BB24B394F6018081D181C0E09E01280F71
:10F9B000311D82E090E0C80ED91EDB01CA018E0D18
:10F9C0009F1DA01FB11F0901FC01A0935B00B09215
:10F9D0006800E89511244E5F5F4F6F4F7F4F4030B6
:10F9E00091E0590790E0690790E07907D9F685E042
:10F9F000F70100935B0080936800E89580916800B0
:10FA000080FDFCCF81E180936800E8957894DF91D8
:10FA1000CF911F910F91FF90EF90DF90CF90BF900B
:10FA20000895F89481E085BF15BE8BB78E7F8BBF9C
:10FA30000C94000008950895EF92FF920F931F9386
:10FA40007C018B016091AF017091B0018091B10197
:10FA50009091B201A8010E94B2FC6091AF01709137
:10FA6000B0018091B1019091B20160507F4F8F4FF2
:10FA70009F4F6093AF017093B0018093B101909359
:10FA8000B20100501F4FA8010E94B2FC8091AF014B
:10FA90009091B001A091B101B091B20180509F4FFF
:10FAA000AF4FBF4F8093AF019093B001A093B101CE
:10FAB000B093B201C7010E9483F5EFEAF1E09291A1
:10FAC00082910196918380831F910F91FF90EF9017
:10FAD0000895CF92DF92EF92FF920F931F936C01E4
:10FAE0007A01F8948091AF019091B00122E93CEF46
:10FAF0000E9468FF789400E010E08091AF0190913F
:10FB0000B001A091B101B091B201E80EF91E0A1F37
:10FB10001B1FE092AF01F092B0010093B10110936E
:10FB2000B201EFEAF1E09291829101969183808394
:10FB3000C6010E9483F51F910F91FF90EF90DF9017
:10FB4000CF900895CF93DF93EC018091B301909112
:10FB5000B4010E9474F61092AF011092B00110929D
:10FB6000B1011092B20181E090E09093AE018093D8
:10FB7000AD01FE01AAE1B1E09081992321F08D91C0
:10FB800031969817C9F38081882331F48C918823AA
:10FB900019F48CE19DEF11C0E7E2F1E0988199231F
:10FBA00021F0819121969817C9F38881882369F4FF
:10FBB0008081882351F489E69DEF9093AC01809376
:10FBC000AB0180E0DF91CF91089580E090E062E3A7
:10FBD00071E045E30E941BF581E0F4CF0E9406F33B
:10FBE0000E94FCF10E9406F30E94FCF10E9406F3C1
:10FBF0000E94FCF180E098E261E17DEF0E94CCF68A
:10FC00009093B4018093B3010895DC0160FD05C0B9
:10FC100020E030E040E050E008C0FC01E60FF71FB4
:10FC20008081282F30E040E050E076956795FB0119
:10FC3000E150F048EE0FFF1FEA0FFB1F0BC06150B1
:10FC4000704080819181A0E0B0E0280F391F4A1FE9
:10FC50005B1F32976115710591F706C040705070B7
:10FC6000280F391F4A1F5B1FCA01AA27BB2700970D
:10FC7000A105B10599F720953095C901089580EC4B
:10FC800098EAA0E0B1E08093B5019093B601A0930B
:10FC9000B701B093B80121E63EE13093BA01209359
:10FCA000B9018093BB019093BC01A093BD01B093B7
:10FCB000BE013093C0012093BF0182E097ED909385
:10FCC000C2018093C101089580E00895CF93DF932E
:10FCD000BC018230910510F462E070E0A091C50192
:10FCE000B091C601ED01E0E0F0E040E050E021C05D
:10FCF000888199818617970769F48A819B8130975B
:10FD000019F09383828304C09093C6018093C50148
:10FD1000FE0134C06817790738F44115510519F010
:10FD20008417950708F4AC01FE018A819B819C0130
:10FD3000E9012097E9F641155105A9F1CA01861B91
:10FD4000970B049708F4BA01E0E0F0E02AC08D9127
:10FD50009C91119784179507F9F46417750781F43E
:10FD600012968D919C911397309719F0938382830B
:10FD700004C09093C6018093C501FD0132964CC02A
:10FD8000CA01861B970BFD01E80FF91F6193719360
:10FD900002978D939C9340C0FD01828193819C01C9
:10FDA000D9011097A1F68091C3019091C401892BCC
:10FDB00041F480916201909163019093C40180931A
:10FDC000C30140916401509165014115510541F411
:10FDD0004DB75EB78091600190916101481B590B4E
:10FDE0002091C3013091C401CA01821B930B861775
:10FDF000970780F0AB014E5F5F4F8417950750F077
:10FE0000420F531F5093C4014093C301F901619302
:10FE1000719302C0E0E0F0E0CF01DF91CF9108954F
:10FE2000CF93DF93009709F450C0EC0122971B8217
:10FE30001A82A091C501B091C601109709F140E066
:10FE400050E0AC17BD0708F1BB83AA83FE012191E6
:10FE50003191E20FF31FAE17BF0779F48D919C919A
:10FE60001197280F391F2E5F3F4F39832883129631
:10FE70008D919C9113979B838A834115510571F451
:10FE8000D093C601C093C50120C012968D919C915C
:10FE90001397AD01009711F0DC01D3CFFA01D383A2
:10FEA000C28321913191E20FF31FCE17DF0769F46E
:10FEB00088819981280F391F2E5F3F4FFA013183C6
:10FEC00020838A819B8193838283DF91CF910895E0
:10FED000A0E0B0E0EEE6FFEF0C948EFFEC017B01BA
:10FEE0008A01690109C0CE012196F70161917F0164
:10FEF000F60109950150104001151105A1F7CDB784
:10FF0000DEB7E8E00C94AAFF2F923F924F925F92E7
:10FF10006F927F928F929F92AF92BF92CF92DF9219
:10FF2000EF92FF920F931F93CF93DF93CDB7DEB77E
:10FF3000CA1BDB0B0FB6F894DEBF0FBECDBF099412
:10FF40002A88398848885F846E847D848C849B8469
:10FF5000AA84B984C884DF80EE80FD800C811B8177
:10FF6000AA81B981CE0FD11D0FB6F894DEBF0FBEA6
:0AFF7000CDBFED010895F894FFCF16
:10FF7A00FFFFFFFFFFFF0200000000018145B07F85
:10FF8A008145B001FFFFFF0000006669726D77616D
:10FF9A0072652E62696E00656570726F6D2E626998
:10FFAA006E0046696C656E616D65206861732074C8
:10FFBA006F206265206669726D776172652E62696B
:10FFCA006E206F7220656570726F6D2E62696E00A9
:06FFDA002000C701000039
:040000031000E00009
:00000001FF
