:100000000C9446000C9466000C9466000C946600F8
:100010000C9466000C9466000C9466000C946600C8
:100020000C9466000C9466000C9466000C946600B8
:100030000C9466000C9466000C9466000C946600A8
:100040000C94560E0C9466000C9476100C94F910D7
:100050000C9466000C9466000C9466000C94660088
:100060000C9466000C9466000C9466000C94660078
:100070000C9466000C9466000C9466000C94660068
:100080000C9466000C9466000C94660011241FBE4C
:10009000CFEFD0E1DEBFCDBF12E0A0E0B1E0E0EAFB
:1000A000FFE400E00BBF02C007900D92AC3BB1072C
:1000B000D9F71BBE14E0ACEBB2E001C01D92AE3428
:1000C000B107E1F70E9468000C94CE270C94000061
:1000D00081E085BF15BE0E945F250E94100C0E9422
:1000E000190C0E94A3060E94E80B78940E944B19F9
:1000F0000E94DB0C0E94C20B0E944307F9CF0F93B2
:100100001F93CF93DF93FC01162F072F208131819E
:10011000428153818091EF029091F002A091F1020F
:10012000B091F20282179307A407B50709F472C0D1
:100130008091E4029091E502A091E602B091E7027D
:1001400082179307A407B50709F492C09091F302B0
:100150008091E802981708F054C0EEEDF2E080912B
:10016000D9029091DA02A091DB02B091DC028217F1
:100170009307A407B50709F472C092858091DD0248
:100180009817E0F18091CE029091CF02A091D00219
:10019000B091D10282179307A407B50709F462C092
:1001A00092858091D202981778F18091C302909144
:1001B000C402A091C502B091C60282179307A4079A
:1001C000B50709F452C092858091C7029817F8F0DC
:1001D0002683378340875187EF01812F902F9C0121
:1001E000D90186E00D9009928150E1F78FEF828767
:1001F00080E0DF91CF911F910F910895E3EDF2E040
:10020000C1CFE9EEF2E0ABCFE8ECF2E0CECFEDEB20
:10021000F2E0DECF44E050E0BA01660F771FEA015A
:10022000CC0FDD1FCC0FDD1FCC0FDD1FFB01EC0F52
:10023000FD1FE40FF51FE354FD4F812F902F9C010C
:10024000D90186E00D9001928150E1F7C60FD71FCA
:10025000C40FD51FC354DD4F8FEF8A87C9CF42E04B
:1002600050E0DACF41E050E0D7CF40E050E0D4CFCB
:1002700043E050E0D1CF1092F3021092E8021092C6
:10028000DD021092D2021092C70280E797E16CE47F
:1002900071E00E94300C08958091F302882319F0D8
:1002A00081508093F3028091E802882319F08150F5
:1002B0008093E8028091DD02882319F081508093B9
:1002C000DD028091D202882319F081508093D202FE
:1002D0008091C702882319F081508093C70280E77C
:1002E00097E16CE471E00E94300C0895AF92BF92E8
:1002F000CF92DF92EF92FF920F931F93DF93CF93F2
:1003000000D000D000D0CDB7DEB75C018B016A0110
:100310006CE170E00E94E9177C0180E091E0F70158
:100320009183808388E090E09383828386E0848356
:1003300084E08583F80180819181A281B381F701F6
:10034000808F918FA28FB38F0E944106D70118969C
:10035000FC0186E001900D928150E1F70E94840734
:10036000FC0180819181A281B381F7018687978703
:10037000A08BB18BC114D10421F180E092E0F70190
:1003800097838683D7015296F60186E001900D92FD
:100390008150E1F7C50168E076E0A6010E940C07F4
:1003A00026960FB6F894DEBF0FBECDBFCF91DF917A
:1003B0001F910F91FF90EF90DF90CF90BF90AF9083
:1003C000089580E091E097838683128A138A148AC5
:1003D000158A168A178AAE014F5F5F4FDA01E0E097
:1003E000F1E086E001900D928150E1F7C50168E0EF
:1003F00076E00E940C07D4CFAF92BF92CF92DF92EB
:10040000EF92FF920F931F93DF93CF9300D000D012
:1004100000D0CDB7DEB78C016B010E9429185C01BA
:100420006CE170E00E94E9177C0180E091E0F70147
:100430009183808388E090E09383828386E0848345
:1004400084E08583F80180819181A281B381F701E5
:10045000808F918FA28FB38F0E944106D70118968B
:10046000FC0186E001900D928150E1F70E94840723
:10047000FC0180819181A281B381F70186879787F2
:10048000A08BB18BC114D10421F180E092E0F7017F
:1004900097838683D7015296F60186E001900D92EC
:1004A0008150E1F7C50168E076E0A6010E940C07E3
:1004B00026960FB6F894DEBF0FBECDBFCF91DF9169
:1004C0001F910F91FF90EF90DF90CF90BF90AF9072
:1004D000089580E091E097838683128A138A148AB4
:1004E000158A168A178AAE014F5F5F4FDA01E0E086
:1004F000F1E086E001900D928150E1F7C50168E0DE
:1005000076E00E940C07D4CFEF92FF920F931F93D7
:10051000DF93CF93CDB7DEB76C970FB6F894DEBFFD
:100520000FBECDBF8C010E9464174C9768F46C9687
:100530000FB6F894DEBF0FBECDBFCF91DF911F91F4
:100540000F91FF90EF900895C801BE016F5F7F4F3C
:100550004CE150E00E946F1789819A818050914050
:1005600031F78B819C81089711F78D818630F9F6E0
:100570008E818430E1F6E98CFA8C0B8D1C8D0E9403
:100580008407FC0180819181A281B381E816F9067C
:100590000A071B0761F68F81988521E0803092075A
:1005A00089F08050924009F0C2CF3FE0E32EF12C59
:1005B000EC0EFD1E8E01075F1F4FC701B8010E94A0
:1005C0007F00B5CF2FE0E22EF12CEC0EFD1E8E0148
:1005D000075F1F4FC701B8010E94FC01EECFCF9209
:1005E000DF92EF92FF920F931F93DF93CF9300D090
:1005F00000D000D0CDB7DEB78C010E9429186C0165
:100600006CE170E00E94E9177C0180E091E0F70165
:100610009183808388E090E09383828386E0848363
:1006200084E08583F80180819181A281B381F70103
:10063000808F918FA28FB38F0E944106D7011896A9
:10064000FC0186E001900D928150E1F70E94840741
:10065000FC0180819181A281B381F7018687978710
:10066000A08BB18B80E091E097838683128A138AF6
:10067000148A158A168A178AAE014F5F5F4FDA0116
:10068000E0E0F1E086E001900D928150E1F7C601D3
:1006900068E076E00E940C0726960FB6F894DEBF5D
:1006A0000FBECDBFCF91DF911F910F91FF90EF90C3
:1006B000DF90CF900895CF92DF92EF92FF920F9349
:1006C0001F93DF93CF9300D000D000D0CDB7DEB71B
:1006D0007C01DC012D913D914D915C918091EF0267
:1006E0009091F002A091F102B091F202821793076B
:1006F000A407B50709F4C0C08091E4029091E50217
:10070000A091E602B091E70282179307A407B5070C
:1007100009F4B5C08091D9029091DA02A091DB0270
:10072000B091DC0282179307A407B50709F4AAC0A9
:100730008091CE029091CF02A091D002B091D102CF
:1007400082179307A407B50709F49FC08091C302DD
:100750009091C402A091C502B091C602821793077E
:10076000A407B50709F451C00E9429186C016CE177
:1007700070E00E94E9178C0180E091E0F80191831C
:10078000808388E090E09383828386E0848384E0A2
:100790008583F70180819181A281B381F801808FE7
:1007A000918FA28FB38F0E944106D8011896FC0149
:1007B00086E001900D928150E1F70E948407FC01D0
:1007C00080819181A281B381F80186879787A08B70
:1007D000B18B80E091E097838683128A138A148A12
:1007E000158A168A178AAE014F5F5F4FDA01E0E083
:1007F000F1E086E001900D928150E1F7C60168E0DA
:1008000076E00E940C0781E028C040E050E08A01B9
:10081000000F111F7A01EE0CFF1CEE0CFF1CEE0CFA
:10082000FF1CF801EE0DFF1DE40FF51F9B01E354C3
:10083000FD4F86E00190D9010D929D018150D1F7C5
:10084000E00EF11EE40EF51EEDEBF2E0EE0EFF1EE3
:100850008FEFD7011A968C9380E026960FB6F89406
:10086000DEBF0FBECDBFCF91DF911F910F91FF90E3
:10087000EF90DF90CF90089544E050E0C8CF43E080
:1008800050E0C5CF42E050E0C2CF41E050E0BFCFE2
:100890000895EF92FF920F931F93DF93CF93CDB7FD
:1008A000DEB766970FB6F894DEBF0FBECDBF7C01F2
:1008B0000E9464170C9768F466960FB6F894DEBF32
:1008C0000FBECDBFCF91DF911F910F91FF90EF90A1
:1008D0000895C701BE01655F7F4F4CE050E00E9464
:1008E0006F178C858D3419F1853231F7C701BE0140
:1008F0006F5F7F4F4AE050E00E946F178981882325
:10090000D9F290E00E94BD25182F092F4981C70117
:10091000612F702F50E00E946F17682F812F902F4A
:100920000E942922812F902F0E946726C5CFC701E0
:10093000BE016F5F7F4F4AE050E00E946F178981D0
:10094000882309F4B9CF90E00E94BD25182F092F04
:100950004981C701612F702F50E00E946F17682FE7
:10096000812F902F0E945619812F902F0E94672669
:10097000A3CF6F927F928F929F92AF92BF92CF92AE
:10098000DF92EF92FF920F931F935C01162F4A01A3
:1009900039016CE070E00E94E9176C0180E8F60113
:1009A000808311830E94130C162F0027FF24EE244E
:1009B000292F332744275527E22AF32A042B152B06
:1009C0009B01AC01207030705070232F342F452FC5
:1009D0005527E22AF32A042B152B60708070907043
:1009E000982F872F762F6627E62AF72A082B192BB0
:1009F000F601E482F582068317831086118612863B
:100A000013868091F5029091F6029283838301967A
:100A10009093F6028093F502C501B401A3010E94F0
:100A2000170B1F910F91FF90EF90DF90CF90BF9029
:100A3000AF909F908F907F906F9008956F927F926C
:100A40008F929F92AF92BF92CF92DF92EF92FF92DE
:100A50000F931F93CF93DF938C01EB014A01390170
:100A60000E9429185C0160EA70E00E94E917FC010D
:100A7000C083118212821382148215821682178219
:100A800010861186209791F09E0121503040D801A8
:100A9000A20FB31FEC0FFD1F02C0215030408C91FC
:100AA00081871197319721153105B9F7C5016CE0A0
:100AB00070E00E94E9176C0180E8F60180838DE404
:100AC00081830E94130C162F0027FF24EE24292F68
:100AD000332744275527E22AF32A042B152B9B01A1
:100AE000AC01207030705070232F342F452F5527C4
:100AF000E22AF32A042B152B607080709070982FD7
:100B0000872F762F6627E62AF72A082B192BF6015E
:100B1000E482F58206831783108611861286138677
:100B20008091F5029091F6029283838301969093CF
:100B3000F6028093F502C501B401A3010E94170BD0
:100B4000DF91CF911F910F91FF90EF90DF90CF90A9
:100B5000BF90AF909F908F907F906F9008956F920D
:100B60007F928F929F92AF92BF92CF92DF92EF923D
:100B7000FF920F931F93CF93DF938C01EB014A01F8
:100B800039010E9429185C01BE01665F7F4F0E94F7
:100B9000E917FC01C083118212821382148215822C
:100BA0001682178210861186209791F09E0121509F
:100BB0003040D801A20FB31FEC0FFD1F02C021501F
:100BC00030408C9181871197319721153105B9F704
:100BD000C5016CE070E00E94E9176C0180E8F60145
:100BE000808385E281830E94130C162F0027FF2447
:100BF000EE24292F332744275527E22AF32A042BF2
:100C0000152B9B01AC01207030705070232F342FB6
:100C1000452F5527E22AF32A042B152B607080708C
:100C20009070982F872F762F6627E62AF72A082BB1
:100C3000192BF601E482F58206831783108611864C
:100C4000128613868091F5029091F6029283838337
:100C500001969093F6028093F502C501B401A301B9
:100C60000E94170BDF91CF911F910F91FF90EF9092
:100C7000DF90CF90BF90AF909F908F907F906F90BC
:100C8000089586E091E00895EF92FF920F931F93ED
:100C9000DF93CF9300D000D000D0CDB7DEB78C016A
:100CA00080E092E07E010894E11CF11CB70146E06F
:100CB0000E943523882341F4D701E6E0F1E086E085
:100CC00001900D928150E1F78981F80180838A813A
:100CD00081838B8182838C8183838D8184838E81C8
:100CE000858326960FB6F894DEBF0FBECDBFCF9199
:100CF000DF911F910F91FF90EF900895DF93CF93B5
:100D000000D000D000D0CDB7DEB7FC018081898350
:100D100081818A8382818B8383818C8384818D838B
:100D200085818E8380E092E0BE016F5F7F4F46E059
:100D30000E94F62226960FB6F894DEBF0FBECDBFF6
:100D4000CF91DF9108950F931F93DF93CF9300D03E
:100D500000D000D0CDB7DEB780E092E08E010F5F0B
:100D60001F4FB80146E00E943523882341F0A6E0DA
:100D7000B1E0F80186E001900D928150E1F786E044
:100D800091E00E9453180E943B010E946F08269632
:100D90000FB6F894DEBF0FBECDBFCF91DF911F918C
:100DA0000F9108950F931F93DF93CF93CDB7DEB7C5
:100DB0002E970FB6F894DEBF0FBECDBF8C010E94F8
:100DC00064170E9758F42E960FB6F894DEBF0FBE38
:100DD000CDBFCF91DF911F910F910895C801BE0142
:100DE0006F5F7F4F4EE050E00E946F178D859E85AC
:100DF0008830910551F08850964029F7C801BE010E
:100E0000695F7F4F0E948402DECFC801BE01695F27
:100E10007F4F0E94610AD7CFCF92DF92EF92FF926D
:100E20000F931F93CF93DF937C016B01142F052F3A
:100E30006EE070E00E94E917FC01EC01212F302FD9
:100E4000C901DC0186E00D9009928150E1F7EF01C4
:100E50002696A6E0B1E086E00D9009928150E1F778
:100E6000D586C486C70160E00E94D418C7010E94DD
:100E7000B01780E0DF91CF911F910F91FF90EF901D
:100E8000DF90CF9008950F931F93DF93CF93CDB74B
:100E9000DEB72E970FB6F894DEBF0FBECDBF0E940F
:100EA00031188C01009739F00E9464170E9770F486
:100EB000C8010E948D172E960FB6F894DEBF0FBEA4
:100EC000CDBFCF91DF911F910F910895C801BE0151
:100ED0006F5F7F4F4EE050E00E946F178D859E85BB
:100EE0008830910551F08850964011F7C801BE0135
:100EF000695F7F4F0E948402DBCFC801BE01695F3A
:100F00007F4F0E94610AD4CF8CE091E008958F92C8
:100F10009F92AF92BF92CF92DF92EF92FF920F9388
:100F20001F93DF93CF93CDB7DEB72C970FB6F8940E
:100F3000DEBF0FBECDBF6C015B014A0180E091E0D6
:100F4000BE016F5F7F4F4CE00E943523882321F55F
:100F500080910C0190910D01A0910E01B0910F01B3
:100F600089839A83AB83BC8380911401909115018E
:100F7000A0911601B09117018D839E83AF83B8872E
:100F80008091100190911101A0911201B091130173
:100F900089879A87AB87BC87C114D10469F12981FD
:100FA0003A814B815C81122F0027FF24EE24852F8C
:100FB0009927AA27BB27E82AF92A0A2B1B2BDA0133
:100FC000C90180709070B070892F9A2FAB2FBB270A
:100FD000E82AF92A0A2B1B2B207040705070542FDE
:100FE000432F322F2227E22AF32A042B152BF60156
:100FF000E082F18202831383A114B10469F12D818F
:101000003E814F815885122F0027FF24EE24852F23
:101010009927AA27BB27E82AF92A0A2B1B2BDA01D2
:10102000C90180709070B070892F9A2FAB2FBB27A9
:10103000E82AF92A0A2B1B2B207040705070542F7D
:10104000432F322F2227E22AF32A042B152BF501F6
:10105000E082F182028313838114910469F129856E
:101060003A854B855C85122F0027FF24EE24852FBF
:101070009927AA27BB27E82AF92A0A2B1B2BDA0172
:10108000C90180709070B070892F9A2FAB2FBB2749
:10109000E82AF92A0A2B1B2B207040705070542F1D
:1010A000432F322F2227E22AF32A042B152BF40197
:1010B000E082F182028313832C960FB6F894DEBF90
:1010C0000FBECDBFCF91DF911F910F91FF90EF9099
:1010D000DF90CF90BF90AF909F908F900895DF9357
:1010E000CF93CDB7DEB72C970FB6F894DEBF0FBE07
:1010F000CDBF80E091E0BE016F5F7F4F4CE00E946A
:101100003523882321F189819A81AB81BC81809329
:101110000C0190930D01A0930E01B0930F018985EE
:101120009A85AB85BC858093100190931101A093A3
:101130001201B09313018D819E81AF81B885809398
:10114000140190931501A0931601B09317012C96EA
:101150000FB6F894DEBF0FBECDBFCF91DF910895DB
:101160004F925F926F927F928F929F92AF92BF92B7
:10117000CF92DF92EF92FF920F931F93DF93CF9363
:10118000CDB7DEB72C970FB6F894DEBF0FBECDBF3C
:101190005B016C0139014A0180E091E02E01089465
:1011A000411C511CB2014CE00E943523882321F5DB
:1011B00080910C0190910D01A0910E01B0910F0151
:1011C00089839A83AB83BC8380911401909115012C
:1011D000A0911601B09117018D839E83AF83B887CC
:1011E0008091100190911101A0911201B091130111
:1011F00089879A87AB87BC87A114B104C104D10445
:1012000069F15A2D4427332722278D2D9927AA27A4
:10121000BB27282B392B4A2B5B2BD601C5018070AD
:101220009070B070892F9A2FAB2FBB27282B392BAA
:101230004A2B5B2B80E09FEFA0E0B0E0A822B92210
:10124000CA22DB22BC2DAB2D9A2D8827282B392BC7
:101250004A2B5B2B29833A834B835C836114710493
:101260008104910469F1562D442733272227892DC3
:101270009927AA27BB27282B392B4A2B5B2BD40174
:10128000C30180709070B070892F9A2FAB2FBB274D
:10129000282B392B4A2B5B2B80E09FEFA0E0B0E09E
:1012A000682279228A229B22B82DA72D962D882785
:1012B000282B392B4A2B5B2B2D833E834F8358875A
:1012C000E114F1040105110569F15E2D442733276E
:1012D0002227812F9927AA27BB27282B392B4A2B76
:1012E0005B2BD801C70180709070B070892F9A2F46
:1012F000AB2FBB27282B392B4A2B5B2B80E09FEF92
:10130000A0E0B0E0E822F9220A231B23B02FAF2D82
:101310009E2D8827282B392B4A2B5B2B29873A8730
:101320004B875C8780E091E0B2014CE00E94F6229E
:101330002C960FB6F894DEBF0FBECDBFCF91DF91D4
:101340001F910F91FF90EF90DF90CF90BF90AF90E3
:101350009F908F907F906F905F904F9008958F92A5
:101360009F92AF92BF92CF92DF92EF92FF920F9334
:101370001F93DF93CF9300D000D000D0CDB7DEB75E
:101380005C016B01E42EFB0180819181A281B3811C
:1013900020911001309111014091120150911301DF
:1013A00082279327A427B527209114013091150196
:1013B000409116015091170182239323A423B52352
:1013C0000097A105B10509F074C0CB014E01089446
:1013D000811C911CB4010E945B03882309F06CC03E
:1013E000C50164E170E00E94E9178C0185E4F80111
:1013F00080831182C5010E945517F92EC5010E94F4
:101400005517382F20E08F2D90E0282B392BF8012D
:1014100033832283909118018091190184839583ED
:10142000F60180819181A281B381F801808B918B3B
:10143000A28BB38B80910C0190910D01A0910E01B4
:10144000B0910F0184879587A687B787809118018F
:10145000909119010196909319018093180180E4ED
:1014600090E09783868380E88087E18613861286E2
:10147000C80164E170E00E945C19F80193878287DB
:10148000C50168E070E0A4010E940C0726960FB623
:10149000F894DEBF0FBECDBFCF91DF911F910F91AA
:1014A000FF90EF90DF90CF90BF90AF909F908F9084
:1014B000089580E191E08ACFC5010E94B01781E0D4
:1014C000E5CFEF92FF920F931F93DF93CF93CDB7AA
:1014D000DEB764970FB6F894DEBF0FBECDBF8C01A8
:1014E0007B010E946417449768F464960FB6F894E1
:1014F000DEBF0FBECDBFCF91DF911F910F91FF9047
:10150000EF900895C801BE016F5F7F4F44E150E046
:101510000E946F1729893A894B895C8980910C0157
:1015200090910D01A0910E01B0910F01281739077C
:101530004A075B07D1F6F701808180FD25C08091C5
:10154000100190911101A0911201B09113012D850C
:101550003E854F85588982279327A427B527209158
:101560001401309115014091160150911701822309
:101570009323A423B5230097A105B10581F4CE01DF
:101580000D96B7010E947F008A85813109F0ADCFA9
:10159000C801BE01635F7F4F0E94D50AA6CF80E1DC
:1015A00091E0B7010E947F00EFCFEF92FF920F937F
:1015B0001F93DF93CF93CDB7DEB72E970FB6F89476
:1015C000DEBF0FBECDBF8C017B010E946417089760
:1015D00068F42E960FB6F894DEBF0FBECDBFCF9144
:1015E000DF911F910F91FF90EF900895C801BE0108
:1015F000695F7F4F48E050E00E946F17F70120813C
:101600003181428153817F81688599858A858156A0
:101610009E41F9F66D837E8329833A834B835C83F5
:10162000C801BE016F5F7F4F0E944904D2CFAF92C5
:10163000BF92CF92DF92EF92FF920F931F936C01B4
:101640005B017A0168E070E00E94E9178C01F70104
:1016500090818181F80180839183F5019481858156
:10166000F8018283938317821682C6010E94551760
:10167000F92EC6010E945517382F20E08F2D90E0DB
:10168000282B392BF80135832483C601B50141E1AC
:101690000E94AF091F910F91FF90EF90DF90CF90C4
:1016A000BF90AF9008950F931F93DF93CF9300D017
:1016B00000D0CDB7DEB78C0180E093E0BE016F5F54
:1016C0007F4F44E00E943523882331F480911A0132
:1016D00090911B019A83898329813A812F5F3F4F23
:1016E00040E050E060E070E18EE090E00E94612711
:1016F000F80120833183428353830F900F900F9022
:101700000F90CF91DF911F910F910895CF92DF92AB
:10171000EF92FF920F931F93DF93CF9300D000D0EF
:10172000CDB7DEB77B018C0180E093E06E010894B9
:10173000C11CD11CB60144E00E943523882319F452
:1017400080911C018B8360E070E18EE090E0A80145
:1017500097010E946127215030403A83298380E01D
:1017600093E0B60144E00E94F6220F900F900F9094
:101770000F90CF91DF911F910F91FF90EF90DF902D
:10178000CF900895DF93CF9300D00F92CDB7DEB7FF
:101790000E94E30E882399F01B821A821982CE01DF
:1017A0000296BE016F5F7F4F0E94230F8A819B814B
:1017B00069810E944C198A819B810E9467260F9043
:1017C0000F900F90CF91DF9108950E94860F08959A
:1017D000DF93CF9300D000D0CDB7DEB780E093E0A9
:1017E000BE016F5F7F4F44E00E943523882349F09C
:1017F00089819A8190931B0180931A018B81809338
:101800001C0180911A0190911B0160911C010E94A2
:101810004E0F0F900F900F900F90CF91DF91089582
:101820000E947C0E08950E94C00E08950E94980E9A
:1018300008951092F8021092F7021092FA02109294
:10184000F90208950F931F938C0187EF92E0B8017E
:101850000E94EB0DC8010E9467261F910F91089509
:101860008F929F92AF92BF92CF92DF92EF92FF92B0
:101870000F931F93CF93DF938C014B018EE090E089
:101880000E94BD25EC010E94160CF42EE52ED62EEA
:10189000C72EB82EA92EA801122F140FF1E012178F
:1018A00008F0F0E0032F050FE1E0031708F0E0E097
:1018B0007F2F700F21E0701708F020E03E2F322BB1
:1018C0003F0D21E03F1508F020E0622F6E0D21E072
:1018D0006E1508F020E0522F5D0D21E05D1508F037
:1018E00020E0422F4C0D21E04C1508F020E02B0D9C
:1018F00091E02B1508F090E09A0D1C837D833E83C8
:101900006F83588749872A879B879D868C86E091BD
:10191000F702F091F802309709F447C083859817D1
:10192000A0F487EF92E0BF01AE010E94520DCE01FC
:10193000DF91CF911F910F91FF90EF90DF90CF90AB
:10194000BF90AF909F908F900895891759F00280B3
:10195000F381E02D309711F787EF92E0BE010E94EE
:10196000A10DE5CF82852817E0F2821781F78185E6
:101970004817B8F2841759F78085581790F28517E1
:1019800031F78781681768F2861709F7868138175B
:1019900040F28317E1F68581781718F28717B9F6B8
:1019A0008481181708F4BDCFD2CF87EF92E0BE0133
:1019B0000E94720DBCCFAF92BF92CF92DF92EF9296
:1019C000FF920F931F93E091F702F091F802309786
:1019D000F9F0A480B580C680D780F0841185E284B8
:1019E00003850E94160C901798F00917D1F06091AA
:1019F000F7027091F8028B01F801E484F58487EF17
:101A000092E00E94EB0DC8010E946726F70109953C
:101A10001F910F91FF90EF90DF90CF90BF90AF900C
:101A200008958E15A8F3E81611F7711788F31717A4
:101A3000F1F66F1568F3F616D1F65D1548F3D51675
:101A4000B1F64C1528F3C41691F63B1508F3B316FE
:101A500071F62A15E8F2CBCFCF93DF939C01DB011F
:101A6000FA017183608312968D919C9113979383F1
:101A700082831296CD91DC911397209749F0598378
:101A800048831396FC93EE931297DF91CF910895BC
:101A9000E9015B834A831396FC93EE931297DF91DF
:101AA000CF910895CF93DF939C01DB01FA018D91D3
:101AB0009C9111979183808373836283CD91DC9194
:101AC0001197209739F05B834A83ED93FC93DF9164
:101AD000CF910895E90159834883ED93FC93DF91F9
:101AE000CF910895CF93DF939C01DB01EC01E88156
:101AF000F9813097A1F08081918111969C938E930A
:101B00001396FC93EE931297C081D1812097A9F090
:101B10007B836A83B183A083DF91CF91089579831A
:101B200068837B836A8311961C921E9213961C9283
:101B30001E921297DF91CF910895E901798368830E
:101B4000E9CFCF93DF939C01EB01DC011296ED917D
:101B5000FC911397309789F0F983E8838281938110
:101B60009B838A83A281B3811097F9F06D937C9354
:101B7000D383C283DF91CF910895ED91FC911197AA
:101B80003097C9F08081918199838883FB83EA83B0
:101B9000A081B1811097D9F013967C936E93129720
:101BA000D183C083DF91CF910895D90113967C939F
:101BB0006E931297DDCF11967C936E9313967C9360
:101BC0006E931297198218821B821A82D3CFD90181
:101BD0006D937C93E5CFCF93DF93EC01FB01A08164
:101BE000B181109781F08281938113969C938E939B
:101BF00012970280F381E02D309771F0B183A083BA
:101C0000DF91CF91089582819381998388830280A7
:101C1000F381E02D309791F7BB83AA83DF91CF91B9
:101C20000895CF93DF93FC01DB018481882391F039
:101C300011961C921E92C081D181209779F07983F0
:101C40006883B183A08384818150848380E0DF91A5
:101C5000CF91089581E0DF91CF91089573836283DE
:101C6000F0CF20E0FC0182819381892B09F021E0F3
:101C7000822F089520E0FC018481882309F421E06B
:101C8000822F0895FC01A281B381109751F08D91AC
:101C90009C91119793838283892B29F084818F5F94
:101CA0008483CD01089511821082F8CF1F920F9284
:101CB0000FB60F9211248F939F93AF93BF9312BED1
:101CC0008091FB029091FC02A091FD02B091FE0276
:101CD0000196A11DB11D8093FB029093FC02A0937D
:101CE000FD02B093FE02BF91AF919F918F910F9033
:101CF0000FBE0F901F9018951092FB021092FC02DD
:101D00001092FD021092FE0287B78C7F87BF80B7CA
:101D1000886080BF12BE11BE83E083BF00B602FEA2
:101D2000FDCF86B78C7F86BF87B7816087BF089558
:101D3000AF92BF92CF92DF92EF92FF920F931F93D9
:101D4000A090FB02B090FC02C090FD02D090FE0279
:101D500082B7DC2CCB2CBA2CAA24A80EB11CC11C37
:101D6000D11C9501A60160E070E080E090E01F9139
:101D70000F91FF90EF90DF90CF90BF90AF900895BC
:101D80002091FB023091FC024091FD025091FE0235
:101D900082B7542F432F322F2227280F311D411D88
:101DA000511DB901CA0108952091FB023091FC0236
:101DB0004091FD025091FE0282B7322F2227280F58
:101DC000311DC90108958FE294E00E94310E0895FB
:101DD000CF93DF93559884E394E00E94420EEC0188
:101DE0008C8146E950E0481B510949565C4F8823D5
:101DF00019F1282F2150822F90E0DA01A80FB91F86
:101E0000EA81FB81E80FF91F80818C93215098F7BC
:101E10008EE293E090932E0480932D048C8188238E
:101E200021F08A819B810E946726CE010E9467264D
:101E3000559ADF91CF9108958EE293E090932E040E
:101E400080932D04F2CFEF92FF920F931F937C01AA
:101E50008B018FE294E00E94420EFC018481D80144
:101E60008C9382819381D7018D939C93CF010E94A3
:101E700067268091390490913A040E94220C80E0F8
:101E800092E061E270E10E94300C90933A048093FA
:101E900039041F910F91FF90EF90089522E022B92D
:101EA00010989093900089B9599888E98AB98EE082
:101EB000809395001092300410922F0410923204F7
:101EC0001092310425E0209333048FEF92E0909339
:101ED0009603809395031092350410923404109267
:101EE000370410923604209338048DE294E09093E6
:101EF0002E0480932D0480E092E061E270E10E9464
:101F0000300C90933A048093390408950F931F93F3
:101F1000CF93DF93AC01062F162F11501639D0F452
:101F200055991DC026E930E0261B310929563C4F42
:101F3000662359F0E12FF0E0D901AE0FBF1FE40F87
:101F4000F51F80818C931150A8F730932E042093B5
:101F50002D04559ADF91CF911F910F91089584E33D
:101F600094E00E943A0E8130A9F385E090E00E944F
:101F7000BD25EC010C83802F90E00E94BD258A8353
:101F80009B83002369F0812F90E0FC01E956FC4F10
:101F90002081EA81FB81E80FF91F2083115098F717
:101FA00084E394E0BE010E94110ED4CFFF920F9300
:101FB0001F93CF93DF9357988FE294E00E943A0EDD
:101FC000882369F00FEF12E01093960300939503B6
:101FD000579ADF91CF911F910F91FF90089585E05F
:101FE00090E00E94BD25EC018091950390919603AD
:101FF0000FEF12E08017910701F1F82EF01AFC8222
:102000008F2D90E00E94BD258A839B83FF2079F06D
:102010003F2D3150832F90E0FC01E150FD4F208196
:10202000EA81FB81E80FF91F2083315098F78FE296
:1020300094E0BE010E94110EC7CF1C821B821A823F
:10204000F6CFFF920F931F93CF93DF9357988FE2B2
:1020500094E00E943A0E8823B9F00FEF12E010933B
:10206000960300939503579A80E092E061E270E155
:102070000E94300C90933A0480933904DF91CF9101
:102080001F910F91FF90089585E090E00E94BD257B
:10209000EC0180919503909196030FEF12E0801769
:1020A000910701F1F82EF01AFC828F2D90E00E942A
:1020B000BD258A839B83FF2079F03F2D3150832FEC
:1020C00090E0FC01E150FD4F2081EA81FB81E80FA7
:1020D000F91F2083315098F78FE294E0BE010E94EF
:1020E000110EBDCF1C821B821A82F6CF1F920F9257
:1020F0000FB60F920BB60F921124FF920F931F93FE
:102100002F933F934F935F936F937F938F939F93FF
:10211000AF93BF93CF93DF93EF93FF93E09195033A
:10212000F09196038CB180838091950390919603F2
:102130000196909396038093950385599340C0F43C
:10214000FF91EF91DF91CF91BF91AF919F918F91CF
:102150007F916F915F914F913F912F911F910F91BF
:10216000FF900F900BBE0F900FBE0F901F90189511
:1021700057988FE294E00E943A0E882341F00FEFC7
:1021800012E01093960300939503579AD9CF85E0F8
:1021900090E00E94BD25EC018091950390919603FB
:1021A0000FEF12E08017910701F1F82EF01AFC8270
:1021B0008F2D90E00E94BD258A839B83FF2079F0BC
:1021C0003F2D3150832F90E0FC01E150FD4F2081E5
:1021D000EA81FB81E80FF91F2083315098F78FE2E5
:1021E00094E0BE010E94110ECCCF1C821B821A8289
:1021F000F6CF1F920F920FB60F920BB60F921124CB
:102200002F933F934F935F936F937F938F939F93FE
:10221000AF93BF93CF93DF93EF93FF93E0912D04A0
:10222000F0912E0480818CB984E0EC32F807D0F470
:102230003196F0932E04E0932D04FF91EF91DF91FE
:10224000CF91BF91AF919F918F917F916F915F914E
:102250004F913F912F910F900BBE0F900FBE0F909B
:102260001F90189584E394E00E94310E882311F0AA
:102270005598E3CF559884E394E00E94420EEC0118
:102280008C8146E950E0481B510949565C4F882330
:1022900009F1282F2150822F90E0DA01A80FB91FF1
:1022A000EA81FB81E80FF91F80818C93215098F718
:1022B0008EE293E090932E0480932D048C818823EA
:1022C00021F08A819B810E946726CE010E946726A9
:1022D000559AB3CF8EE293E090932E0480932D0411
:1022E000F4CFFB01C0988FB9779BFECF4115510504
:1022F00041F080818FB9779BFECF3196415050409D
:10230000C1F7C09A0895DF93CF930F92CDB7DEB790
:102310006983C0988FB9779BFECFFE0131969E01ED
:102320002E5F3F4F81918FB9779BFECFE217F30766
:10233000C9F7C09A0F90CF91DF910895FB01C09823
:102340008FB9779BFECF222329F01FB8779BFECF52
:102350002150D9F74115510551F01FB8779BFECF99
:102360008FB180834150504011F03196F6CFC09A22
:102370000895DF93CF930F92CDB7DEB7482F87FD37
:102380003BC0282F30E02076307080913B0490E0F5
:102390008217930789F183E08983C0988FEB8FB907
:1023A000779BFECFBE016F5F7F4FFB01DE01129670
:1023B00081918FB9779BFECFEA17FB07C9F7C09AC7
:1023C00035952795359527953595279535952795F5
:1023D000359527952983C0988FE98FB9779BFECFD4
:1023E000FB0181918FB9779BFECFEA17FB07C9F7F5
:1023F000C09A407640933B040F90CF91DF910895AF
:1024000087E087BBBB98C09A80E58DB981E08EB923
:1024100010923B04089590E080769070803491058E
:1024200031F020E08036910511F0822F089521E0EF
:10243000822F0895FC01C0988AE78FB9779BFECF61
:102440006115710541F080818FB9779BFECF319680
:1024500061507040C1F7C09A0895C0988FEF8FB94E
:10246000779BFECFC09A0895DF93CF930F92CDB79D
:10247000DEB7C0988AE38FB9779BFECF1FB8779BF2
:10248000FECF8FB18983C09A89810F90CF91DF9160
:102490000895DF93CF9300D0CDB7DEB7C0988AE31D
:1024A0008FB9779BFECFFE0131969E012E5F3F4F85
:1024B0001FB8779BFECF8FB18083E217F30711F02F
:1024C0003196F6CFC09A89819A810F900F90CF9163
:1024D000DF910895AC01C0988AE38FB9779BFECF56
:1024E0006115710559F0FA011FB8779BFECF8FB1C6
:1024F00080836150704011F03196F6CFC09ACA01C6
:102500000895FF920F931F93DF93CF930F92CDB750
:10251000DEB7A82FB62FF72E87FD6CC0282F30E02E
:102520002076307080913B0490E082179307A1F1F0
:1025300083E08983C0988FEB8FB9779BFECFBE0174
:102540006F5F7F4FFB018E010E5F1F4F81918FB92F
:10255000779BFECFE017F107C9F7C09AC90195959F
:102560008795959587959595879595958795959553
:1025700087958983C0988FE98FB9779BFECFFB0140
:1025800081918FB9779BFECFE017F107C9F7C09A09
:102590008A2F807680933B0420343105F9F080E067
:1025A00020363105D9F0C098AF71AFB9779BFECF17
:1025B000882319F01FB8779BFECF4115510581F094
:1025C0008B2F9F2D9C01F9011FB8779BFECF8FB1F8
:1025D00080834150504021F03196F6CF81E0E3CF27
:1025E000C09A8B2F9F2D0F90CF91DF911F910F914C
:1025F000FF900895282F30E020763070CDCFDF9304
:10260000CF9300D0CDB7DEB7482F6A8387FD54C083
:10261000282F30E02076307080913B0490E08217C4
:10262000930709F449C083E08983C0988FEB8FB981
:10263000779BFECFDE011196FD01BE016E5F7F4FDD
:1026400081918FB9779BFECFE617F707C9F7C09A3C
:102650003595279535952795359527953595279562
:10266000359527952983C0988FE98FB9779BFECF41
:10267000FD0181918FB9779BFECFE617F707C9F768
:10268000C09A842F807680933B044F714068C09835
:102690004FB9779BFECFFB019E012D5F3F4F81918C
:1026A0008FB9779BFECFE217F307C9F7C09A0F9057
:1026B0000F90CF91DF910895BE016E5F7F4FE5CF00
:1026C000DF93CF9300D0CDB7DEB7482F6A8387FD65
:1026D00054C0282F30E02076307080913B0490E089
:1026E0008217930709F449C083E08983C0988FEB70
:1026F0008FB9779BFECFDE011196FD01BE016E5FA3
:102700007F4F81918FB9779BFECFE617F707C9F707
:10271000C09A359527953595279535952795359503
:102720002795359527952983C0988FE98FB9779B91
:10273000FECFFD0181918FB9779BFECFE617F7079A
:10274000C9F7C09A842F807680933B044F71406A0A
:10275000C0984FB9779BFECFFB019E012D5F3F4F85
:1027600081918FB9779BFECFE217F307C9F7C09A23
:102770000F900F90CF91DF910895BE016E5F7F4F54
:10278000E5CFEF92FF921F93DF93CF930F92CDB7D8
:10279000DEB7182FFB0187FD3FC0282F30E02076E1
:1027A000307080913B0490E082179307A9F183E099
:1027B0008983C0988FEB8FB9779BFECFBE016F5F87
:1027C0007F4FDB0182E0E82EF12CEC0EFD1E8D9197
:1027D0008FB9779BFECFAE15BF05C9F7C09A359567
:1027E00027953595279535952795359527953595D1
:1027F00027952983C0988FE98FB9779BFECFDB019E
:102800008D918FB9779BFECFAE15BF05C9F7C09AE2
:10281000812F807680933B041F711064C0981FB98C
:10282000779BFECF4115510541F080818FB9779B91
:10283000FECF319641505040C1F7C09A0F90CF91D2
:10284000DF911F91FF90EF900895DF93CF9300D019
:10285000CDB7DEB7482F6A8387FD54C0282F30E0FC
:102860002076307080913B0490E08217930709F442
:1028700049C083E08983C0988FEB8FB9779BFECFE7
:10288000DE011196FD01BE016E5F7F4F81918FB910
:10289000779BFECFE617F707C9F7C09A35952795BE
:1028A0003595279535952795359527953595279510
:1028B0002983C0988FE98FB9779BFECFFD01819165
:1028C0008FB9779BFECFE617F707C9F7C09A842F19
:1028D000807680933B044F714064C0984FB9779BDA
:1028E000FECFFB019E012D5F3F4F81918FB9779BFA
:1028F000FECFE217F307C9F7C09A0F900F90CF9160
:10290000DF910895BE016E5F7F4FE5CFDF93CF93D8
:1029100000D00F92CDB7DEB7482F7B836A8387FD47
:1029200055C0282F30E02076307080913B0490E035
:102930008217930709F44AC083E08983C0988FEB1C
:102940008FB9779BFECFDE011196FD01BE016E5F50
:102950007F4F81918FB9779BFECFE617F707C9F7B5
:10296000C09A3595279535952795359527953595B1
:102970002795359527952983C0988FE98FB9779B3F
:10298000FECFFD0181918FB9779BFECFE617F70748
:10299000C9F7C09A842F807680933B044F714064BE
:1029A000C0984FB9779BFECFFB019B012E5F3F4F35
:1029B00081918FB9779BFECFE217F307C9F7C09AD1
:1029C0000F900F900F90CF91DF910895BE016E5F31
:1029D0007F4FE4CFEF92FF921F93DF93CF930F923D
:1029E000CDB7DEB7182FFB0187FD3FC0282F30E0A1
:1029F0002076307080913B0490E082179307A9F114
:102A000083E08983C0988FEB8FB9779BFECFBE019F
:102A10006F5F7F4FDB0182E0E82EF12CEC0EFD1E94
:102A20008D918FB9779BFECFAE15BF05C9F7C09AC0
:102A3000359527953595279535952795359527957E
:102A4000359527952983C0988FE98FB9779BFECF5D
:102A5000DB018D918FB9779BFECFAE15BF05C9F70E
:102A6000C09A812F807680933B041F711064C098B8
:102A70001FB9779BFECF4115510541F080818FB979
:102A8000779BFECF319641505040C1F7C09A0F90CE
:102A9000CF91DF911F91FF90EF900895DF93CF9337
:102AA00000D0CDB7DEB78A8380913B04803409F42F
:102AB00092C083E08983C0988FEB8FB9779BFECF5C
:102AC000DE011196FD019E012E5F3F4F81918FB96E
:102AD000779BFECFE217F307C9F7C09A82E089839C
:102AE000C0988FE98FB9779BFECFFD0181918FB997
:102AF000779BFECFE217F307C9F7C09A80E4809373
:102B00003B04C09884E58FB9779BFECFF901AE01F5
:102B10004D5F5F4F81918FB9779BFECFE417F5072B
:102B2000C9F7C09A6983C09886E58FB9779BFECFB5
:102B3000FD0181918FB9779BFECFE217F307C9F7AB
:102B4000C09A7983C09887E58FB9779BFECFFD0146
:102B500081918FB9779BFECFE217F307C9F7C09A2F
:102B600090E463E07FEBAFE9BAE09036E9F06A8386
:102B7000C0987FB9779BFECFF90181918FB9779B80
:102B8000FECFE417F507C9F7C09A6A83C098AFB9BA
:102B9000779BFECFF90181918FB9779BFECFE41728
:102BA000F507C9F7C09A90E6C098BFB9779BFECFEA
:102BB0001FB8779BFECF1FB8779BFECF8FB189835D
:102BC000C09A898180FDD1CF90933B040F900F90E4
:102BD000CF91DF910895DE0111969E012E5F3F4F48
:102BE00090CFDF93CF9300D00F92CDB7DEB7482FB1
:102BF00087FD68C0282F30E02076307080913B043C
:102C000090E08217930709F465C083E08983C09838
:102C10008FEB8FB9779BFECFDE011196FD01BE01D0
:102C20006E5F7F4F81918FB9779BFECFE617F707D5
:102C3000C9F7C09AC90195958795959587959595FA
:102C4000879595958795959587958983C0988FE900
:102C50008FB9779BFECFFD0181918FB9779BFECF16
:102C6000E617F707C9F7C09A842F807680933B0454
:102C700020343105E1F080E020363105C1F0C09804
:102C80004F714FB9779BFECF882319F01FB8779B00
:102C9000FECFFB019E012D5F3F4F1FB8779BFECFFC
:102CA0008FB18083E217F30721F03196F6CF81E0F0
:102CB000E6CFC09A8B819A810F900F900F90CF91A1
:102CC000DF910895282F30E020763070BE016E5FCE
:102CD0007F4FCECFBE016E5F7F4FCACFDF93CF93C2
:102CE00000D0CDB7DEB7482F87FD5CC0282F30E07D
:102CF0002076307080913B0490E08217930799F121
:102D000083E08A83C0988FEB8FB9779BFECFBE019B
:102D10006E5F7F4FFB01DE01139681918FB9779B28
:102D2000FECFEA17FB07C9F7C09AC90195958795A9
:102D3000959587959595879595958795959587957B
:102D40008A83C0988FE98FB9779BFECFFB01819171
:102D50008FB9779BFECFEA17FB07C9F7C09A842F7C
:102D6000807680933B0420343105D1F080E020361A
:102D70003105B1F0C0984F714FB9779BFECF8823D2
:102D800019F01FB8779BFECF1FB8779BFECF8FB18E
:102D90008983C09A89810F900F90CF91DF91089518
:102DA00081E0E8CF282F30E020763070DCCFFF9232
:102DB0000F931F93DF93CF930F92CDB7DEB7A82F5A
:102DC000B62FF72E87FD6CC0282F30E020763070AC
:102DD00080913B0490E082179307A1F183E08983FF
:102DE000C0988FEB8FB9779BFECFBE016F5F7F4F8F
:102DF000FB018E010E5F1F4F81918FB9779BFECF34
:102E0000E017F107C9F7C09AC9019595879595957F
:102E100087959595879595958795959587958983B8
:102E2000C0988FE98FB9779BFECFFB0181918FB955
:102E3000779BFECFE017F107C9F7C09A8A2F8076FB
:102E400080933B0420343105F9F080E020363105D1
:102E5000D9F0C098AF71AFB9779BFECF882319F036
:102E60001FB8779BFECF4115510581F08B2F9F2D09
:102E70009C01F9011FB8779BFECF8FB18083415031
:102E8000504021F03196F6CF81E0E3CFC09A8B2FEE
:102E90009F2D0F90CF91DF911F910F91FF9008957B
:102EA000282F30E020763070CDCFFC010190F081EA
:102EB000E02D309729F00680F781E02DCF010895AD
:102EC000E0E0F0E0CF010895FC01009721F02081BF
:102ED0003181C901089520E030E0C90108950F93C0
:102EE0001F93CF93DF938C01DC01ED91FC91EA01FC
:102EF000E417F50708F4EF01CB01BE010E946A1246
:102F0000F801808191818C1B9D0B91838083CE0180
:102F1000DF91CF911F910F910895CF93DF93EC0133
:102F20006A817B81615070408AE16030780790F45B
:102F30008CE00E9486148EE960E40E94FF126A8190
:102F40007B8180E00E948614CE010E946726DF917B
:102F5000CF9108958CE06FEF79E10E948614EBCF5A
:102F60000F931F93CF93DF938C01009779F416C0D2
:102F700088819981009711F00E9467268C819D813C
:102F8000F80191838083CE010E946726F801C081F9
:102F9000D181209769F7C8010E946726DF91CF9100
:102FA0001F910F9108951F93CF93DF9311E3C0E01A
:102FB000D0E906C0CE010197F1F711501F3F29F06B
:102FC0008FE90E946E1683FDF5CFDF91CF911F919F
:102FD0000895EF92FF920F931F93CF93DF937C019D
:102FE0008B0188E090E00E94BD25EC011B830A83E1
:102FF00001151105E9F419821882D701ED91FC91B0
:10300000FD83EC83309701F1868197812A813B8192
:10301000820F931F9F838E83F701D183C0838881A2
:103020009981DF91CF911F910F91FF90EF900895BB
:10303000C8010E94BD2588839983D701ED91FC9139
:10304000FD83EC83309701F78A819B819F838E8378
:10305000E3CF82E090E00E94BD25FC011182108246
:103060000895CF93DF938CE90E946E1686FF13C0FC
:1030700084E090E00E94BD25EC010E9449129B83F0
:103080008A830E944912998388830E944912CE0143
:10309000DF91CF91089589E30E946E16882341F74E
:1030A000C0E0D0E0F4CFCF93DF93EC010E94001298
:1030B0000E942D1220E030E040E751E0CA01019764
:1030C000F1F72F5F3F4F81E0243F3807B9F78DE9D3
:1030D0000E946E1680FFFBCF88E060E00E942514FE
:1030E00089E060E00E9425148AE06FEF0E942514B9
:1030F0008BE069E10E94251484E060E07AE10E949F
:10310000861486E06FEF7FE10E94861481E460E020
:103110000E94251480E46DE00E94251482E462E39D
:103120000E9425148AE46EEE0E9425148BE465E06B
:103130000E94251484E462E10E94251486E462E181
:103140000E94251487E46CE00E94251481E66D81BD
:103150000E94251480E66C810E94251483E66B8111
:103160000E94251482E66A810E94251485E6698101
:103170000E94251484E668810E94251480E160E0A5
:1031800071E00E944E1584E162E774E00E944E15E2
:103190008FE964E00E94FF1280E060E070E00E942E
:1031A0008614DF91CF910895BF92CF92DF92EF9274
:1031B000FF920F931F93DF93CF930F92CDB7DEB79C
:1031C0006C01B62E12E3E12C80E9F82E05C0C70190
:1031D0000197F1F7115029F08FE90E946E1683FDD7
:1031E000F6CF84E060E07AE10E94861482E060E03D
:1031F0007AE10E9486141982CE01019661E070E0A6
:103200000E941A12F601008111810115110581F049
:10321000F80162817381808191810E941A12F80104
:10322000048115810115110599F7F60100811181BD
:10323000F801668177816050764E86E00E948614A0
:103240008FE960E80E94FF128FE960E80E94601336
:103250008FE96CE00E94FF121B2DB0FC07C08FE9C4
:103260000E946E1683FFFBCF11FF0DC090E0892FE7
:103270000F90CF91DF911F910F91FF90EF90DF9012
:10328000CF90BF9008958DE90E946E1690E08271F4
:1032900071F391E0ECCF08952CE334E070E0A901E4
:1032A000245F3F4F0E941E0580E00895662309F4C5
:1032B00008950E94E50B0895DC0160FD34C020E014
:1032C00030E040E050E0769567956115710501F1B9
:1032D000FB01E150F048EE0FFF1FEA0FFB1F80815A
:1032E0009181A0E0B0E0280F391F4A1F5B1F329781
:1032F00061507040A1F7CA01AA27BB270097A1051A
:10330000B10569F040705070280F391F4A1F5B1FCC
:10331000CA01AA27BB270097A105B10599F72095F7
:103320003095C9010895FC01E60FF71F8081282F11
:1033300030E040E050E0C7CFFC018081882341F0BD
:1033400090E09F5F818131968823D9F7892F089576
:1033500090E0FCCFF8940C9400F080E0089581E0B8
:103360008093BC0280E008958091BC0208950F9381
:103370001F93DF93CF93CDB7DEB72E970FB6F89498
:10338000DEBF0FBECDBFCE0101960E94530B8E0152
:103390000B5F1F4F8AE0F80111928A95E9F7698166
:1033A0007A818B819C81A8012AE030E00E94F72677
:1033B0008D818823D9F060E0FE0136966F5F8191A0
:1033C0008823E1F770E0C80142E454E028E434E0E7
:1033D0000E94AF0580E02E960FB6F894DEBF0FBEB8
:1033E000CDBFCF91DF911F910F91089560E070E004
:1033F000EACFDF93CF9300D0CDB7DEB79A8389832E
:10340000CE0101960E947C200E94860B80E00F90E6
:103410000F90CF91DF910895CF92DF92EF92FF92BC
:103420000F931F93DF93CF9300D0CDB7DEB79A836E
:103430008983CE0101960E947C206B017C0160E0B3
:1034400070E080E090E040E050E000E010E020E03C
:1034500030E07601CC24DD240E945F2480E00F90D0
:103460000F90CF91DF911F910F91FF90EF90DF9020
:10347000CF900895CF92DF92EF92FF920F931F9318
:10348000DF93CF9300D0CDB7DEB79A838983CE0187
:1034900001960E947C209B01AC0160E070E080E01E
:1034A00090E0A90100E010E020E030E0EE24FF24ED
:1034B000CC24DD240E945F2480E00F900F90CF91F8
:1034C000DF911F910F91FF90EF90DF90CF900895C3
:1034D0000F931F93DF93CF93CDB7DEB727970FB628
:1034E000F894DEBF0FBECDBF80E090E060E070E0FA
:1034F00040E050E09E012F5F3F4F00E010E00E944F
:103500007D238E010D5F1F4F85E0F80111928A9592
:10351000E9F769817A8180E090E0A8012AE030E053
:103520000E94F7268B818823D9F060E0FE01349653
:103530006F5F81918823E1F770E0C80142E454E0B5
:1035400028E434E00E94AF0580E027960FB6F89497
:10355000DEBF0FBECDBFCF91DF911F910F910895B8
:1035600060E070E0EACF0F931F93DF93CF93CDB766
:10357000DEB727970FB6F894DEBF0FBECDBF80E051
:1035800090E0BE016F5F7F4F40E050E020E030E010
:1035900000E010E00E947D238E010D5F1F4F85E04B
:1035A000F80111928A95E9F769817A8180E090E0CB
:1035B000A8012AE030E00E94F7268B818823D9F009
:1035C00060E0FE0134966F5F81918823E1F770E03F
:1035D000C80142E454E028E434E00E94AF0580E0F2
:1035E00027960FB6F894DEBF0FBECDBFCF91DF9107
:1035F0001F910F91089560E070E0EACFCF92DF92C3
:10360000EF92FF920F931F93DF93CF9300D0CDB72C
:10361000DEB79A838983CE0101960E94F2208B0146
:103620009C0160E070E080E090E040E050E0EE243B
:10363000FF24CC24DD240E945F2480E00F900F90B3
:10364000CF91DF911F910F91FF90EF90DF90CF907E
:103650000895CF92DF92EF92FF920F931F93DF9323
:10366000CF9300D0CDB7DEB79A838983CE01019680
:103670000E94F22040E050E000E010E020E030E066
:10368000EE24FF24CC24DD240E945F2480E00F90F0
:103690000F90CF91DF911F910F91FF90EF90DF90EE
:1036A000CF9008956F927F928F929F92AF92BF9228
:1036B000CF92DF92EF92FF920F931F93DF93CF93FE
:1036C00000D0CDB7DEB79A8389838E010F5F1F4F7D
:1036D000C8010E94F2203B014C01E981FA818081FE
:1036E000803231F43196FA83E98380818032D1F3DC
:1036F000C8010E94F2205B016C01E981FA8180819E
:10370000803231F43196FA83E98380818032D1F3BB
:10371000C8010E94F2207B018C01C401B301A60103
:1037200095010E94B00880E00F900F90CF91DF913B
:103730001F910F91FF90EF90DF90CF90BF90AF90CF
:103740009F908F907F906F900895EF92FF920F93CC
:103750001F93DF93CF9300D0CDB7DEB79A838983D1
:10376000CE0101960E94F2207B018C0160E070E0A6
:1037700080E090E020E030E040E050E00E94B008BF
:1037800080E00F900F90CF91DF911F910F91FF90EC
:10379000EF900895EF92FF920F931F93DF93CF93D3
:1037A00000D0CDB7DEB79A838983CE0101960E94FF
:1037B000F2209B01AC0160E070E080E090E0EE243C
:1037C000FF2487010E94B00880E00F900F90CF91F6
:1037D000DF911F910F91FF90EF900895EF92FF926C
:1037E0000F931F93DF93CF9300D0CDB7DEB79A83AB
:1037F0008983CE0101960E94F22020E030E040E073
:1038000050E0EE24FF2487010E94B00880E00F9072
:103810000F90CF91DF911F910F91FF90EF9008953E
:10382000BF92CF92DF92EF92FF920F931F93DF939D
:10383000CF93CDB7DEB767970FB6F894DEBF0FBE54
:10384000CDBF8E010F5F1F4FC8010E94440697E055
:10385000C92ED12CCC0EDD1E81E1F60111928A9584
:10386000E9F7780186018AE3B82EF701808190E0BC
:10387000B80140E150E00E941C2702C00F5F1F4FBB
:10388000F8019081892F80538A30C0F381538630AC
:10389000A8F39154963090F3B1920894E11CF11C76
:1038A000EC14FD0411F08F01E0CFF80110828F813C
:1038B000882301F160E0FE0138966F5F81918823D3
:1038C000E1F770E0C60142E454E028E434E00E94ED
:1038D000AF0580E067960FB6F894DEBF0FBECDBF90
:1038E000CF91DF911F910F91FF90EF90DF90CF90DC
:1038F000BF90089560E070E0E5CFDF92EF92FF9215
:103900000F931F93DF93CF9300D000D0CDB7DEB7D6
:103910008C0149835A836B837C8334E0E32EF12C42
:10392000EC0EFD1E2EE2D22EF701808190E0B80150
:103930004AE050E00E941C2702C00F5F1F4FF801B1
:10394000808180538A30C8F3F801D1920894E1084D
:10395000F108EC16FD0611F08F01E6CFF801108298
:10396000C8010F900F900F900F90CF91DF911F9192
:103970000F91FF90EF90DF9008950F931F93DF93C7
:10398000CF93CDB7DEB728970FB6F894DEBF0FBE42
:10399000CDBF98878F838E01095F1F4FC8010E949A
:1039A000C12069838F819885019698878F83C8018C
:1039B0000E94C1206A838F819885019698878F83A2
:1039C000C8010E94C1206B838F81988501969887DA
:1039D0008F83C8010E94C1206C838F8198850196D6
:1039E00098878F83C8010E94C1206D838F8198853D
:1039F000019698878F83C8010E94C1206E838F81B2
:103A00009885019698878F83CE0101960E947E0645
:103A100080E028960FB6F894DEBF0FBECDBFCF91E1
:103A2000DF911F910F9108959F92AF92BF92CF9215
:103A3000DF92EF92FF920F931F93DF93CF93CDB757
:103A4000DEB767970FB6F894DEBF0FBECDBFCE01CD
:103A5000019660E070E040E050E00E94870779E066
:103A6000A72EB12CAC0EBD1E8FE0F50111928A95E8
:103A7000E9F789819A81AB81BC818D839E83AF8375
:103A8000B88768E0E62EF12CEC0EFD1E850154E0AF
:103A9000C52ED12CCC0EDD1E4EE2942EF701808176
:103AA00090E0B8014AE050E00E941C2702C00F5F7E
:103AB0001F4FF801808180538A30C8F3F80191923A
:103AC0000894E108F108EC14FD0411F08F01E6CF31
:103AD000F80110828985882311F160E0FE013A9691
:103AE0006F5F81918823E1F770E0C50142E454E003
:103AF00028E434E00E94AF0580E067960FB6F894A2
:103B0000DEBF0FBECDBFCF91DF911F910F91FF9010
:103B1000EF90DF90CF90BF90AF909F90089560E0BE
:103B200070E0E3CF9F92AF92BF92CF92DF92EF927D
:103B3000FF920F931F93DF93CF93CDB7DEB76797B5
:103B40000FB6F894DEBF0FBECDBF80E090E060E01E
:103B500070E0AE014F5F5F4F20E030E000E010E02A
:103B60000E947D23B9E0AB2EB12CAC0EBD1E8FE0C0
:103B7000F50111928A95E9F789819A81AB81BC811F
:103B80008D839E83AF83B887A8E0EA2EF12CEC0EDC
:103B9000FD1E8501F4E0CF2ED12CCC0EDD1EEEE211
:103BA0009E2EF701808190E0B8014AE050E00E942B
:103BB0001C2702C00F5F1F4FF801808180538A309D
:103BC000C8F3F80191920894E108F108EC14FD049F
:103BD00011F08F01E6CFF80110828985882311F159
:103BE00060E0FE013A966F5F81918823E1F770E013
:103BF000C50142E454E028E434E00E94AF0580E0CF
:103C000067960FB6F894DEBF0FBECDBFCF91DF91A0
:103C10001F910F91FF90EF90DF90CF90BF90AF90EA
:103C20009F90089560E070E0E3CF9F92AF92BF92C3
:103C3000CF92DF92EF92FF920F931F93DF93CF9378
:103C4000CDB7DEB767970FB6F894DEBF0FBECDBF16
:103C5000CE01019660E070E040E050E020E030E00E
:103C600000E010E00E947D2339E0A32EB12CAC0EC1
:103C7000BD1E8FE0F50111928A95E9F789819A813D
:103C8000AB81BC818D839E83AF83B88728E0E22E11
:103C9000F12CEC0EFD1E850194E0C92ED12CCC0E2A
:103CA000DD1E8EE2982EF701808190E0B8014AE097
:103CB00050E00E941C2702C00F5F1F4FF801808157
:103CC00080538A30C8F3F80191920894E108F10812
:103CD000EC14FD0411F08F01E6CFF8011082898504
:103CE000882311F160E0FE013A966F5F819188238D
:103CF000E1F770E0C50142E454E028E434E00E94BA
:103D0000AF0580E067960FB6F894DEBF0FBECDBF5B
:103D1000CF91DF911F910F91FF90EF90DF90CF90A7
:103D2000BF90AF909F90089560E070E0E3CF4F9216
:103D30005F926F927F929F92AF92BF92CF92DF92EB
:103D4000EF92FF920F931F93DF93CF93CDB7DEB720
:103D5000C754D0400FB6F894DEBF0FBECDBFCE0122
:103D60000196BE016B5F7F4FAE01475F5F4F0E94C0
:103D70008707B9E14B2E512C4C0E5D1E8FE2F201EC
:103D800011928A95E9F789819A81AB81BC818D87EF
:103D90009E87AF87B88BA0E16A2E712C6C0E7D1EBA
:103DA00063018201FCE0AF2EB12CAC0EBD1EEEE231
:103DB0009E2EF601808190E0B8014AE050E00E941A
:103DC0001C2702C00F5F1F4FF801808180538A308B
:103DD000C8F3F80191927F010894C108D108CA1470
:103DE000DB0411F08F01E5CF80E2F80180838D8143
:103DF0009E81AF81B885898B9A8BAB8BBC8B74E12C
:103E0000A72EB12CAC0EBD1E65016EE2962EF601FA
:103E1000808190E0B7014AE050E00E941C2703C077
:103E20000894E11CF11CF701808180538A30C0F3B3
:103E3000F70191928F010894C108D108C614D704E4
:103E400011F07F01E4CF80E2F701808389859A85B4
:103E5000AB85BC858D8B9E8BAF8BB88F58E1E52EE3
:103E6000F12CEC0EFD1E4EE2D42EF701808190E085
:103E7000B8014AE050E00E941C2702C00F5F1F4FAC
:103E8000F801808180538A30C8F3F801D1920894F8
:103E9000E108F108EA14FB0411F08F01E6CFF80104
:103EA0001082898D882339F160E0FE017A966F5F78
:103EB00081918823E1F770E0C20142E454E028E4F4
:103EC00034E00E94AF0580E0C95BDF4F0FB6F89485
:103ED000DEBF0FBECDBFCF91DF911F910F91FF903D
:103EE000EF90DF90CF90BF90AF909F907F906F90BA
:103EF0005F904F90089560E070E0DECF9F92AF92A8
:103F0000BF92CF92DF92EF92FF920F931F93DF93B6
:103F1000CF93CDB7DEB767970FB6F894DEBF0FBE6D
:103F2000CDBF80E090E060E070E0AE014F5F5F4F9A
:103F30000E94870739E0A32EB12CAC0EBD1E8FE086
:103F4000F50111928A95E9F789819A81AB81BC814B
:103F50008D839E83AF83B88728E0E22EF12CEC0E90
:103F6000FD1E850194E0C92ED12CCC0EDD1E8EE203
:103F7000982EF701808190E0B8014AE050E00E945D
:103F80001C2702C00F5F1F4FF801808180538A30C9
:103F9000C8F3F80191920894E108F108EC14FD04CB
:103FA00011F08F01E6CFF80110828985882311F185
:103FB00060E0FE013A966F5F81918823E1F770E03F
:103FC000C50142E454E028E434E00E94AF0580E0FB
:103FD00067960FB6F894DEBF0FBECDBFCF91DF91CD
:103FE0001F910F91FF90EF90DF90CF90BF90AF9017
:103FF0009F90089560E070E0E3CF9F92AF92BF92F0
:10400000CF92DF92EF92FF920F931F93DF93CF93A4
:10401000CDB7DEB767970FB6F894DEBF0FBECDBF42
:1040200080E090E0BE016F5F7F4F40E050E00E9473
:10403000870779E0A72EB12CAC0EBD1E8FE0F501ED
:1040400011928A95E9F789819A81AB81BC818D8330
:104050009E83AF83B88768E0E62EF12CEC0EFD1E40
:10406000850154E0C52ED12CCC0EDD1E4EE2942EDF
:10407000F701808190E0B8014AE050E00E941C27DF
:1040800002C00F5F1F4FF801808180538A30C8F350
:10409000F80191920894E108F108EC14FD0411F084
:1040A0008F01E6CFF80110828985882311F160E045
:1040B000FE013A966F5F81918823E1F770E0C501B8
:1040C00042E454E028E434E00E94AF0580E06796C3
:1040D0000FB6F894DEBF0FBECDBFCF91DF911F9119
:1040E0000F91FF90EF90DF90CF90BF90AF909F9097
:1040F000089560E070E0E3CFAF92BF92DF92EF925D
:10410000FF920F931F93CF93DF935C01FC01C0815B
:10411000D181D8808D2D80538A3078F5EE24FF240C
:104120008701C801B7012AE030E040E050E00E947A
:1041300042272D2D332727FD30952053304079011C
:104140000027F7FC0095102FE60EF71E081F191F19
:104150002196D8808D2D80538A3018F3F501D183B4
:10416000C083B701C801DF91CF911F910F91FF90DC
:10417000EF90DF90BF90AF900895EE24FF24870169
:10418000EDCFDC01ED91FC91119780E020E030E073
:1041900040E050E0220F331F441F551F220F331FF2
:1041A000441F551F220F331F441F551F220F331F5B
:1041B000441F551F280F311D411D511D9081892F0E
:1041C00080538A3040F08153863020F0892F81540B
:1041D000863018F4865F3196DDCFED93FC93B901FC
:1041E000CA0108954F925F926F927F928F929F9231
:1041F000AF92BF92CF92DF92EF92FF920F931F93F5
:10420000DF93CF93CDB7DEB728970FB6F894DEBF14
:104210000FBECDBF2C01DC01AD90BC90F501D0806C
:104220008D2D80538A3008F002C1EE24FF248701CF
:10423000C801B7012AE030E040E050E00E94422788
:104240002D2D332727FD309520533040790100274D
:10425000F7FC0095102FE60EF71E081F191F089493
:10426000A11CB11CD501DC908D2D80538A3000F348
:104270009E2C882477246624BEE2DB16E9F020E039
:1042800030E040E050E0B901CA0128960FB6F8943A
:10429000DEBF0FBECDBFCF91DF911F910F91FF9079
:1042A000EF90DF90CF90BF90AF909F908F907F90D6
:1042B0006F905F904F90089565010894C11CD11CC8
:1042C000F501B1808B2D80538A3008F0B4C0EE2404
:1042D000FF248701C801B7012AE030E040E050E048
:1042E0000E9442272B2D332727FD30952053304045
:1042F00079010027F7FC0095102FE60EF71E081F26
:10430000191F0894C11CD11CD601BC908B2D805361
:104310008A3000F3D7019927882789839A83AB8352
:10432000BC839EE2B91609F0AACF56010894A11CDD
:10433000B11CD6011196DC908D2D80538A3008F087
:104340007FC0EE24FF248701C801B7012AE030E0D6
:1043500040E050E00E9442272D2D332727FD309565
:104360002053304079010027F7FC0095102FE60E0E
:10437000F71E081F191F0894A11CB11CF501D0805D
:104380008D2D80538A3000F3B02FAF2D9E2D8827BE
:104390008D839E83AF83B8879EE2D91609F06FCFD5
:1043A00065010894C11CD11CD5011196BC908B2DC0
:1043B00080538A3008F049C0EE24FF248701C801E9
:1043C000B7012AE030E040E050E00E9442272B2D68
:1043D000332727FD30952053304079010027F7FC23
:1043E0000095102FE60EF71E081F191F0894C11C18
:1043F000D11CF601B0808B2D80538A3000F32981C7
:104400003A814B815C8126293729482959298D8198
:104410009E81AF81B885282B392B4A2B5B2B2E2907
:104420003F29402B512BD201CD92DC922CCF662418
:104430007724430121CF19821A821B821C8271CFFB
:104440001D821E821F821886A7CFEE24FF248701BB
:10445000D6CF1F93CF93DF93EC01162F0E94B41990
:10446000882309F073C0123008F4AAC089818F3301
:1044700061F0FE0191E004C0828131968F3319F022
:104480009F5F9117C8F3911719F088818A3371F0F3
:104490008DE391E06DE070E042E454E028E434E024
:1044A0000E94AF05DF91CF911F91089560915C024A
:1044B00070915D0261157105D9F150E0A0E0B0E0A6
:1044C0001AE3AA0FBB1FAA0FBB1FA65ABD4F0D9020
:1044D000BC91A02D4C91842F81278F7509F04EC07F
:1044E00090E002C0E03279F09F5F292F30E0FD01BB
:1044F000E20FF31F4081FE01E20FF31FE0818E2FD8
:1045000084278F7579F3442321F4E032D9F1EF3316
:10451000C9F15F5FA52FB0E0FD01EE0FFF1FEE0FA9
:10452000FF1FE45AFD4F608171816115710549F6E5
:104530008FE491E064E270E042E454E028E434E087
:104540000E94AF05DF91CF911F9108958DE191E019
:1045500069E170E042E454E028E434E00E94AF05F1
:1045600087E391E065E070E042E454E028E434E061
:104570000E94AF05DF91CF911F910895EAE320E0FB
:1045800030E0C1CFDE01A20FB31F8C91803241F425
:10459000F9013196EC0FFD1FDF0181918032E1F3CB
:1045A000CD01FB0109958823D9F68BE491E063E006
:1045B00070E042E454E028E434E00E94AF0572CF9A
:1045C00091E061CF9C01E199FECF3FBB2EBBE09A09
:1045D0008DB308959C01E199FECF3FBB2EBB6DBB0F
:1045E0000FB6F894E29AE19A0FBE0895AF92BF9287
:1045F000CF92DF92EF92FF920F931F93DF93CF93AF
:1046000000D000D0CDB7DEB75C017B01042F10E0F5
:104610008AEEC82E82E2D82EC501A80196010E941A
:10462000DB26C701B8010E945C199A8389838095B3
:1046300090959C838B83C501800F911FBE016F5F96
:104640007F4F44E050E096010E94DB260F900F90D0
:104650000F900F90CF91DF911F910F91FF90EF90EE
:10466000DF90CF90BF90AF900895CF92DF92EF92FE
:10467000FF920F931F93DF93CF9300D000D0CDB75D
:10468000DEB78C016B01E199FECFE42EFF24C60159
:10469000B801A70122EE32E20E94BF260E0D1F1DB7
:1046A000CE010196B80144E050E022EE32E20E94D1
:1046B000BF268B819C818095909529813A8128170E
:1046C000390779F040E0842F0F900F900F900F90F2
:1046D000CF91DF911F910F91FF90EF90DF90CF90DE
:1046E0000895C601B7010E945C1940E029813A8112
:1046F0008217930741F741E0E6CF4F925F926F92A6
:104700007F928F929F92AF92BF92CF92DF92EF9261
:10471000FF920F931F93DF93CF93CDB7DEB76297CE
:104720000FB6F894DEBF0FBECDBF6C015B014A012E
:1047300039012801E199FECF8E010B5F1F4FC8019F
:1047400060E074E04EE050E022EE32E20E94BF26CC
:10475000CE0101966EE074E044E050E022EE32E2D9
:104760000E94BF268B819C818095909529813A81FA
:104770002817390709F497C0D801ECE3F4E08EE07C
:1047800001900D928150E1F7C114D10469F12D819E
:104790003E814F815885122F0027FF24EE24852F5C
:1047A0009927AA27BB27E82AF92A0A2B1B2BDA010B
:1047B000C90180709070B070892F9A2FAB2FBB27E2
:1047C000E82AF92A0A2B1B2B207040705070542FB6
:1047D000432F322F2227E22AF32A042B152BF6012E
:1047E000E082F18202831383A114B10429F0898548
:1047F0009A85F501918380838114910469F12B8559
:104800003C854D855E85122F0027FF24EE24852FE1
:104810009927AA27BB27E82AF92A0A2B1B2BDA019A
:10482000C90180709070B070892F9A2FAB2FBB2771
:10483000E82AF92A0A2B1B2B207040705070542F45
:10484000432F322F2227E22AF32A042B152BF401BF
:10485000E082F182028313836114710429F08F8551
:104860009889F301918380834114510429F0898947
:104870009A89F2019183808362960FB6F894DEBF25
:104880000FBECDBFCF91DF911F910F91FF90EF90A1
:10489000DF90CF90BF90AF909F908F907F906F9060
:1048A0005F904F900895C8016EE070E00E945C191F
:1048B00029813A818217930709F05ECF65CF2F9245
:1048C0003F924F925F926F927F928F929F92AF92A0
:1048D000BF92CF92DF92EF92FF920F931F93DF93DD
:1048E000CF93CDB7DEB762970FB6F894DEBF0FBE99
:1048F000CDBF4B015C011A0128013901E199FECFBE
:104900008E010B5F1F4FC80160E074E04EE050E085
:1049100022EE32E20E94BF26CE0101966EE074E0E4
:1049200044E050E022EE32E20E94BF268B819C815F
:104930008095909529813A812817390709F4B3C0E9
:10494000D801ECE3F4E08EE001900D928150E1F7A4
:1049500081149104A104B10469F1582D442733272F
:1049600022278B2D9927AA27BB27282B392B4A2BA7
:104970005B2BD501C40180709070B070892F9A2F85
:10498000AB2FBB27282B392B4A2B5B2B80E09FEFCB
:10499000A0E0B0E088229922AA22BB22BA2DA92D3C
:1049A000982D8827282B392B4A2B5B2B2D833E8370
:1049B0004F8358872114310411F03A862986411417
:1049C00051046104710469F1542D442733272227CF
:1049D000872D9927AA27BB27282B392B4A2B5B2BFE
:1049E000D301C20180709070B070892F9A2FAB2FC5
:1049F000BB27282B392B4A2B5B2B80E09FEFA0E0B5
:104A0000B0E0482259226A227B22B62DA52D942D92
:104A10008827282B392B4A2B5B2B2B873C874D87EC
:104A20005E87E114F10411F0F88AEF86C114D10415
:104A300011F0DA8AC98A80E094E0B8014EE050E0D3
:104A40002AEE32E20E94DB26C8016EE070E00E948E
:104A50005C199A838983809590959C838B838EE0E3
:104A600094E0BE016F5F7F4F44E050E02AEE32E2F7
:104A70000E94DB2662960FB6F894DEBF0FBECDBF54
:104A8000CF91DF911F910F91FF90EF90DF90CF902A
:104A9000BF90AF909F908F907F906F905F904F905E
:104AA0003F902F900895C8016EE070E00E945C195D
:104AB00029813A818217930709F042CF49CFDF93CA
:104AC000CF9300D000D0CDB7DEB7E199FECF8CE315
:104AD00094E060E074E04EE050E022EE32E20E94AA
:104AE000BF26CE0101966EE074E044E050E022EE75
:104AF00032E20E94BF268B819C818095909529810E
:104B00003A812817390769F121E835E440EB5DE780
:104B100020933C0430933D0440933E0450933F0463
:104B200081E69EE1909341048093400420934204E7
:104B300030934304409344045093450482E69EE13D
:104B4000909347048093460482E097ED9093490444
:104B5000809348040F900F900F900F90CF91DF91AA
:104B600008958CE394E06EE070E00E945C19298166
:104B70003A818217930741F6EDCFCF93DF93BC01C3
:104B80008230910510F462E070E0A0914C04B09185
:104B90004D04ED01E0E0F0E040E050E021C088810C
:104BA00099818617970769F48A819B81309719F05C
:104BB0009383828304C090934D0480934C04FE0140
:104BC00034C06817790738F44115510519F0841776
:104BD000950708F4AC01FE018A819B819C01E901E3
:104BE0002097E9F641155105A9F1CA01861B970BDB
:104BF000049708F4BA01E0E0F0E02AC08D919C919E
:104C0000119784179507F9F46417750781F41296C4
:104C10008D919C911397309719F09383828304C0F0
:104C200090934D0480934C04FD0132964CC0CA0110
:104C3000861B970BFD01E80FF91F61937193029793
:104C40008D939C9340C0FD01828193819C01D90189
:104C50001097A1F680914A0490914B04892B41F45E
:104C60008091B8029091B90290934B0480934A04CA
:104C70004091BA025091BB024115510541F44DB724
:104C80005EB78091B6029091B702481B590B2091F4
:104C90004A0430914B04CA01821B930B8617970775
:104CA00080F0AB014E5F5F4F8417950750F0420FC5
:104CB000531F50934B0440934A04F901619371933D
:104CC00002C0E0E0F0E0CF01DF91CF910895CF93F3
:104CD000DF93009709F450C0EC0122971B821A82DF
:104CE000A0914C04B0914D04109709F140E050E0C0
:104CF000AC17BD0708F1BB83AA83FE012191319156
:104D0000E20FF31FAE17BF0779F48D919C911197B5
:104D1000280F391F2E5F3F4F3983288312968D91BC
:104D20009C9113979B838A834115510571F4D0930D
:104D30004D04C0934C0420C012968D919C91139702
:104D4000AD01009711F0DC01D3CFFA01D383C28308
:104D500021913191E20FF31FCE17DF0769F48881AB
:104D60009981280F391F2E5F3F4FFA01318320832D
:104D70008A819B8193838283DF91CF910895A0E004
:104D8000B0E0E5ECF6E20C94A1277C01EB018A018E
:104D9000690109C0CE012196F6010995F7018193B9
:104DA0007F010150104001151105A1F7CDB7DEB705
:104DB000E8E00C94BD27A0E0B0E0E1EEF6E20C9450
:104DC000A127EC017B018A01690109C0CE0121966E
:104DD000F70161917F01F60109950150104001151D
:104DE0001105A1F7CDB7DEB7E8E00C94BD27FA01B5
:104DF000CF93FF93EF932230CCF02532BCF4C22F37
:104E00002C2F332744275527FF93EF930E946127C8
:104E1000EF91FF91605D6A330CF0695D6193B901B8
:104E2000CA01605070408040904051F710828F91CD
:104E30009F91CF910C943227FB019F01423074F077
:104E4000453264F4642F77270E948327805D8A337C
:104E50000CF0895D8193CB010097A1F71082C90105
:104E60000C943227DC01FC01672F71917723E1F765
:104E7000329704C07C916D9370836291AE17BF0727
:104E8000C8F30895629FD001739FF001829FE00DE7
:104E9000F11D649FE00DF11D929FF00D839FF00DB9
:104EA000749FF00D659FF00D9927729FB00DE11D65
:104EB000F91F639FB00DE11DF91FBD01CF01112442
:104EC0000895A1E21A2EAA1BBB1BFD010DC0AA1F4B
:104ED000BB1FEE1FFF1FA217B307E407F50720F063
:104EE000A21BB30BE40BF50B661F771F881F991FDE
:104EF0001A9469F760957095809590959B01AC0127
:104F0000BD01CF010895AA1BBB1B51E107C0AA1F19
:104F1000BB1FA617B70710F0A61BB70B881F991F5A
:104F20005A95A9F780959095BC01CD0108952F92CF
:104F30003F924F925F926F927F928F929F92AF9229
:104F4000BF92CF92DF92EF92FF920F931F93CF9376
:104F5000DF93CDB7DEB7CA1BDB0B0FB6F894DEBF0D
:104F60000FBECDBF09942A88398848885F846E8433
:104F70007D848C849B84AA84B984C884DF80EE807D
:104F8000FD800C811B81AA81B981CE0FD11D0FB686
:104F9000F894DEBF0FBECDBFED010895F894FFCFAA
:104FA000FFFFFFFFFFFF0200000000018145B07F0F
:104FB0008145B001FFFFFF00000007001C436F6E3A
:104FC00066696720686173206265656E2064697335
:104FD00061626C65642E004641494C0A0053796E4B
:104FE000746178204572726F720A004F4B0A004557
:104FF00072726F72206C6F63617465642062657495
:105000007765656E2065617273206F6620757365C4
:10501000722E0A003A5345544D4143003A474554D5
:105020004D4143003A5345544950003A5345544E7C
:105030004D003A5345544757003A5345544E455452
:10504000003A4745544950003A4745544E4D003ABE
:105050004745544757003A4745544E4554003A5344
:10506000455442415544003A474554424155440055
:105070003A4745544449505F44415441003A5345EE
:10508000544449505F44415441003A4745544450C8
:105090004F52545F44415441003A53455444504F99
:1050A00052545F44415441003A4745544449505F8B
:1050B000434F4E464947003A5345544449505F4395
:1050C0004F4E464947003A47455444504F52545F6B
:1050D000434F4E464947003A53455444504F52546B
:1050E0005F434F4E464947003A5245424F4F5400A6
:1050F0003A44495341424C4500007401BD1C7C01B7
:10510000101C8401EE1B8B01CA1B9201A51B990187
:10511000521BA101141DA801FD1FAF017E1FB60186
:10512000971EBE01F919C701B719D001151EDD017F
:10513000291BEA01B31AF9013A1A0802921D170253
:10514000FE1A2602681A37020C1A4802AA195002DF
:10515000AF195902000020004E040000FFFFFFFFBE
:10516000FFFFFFFFFFFFFFFFFFFFFFFFFFFFFFFF4F
:10517000FFFFFFFFFFFFFFFFFFFFFFFFFFFFFFFF3F
:10518000FFFFFFFFFFFFFFFFFFFFFFFFFFFFFFFF2F
:10519000FFFFFFFFFFFFFFFFFFFFFFFFFFFFFFFF1F
:020000021000EC
:10E000000C9446F00C9466F00C9466F00C9466F058
:10E010000C9466F00C9466F00C9466F00C9466F028
:10E020000C9466F00C9466F00C9466F00C9466F018
:10E030000C9466F00C9466F00C9466F00C9466F008
:10E040000C943FF80C9466F00C9466F00C9466F017
:10E050000C9466F00C9466F00C9466F00C9466F0E8
:10E060000C9466F00C9466F00C9466F00C9466F0D8
:10E070000C9466F00C9466F00C9466F00C9466F0C8
:10E080000C9466F00C9466F00C9466F011241FBE9C
:10E09000CFEFD0E1DEBFCDBF11E0A0E0B1E0EAE715
:10E0A000FFEF01E00BBF02C007900D92A636B1074B
:10E0B000D9F71BBE11E0A6E6B1E001C01D92A73C56
:10E0C000B107E1F70E9468F00C94BBFF0C9400F0DC
:10E0D00081E085BF82E085BF0E943FFE0E9462F61C
:10E0E0000E946BF60E9457F278940E94EEFD0E9407
:10E0F00082F60E94C0F2FBCFEF92FF920F931F9324
:10E10000CF93DF938C01F62EE72EE6E9F1E065E090
:10E1100070E0C0E0D0E035C06150704086819781EA
:10E12000A085B18582179307A407B50711F58BE089
:10E1300090E0689FF001699FF00D789FF00D112429
:10E14000E659FE4F2F2D3E2DC901DC0186E00D90D2
:10E1500001928150E1F78BE090E0689FF001699FA8
:10E16000F00D789FF00D1124E659FE4F8FEF828756
:10E1700020C0209721F09A858285981708F4EF0136
:10E180003B97D8012D913D914D915C9161157105A1
:10E1900019F62E833F8348875987DE018F2D9E2DE8
:10E1A0009C01F90186E001900D928150E1F78FEF1B
:10E1B0008A8780E0DF91CF911F910F91FF90EF90C0
:10E1C00008951092A0011092950110928A01109268
:10E1D0007F011092740180E797E162EF70EF0E9477
:10E1E000CCF60895E0EAF1E006C08081882311F0C2
:10E1F000815080833B9781E0E936F807B1F780E7EB
:10E2000097E162EF70EF0E94CCF60895AF92BF9253
:10E21000CF92DF92EF92FF920F931F93DF93CF93F2
:10E2200000D000D000D0CDB7DEB75C018B016A0111
:10E230006CE170E00E944EFB7C0180E091E0F70110
:10E240009183808388E090E09383828386E0848357
:10E2500084E08583F80180819181A281B381F701F7
:10E26000808F918FA28FB38F0E9454F2D70118969E
:10E27000FC0186E001900D928150E1F70E9406F3C7
:10E28000FC0180819181A281B381F7018687978704
:10E29000A08BB18BC114D104D1F480E091E09783BD
:10E2A0008683128A138A148A158A168A178ADE01CF
:10E2B0001196E0E0F1E086E001900D928150E1F7E7
:10E2C000C50168E076E0AE014F5F5F4F11C080E0AE
:10E2D00092E0F70197838683D7015296F60186E094
:10E2E00001900D928150E1F7C50168E076E0A6014A
:10E2F0000E94CFF226960FB6F894DEBF0FBECDBFB8
:10E30000CF91DF911F910F91FF90EF90DF90CF9011
:10E31000BF90AF900895EF92FF920F931F938C01DF
:10E320007B010E9486FBB801A7010E9406F11F91A4
:10E330000F91FF90EF900895EF92FF920F931F932C
:10E34000DF93CF93CDB7DEB76C970FB6F894DEBFEF
:10E350000FBECDBF8C010E94CDFA4C9708F43FC090
:10E36000C801BE016F5F7F4F4CE150E00E94D7FAB9
:10E3700089819A818050914091F58B819C81089789
:10E3800071F58D81863059F58E81843041F5E98CA7
:10E39000FA8C0B8D1C8D0E9406F3FC01808191810B
:10E3A000A281B381E816F9060A071B07C1F48F8121
:10E3B000988521E08030920721F08050924079F4D6
:10E3C00007C0CE010F96BE01675F7F4F0E948BF1A1
:10E3D000CE010F96BE01675F7F4F0E947CF06C9666
:10E3E0000FB6F894DEBF0FBECDBFCF91DF911F9166
:10E3F0000F91FF90EF9008950F931F938C010E944F
:10E4000086FBB80140E050E00E9406F11F910F9199
:10E4100008950F931F93CF93DF93EC01162F072FCF
:10E42000ECE9F1E065E070E033C0615070402081BC
:10E430003181428153813B9788819981AA81BB8137
:10E44000281739074A075B0719F58BE090E0689FAA
:10E45000F001699FF00D789FF00D1124212F302FCE
:10E46000C901DC01E659FE4F86E001900D92815012
:10E47000E1F78BE090E0689FF001699FF00D789FD5
:10E48000F00D1124E659FE4F8FEF828780E007C020
:10E490006115710551F6CE010E94FCF181E0DF911A
:10E4A000CF911F910F91089586E091E008950F9309
:10E4B0001F93DF93CF9300D000D000D0CDB7DEB74D
:10E4C00080E092E08E010F5F1F4FB80146E00E948E
:10E4D00064FE882341F0A6E0B1E0F80186E00190F7
:10E4E0000D928150E1F786E091E00E94B0FB0E941E
:10E4F000E1F00E9409F326960FB6F894DEBF0FBE36
:10E50000CDBFCF91DF911F910F9108950F931F936E
:10E51000DF93CF93CDB7DEB72E970FB6F894DEBF5B
:10E520000FBECDBF8C010E94CDFA0E97F0F0C8014E
:10E53000BE016F5F7F4F4EE050E00E94D7FA8D859D
:10E540009E858830910521F08850964071F407C06F
:10E55000C801BE01695F7F4F0E94FAF306C0C8017F
:10E56000BE01695F7F4F0E949CF12E960FB6F89412
:10E57000DEBF0FBECDBFCF91DF911F910F910895E8
:10E58000CF93DF930E948EFBEC01009729F00E944D
:10E5900086F2CE010E94F5FADF91CF910895CF92D5
:10E5A000DF92EF92FF920F931F93CF93DF937C0143
:10E5B0006B01142F052F6EE070E00E944EFBFC01F2
:10E5C000EC01212F302FC901DC0186E00D9009926A
:10E5D0008150E1F7EF012696A6E0B1E086E00D90CC
:10E5E00009928150E1F7D586C486C70160E00E9498
:10E5F0002DFCC7010E9416FB80E0DF91CF911F9197
:10E600000F91FF90EF90DF90CF9008958CE091E014
:10E610000895DF93CF93CDB7DEB72C970FB6F8945C
:10E62000DEBF0FBECDBF80E091E0BE016F5F7F4FC8
:10E630004CE00E9464FE882321F189819A81AB819C
:10E64000BC8180930C0190930D01A0930E01B093B7
:10E650000F0189859A85AB85BC85809310019093C5
:10E660001101A0931201B09313018D819E81AF819E
:10E67000B8858093140190931501A0931601B0936F
:10E6800017012C960FB6F894DEBF0FBECDBFCF9109
:10E69000DF9108958F929F92AF92BF92CF92DF92B7
:10E6A000EF92FF920F931F93DF93CF9300D000D090
:10E6B00000D0CDB7DEB76C015B01E42EFB01808199
:10E6C0009181A281B381209110013091110140917B
:10E6D00012015091130182279327A427B527209177
:10E6E00014013091150140911601509117018223B8
:10E6F0009323A423B5230097A105B10511F4CB0101
:10E7000002C080E191E04E010894811C911CB4018B
:10E710000E9409F2882329F0C6010E9416FB81E0BD
:10E7200056C0C60164E170E00E944EFB8C0185E496
:10E73000F80180831182C6010E94BFFAF92EC6013A
:10E740000E94BFFA382F20E08F2D90E0282B392B24
:10E75000F8013383228390911801809119018483F9
:10E760009583F50180819181A281B381F801808B2D
:10E77000918BA28BB38B80910C0190910D01A09194
:10E780000E01B0910F0184879587A687B787809186
:10E790001801909119010196909319018093180125
:10E7A00080E490E09783868380E88087E186138603
:10E7B0001286C80164E170E00E9405FEF8019387AB
:10E7C0008287C60168E070E0A4010E94CFF226961D
:10E7D0000FB6F894DEBF0FBECDBFCF91DF911F9172
:10E7E0000F91FF90EF90DF90CF90BF90AF909F90F0
:10E7F0008F900895EF92FF920F931F93DF93CF9323
:10E80000CDB7DEB764970FB6F894DEBF0FBECDBFAD
:10E810007C018B010E94CDFA449708F44EC0C701D9
:10E82000BE016F5F7F4F44E150E00E94D7FA298913
:10E830003A894B895C8980910C0190910D01A091DE
:10E840000E01B0910F01281739074A075B07A9F598
:10E85000F801808180FD28C0809110019091110104
:10E86000A0911201B09113012D853E854F855889E5
:10E8700082279327A427B5272091140130911501F1
:10E88000409116015091170182239323A423B523AD
:10E890000097A105B10519F4CE010D9602C080E1E3
:10E8A00091E0B8010E947CF08A85813131F4C70182
:10E8B000BE01635F7F4F0E946AF464960FB6F894BE
:10E8C000DEBF0FBECDBFCF91DF911F910F91FF90A3
:10E8D000EF900895EF92FF920F931F93DF93CF93E2
:10E8E000CDB7DEB72E970FB6F894DEBF0FBECDBF03
:10E8F0008C017B010E94CDFA089700F1C801BE018E
:10E90000695F7F4F48E050E00E94D7FAF70120810D
:10E910003181428153817F81688599858A858534DB
:10E92000910561F46D837E8329833A834B835C83F5
:10E93000C801BE016F5F7F4F0E94C8F52E960FB6CB
