:100000000C9446000C9466000C9466000C946600F8
:100010000C9466000C9466000C9466000C946600C8
:100020000C9466000C9466000C9466000C946600B8
:100030000C9466000C9466000C9466000C946600A8
:100040000C942A100C9466000C94EE110C942A1255
:100050000C9466000C9466000C9466000C94660088
:100060000C9466000C9466000C9466000C94660078
:100070000C9466000C9466000C94A82C0C942D2C07
:100080000C94462C0C9466000C94660011241FBE40
:10009000CFEFD0E1DEBFCDBF17E0A0E0B1E0EAE1F5
:1000A000FFE500E00BBF02C007900D92A03EB10734
:1000B000D9F71BBE19E0A0EEB7E001C01D92A03930
:1000C000B107E1F70E9468000C948B2F0C9400009C
:1000D000F8941092E4071092E30781E085BF15BE03
:1000E0000E94A12B0E94F50C0E94FE0C0E94560754
:1000F0000E94BB0C80E090E060E00E94FF2B0E9419
:100100008A1A78940E94C00D0E94880C0E94F607FB
:100110008091E3079091E407892BA1F380E091E0BF
:100120000E94502CEFCF0F931F93CF93DF93FC01CE
:10013000162F072F20813181428153818091190828
:1001400090911A08A0911B08B0911C088217930780
:10015000A407B50709F472C080910E0890910F08AA
:10016000A0911008B091110882179307A407B50752
:1001700009F492C090911D0880911208981708F018
:1001800054C0E8E0F8E08091030890910408A09141
:100190000508B091060882179307A407B50709F46C
:1001A00072C09285809107089817E0F18091F80756
:1001B0009091F907A091FA07B091FB078217930776
:1001C000A407B50709F462C092858091FC079817CF
:1001D00078F18091ED079091EE07A091EF07B09133
:1001E000F00782179307A407B50709F452C0928558
:1001F0008091F1079817F8F026833783408751875D
:10020000EF01812F902F9C01D90186E00D9009927A
:100210008150E1F78FEF828780E0DF91CF911F91CE
:100220000F910895EDEFF7E0C1CFE3E1F8E0ABCF38
:10023000E2EFF7E0CECFE7EEF7E0DECF44E050E0CC
:10024000BA01660F771FEA01CC0FDD1FCC0FDD1F4F
:10025000CC0FDD1FFB01EC0FFD1FE40FF51FE95173
:10026000F84F812F902F9C01D90186E00D900192CB
:100270008150E1F7C60FD71FC40FD51FC951D84F02
:100280008FEF8A87C9CF42E050E0DACF41E050E0FB
:10029000D7CF40E050E0D4CF43E050E0D1CF109230
:1002A0001D0810921208109207081092FC07109275
:1002B000F10780E797E160E671E00E94150D08956F
:1002C00080911D08882319F0815080931D0880912A
:1002D0001208882319F08150809312088091070832
:1002E000882319F08150809307088091FC078823A8
:1002F00019F081508093FC078091F107882319F051
:1003000081508093F10780E797E160E671E00E94F9
:10031000150D0895AF92BF92CF92DF92EF92FF92A8
:100320000F931F93DF93CF9300D000D000D0CDB7B1
:10033000DEB75C018B016A016CE170E00E94041978
:100340007C0180E091E0F7019183808388E090E078
:100350009383828386E0848384E08583F8018081AF
:100360009181A281B381F701808F918FA28FB38F8A
:100370000E94F406D7011896FC0186E001900D92C8
:100380008150E1F70E943708FC0180819181A281B0
:10039000B381F70186879787A08BB18BC114D104F5
:1003A00021F180E092E0F70197838683D70152968E
:1003B000F60186E001900D928150E1F7C50168E0F9
:1003C00076E0A6010E94BF0726960FB6F894DEBF1E
:1003D0000FBECDBFCF91DF911F910F91FF90EF9096
:1003E000DF90CF90BF90AF90089580E091E0978329
:1003F0008683128A138A148A158A168A178AAE018E
:100400004F5F5F4FDA01E8E0F1E086E001900D9286
:100410008150E1F7C50168E076E00E94BF07D4CFC4
:10042000AF92BF92CF92DF92EF92FF920F931F9302
:10043000DF93CF9300D000D000D0CDB7DEB78C01D2
:100440006B010E9444195C016CE170E00E94041988
:100450007C0180E091E0F7019183808388E090E067
:100460009383828386E0848384E08583F80180819E
:100470009181A281B381F701808F918FA28FB38F79
:100480000E94F406D7011896FC0186E001900D92B7
:100490008150E1F70E943708FC0180819181A2819F
:1004A000B381F70186879787A08BB18BC114D104E4
:1004B00021F180E092E0F70197838683D70152967D
:1004C000F60186E001900D928150E1F7C50168E0E8
:1004D00076E0A6010E94BF0726960FB6F894DEBF0D
:1004E0000FBECDBFCF91DF911F910F91FF90EF9085
:1004F000DF90CF90BF90AF90089580E091E0978318
:100500008683128A138A148A158A168A178AAE017C
:100510004F5F5F4FDA01E8E0F1E086E001900D9275
:100520008150E1F7C50168E076E00E94BF07D4CFB3
:10053000EF92FF920F931F93DF93CF93CDB7DEB768
:100540006C970FB6F894DEBF0FBECDBF8C010E9432
:1005500095184C9768F46C960FB6F894DEBF0FBEF2
:10056000CDBFCF91DF911F910F91FF90EF90089534
:10057000C801BE016F5F7F4F4CE150E00E94A018A0
:1005800089819A818050914031F78B819C810897B5
:1005900011F78D818630F9F68E818430E1F6E98C91
:1005A000FA8C0B8D1C8D0E943708FC018081918193
:1005B000A281B381E816F9060A071B0761F68F814D
:1005C000988521E08030920789F08050924009F0B0
:1005D000C2CF3FE0E32EF12CEC0EFD1E8E01075F33
:1005E0001F4FC701B8010E949300B5CF2FE0E22E44
:1005F000F12CEC0EFD1E8E01075F1F4FC701B801E5
:100600000E941002EECFCF92DF92EF92FF920F93F3
:100610001F93DF93CF9300D000D000D0CDB7DEB7CB
:100620008C010E9444196C016CE170E00E94041975
:100630007C0180E091E0F7019183808388E090E085
:100640009383828386E0848384E08583F8018081BC
:100650009181A281B381F701808F918FA28FB38F97
:100660000E94F406D7011896FC0186E001900D92D5
:100670008150E1F70E943708FC0180819181A281BD
:10068000B381F70186879787A08BB18B80E091E0DB
:1006900097838683128A138A148A158A168A178A80
:1006A000AE014F5F5F4FDA01E8E0F1E086E00190D4
:1006B0000D928150E1F7C60168E076E00E94BF0725
:1006C00026960FB6F894DEBF0FBECDBFCF91DF9157
:1006D0001F910F91FF90EF90DF90CF900895CF92F0
:1006E000DF92EF92FF920F931F93DF93CF9300D08F
:1006F00000D000D0CDB7DEB77C01DC012D913D915B
:100700004D915C918091190890911A08A0911B0855
:10071000B0911C0882179307A407B50709F4C0C05D
:1007200080910E0890910F08A0911008B0911108C7
:1007300082179307A407B50709F4B5C08091030891
:1007400090910408A0910508B091060882179307BC
:10075000A407B50709F4AAC08091F8079091F9079A
:10076000A091FA07B091FB0782179307A407B5077A
:1007700009F49FC08091ED079091EE07A091EF07DB
:10078000B091F00782179307A407B50709F451C089
:100790000E9444196C016CE170E00E9404198C0104
:1007A00080E091E0F8019183808388E090E093837A
:1007B000828386E0848384E08583F7018081918150
:1007C000A281B381F801808F918FA28FB38F0E9495
:1007D000F406D8011896FC0186E001900D92815034
:1007E000E1F70E943708FC0180819181A281B381E9
:1007F000F80186879787A08BB18B80E091E0978383
:100800008683128A138A148A158A168A178AAE0179
:100810004F5F5F4FDA01E8E0F1E086E001900D9272
:100820008150E1F7C60168E076E00E94BF0781E0F1
:1008300028C040E050E08A01000F111F7A01EE0C41
:10084000FF1CEE0CFF1CEE0CFF1CF801EE0DFF1D53
:10085000E40FF51F9B01E951F84F86E00190D901A3
:100860000D929D018150D1F7E00EF11EE40EF51EB0
:10087000E7EEF7E0EE0EFF1E8FEFD7011A968C938E
:1008800080E026960FB6F894DEBF0FBECDBFCF91A5
:10089000DF911F910F91FF90EF90DF90CF9008951F
:1008A00044E050E0C8CF43E050E0C5CF42E050E024
:1008B000C2CF41E050E0BFCF0895EF92FF920F9377
:1008C0001F93DF93CF93CDB7DEB766970FB6F8943B
:1008D000DEBF0FBECDBF7C010E9495180C9768F457
:1008E00066960FB6F894DEBF0FBECDBFCF91DF91F5
:1008F0001F910F91FF90EF900895C701BE01655FB2
:100900007F4F4CE050E00E94A0188C858D3419F187
:10091000853231F7C701BE016F5F7F4F4AE050E07B
:100920000E94A01889818823D9F290E00E94492D65
:10093000182F092F4981C701612F702F50E00E94A5
:10094000A018682F812F902F0E944328812F902F6D
:100950000E94F32DC5CFC701BE016F5F7F4F4AE0F4
:1009600050E00E94A0188981882309F4B9CF90E053
:100970000E94492D182F092F4981C701612F702F1F
:1009800050E00E94A018682F812F902F0E94951A86
:10099000812F902F0E94F32DA3CF6F927F928F9281
:1009A0009F92AF92BF92CF92DF92EF92FF920F93FE
:1009B0001F935C01162F4A0139016CE070E00E9420
:1009C00004196C0180E8F601808311830E94F80C01
:1009D000162F0027FF24EE24292F332744275527DD
:1009E000E22AF32A042B152B9B01AC0120703070F6
:1009F0005070232F342F452F5527E22AF32A042B3A
:100A0000152B607080709070982F872F762F662737
:100A1000E62AF72A082B192BF601E482F5820683D1
:100A20001783108611861286138680911F08909175
:100A300020089283838301969093200880931F0857
:100A4000C501B401A3010E94CA0B1F910F91FF9031
:100A5000EF90DF90CF90BF90AF909F908F907F905E
:100A60006F9008956F927F928F929F92AF92BF92F4
:100A7000CF92DF92EF92FF920F931F93CF93DF936A
:100A80008C01EB014A0139010E9444195C01209755
:100A900009F47EC0BE01665F7F4F0E940419FC010D
:100AA000C0831182128213821482158216821782E9
:100AB000108611869E0121503040D801A20FB31F2D
:100AC000EC0FFD1F02C0215030408C91818711979F
:100AD000319721153105B9F7C5016CE070E00E942E
:100AE00004196C0180E8F601808385E281830E940D
:100AF000F80C162F0027FF24EE24292F3327442734
:100B00005527E22AF32A042B152B9B01AC012070F8
:100B100030705070232F342F452F5527E22AF32AA7
:100B2000042B152B607080709070982F872F762F74
:100B30006627E62AF72A082B192BD6011496ED9280
:100B4000FD920D931C931797E601188619861A8655
:100B50001B8680911F08909120089A838B830196B1
:100B60009093200880931F08C501B401A3010E943F
:100B7000CA0BDF91CF911F910F91FF90EF90DF9003
:100B8000CF90BF90AF909F908F907F906F9008957F
:100B900063E170E00E940419FC011082118212824C
:100BA0001382148215821682178210861186DC0148
:100BB0001A96E801888518968C9318978F81179656
:100BC0008C9317978E8116968C9316978D81159618
:100BD0008C9315978C8114968C9314978B81139614
:100BE0008C9313978A8112968C9312978981119610
:100BF0008C938881828770CF6F927F928F929F9221
:100C0000AF92BF92CF92DF92EF92FF920F931F931A
:100C1000CF93DF938C01EB014A0139016115710516
:100C200009F47DC00E9444195C0160EA70E00E94F2
:100C30000419FC01C083118212821382148215826E
:100C400016821782108611869E0121503040D801ED
:100C5000A20FB31FEC0FFD1F02C0215030408C913A
:100C600081871197319721153105B9F7C5016CE0DE
:100C700070E00E9404196C0180E8F60180838DE425
:100C800081830E94F80C162F0027FF24EE24292FC1
:100C9000332744275527E22AF32A042B152B9B01DF
:100CA000AC01207030705070232F342F452F552702
:100CB000E22AF32A042B152B607080709070982F15
:100CC000872F762F6627E62AF72A082B192BF6019D
:100CD000E482F582068317831086118612861386B6
:100CE00080911F08909120089283838301969093AE
:100CF000200880931F08C501B401A3010E94CA0BFC
:100D0000DF91CF911F910F91FF90EF90DF90CF90E7
:100D1000BF90AF909F908F907F906F9008950E94AA
:100D20004419EC0160EA70E00E940419FC01108291
:100D30001182128213821482158216821782108603
:100D400011863A96AEE0B1E089E00D9001928150B3
:100D5000E1F7CE016CE070E00E9404196C0180E8BC
:100D6000F60180838DE481830E94F80C162F002702
:100D7000FF24EE24292F332744275527E22AF32A7C
:100D8000042B152B9B01AC01207030705070232F69
:100D9000342F452F5527E22AF32A042B152B607098
:100DA00080709070982F872F762F6627E62AF72A73
:100DB000082B192BF601E482F5820683178310862F
:100DC00011861286138680911F08909120089283C5
:100DD000838301969093200880931F08CE01B4016D
:100DE000A3010E94CA0B8CCF88E191E00895EF9295
:100DF000FF920F931F93DF93CF9300D000D000D0CA
:100E0000CDB7DEB78C0180E092E07E010894E11C52
:100E1000F11CB70146E00E947729882341F4D701ED
:100E2000E8E1F1E086E001900D928150E1F78981DF
:100E3000F80180838A8181838B8182838C81838383
:100E40008D8184838E81858326960FB6F894DEBFCC
:100E50000FBECDBFCF91DF911F910F91FF90EF900B
:100E60000895DF93CF9300D000D000D0CDB7DEB788
:100E7000FC018081898381818A8382818B83838144
:100E80008C8384818D8385818E8380E092E0BE0196
:100E90006F5F7F4F46E00E94382926960FB6F89480
:100EA000DEBF0FBECDBFCF91DF9108950F931F938B
:100EB000DF93CF9300D000D000D0CDB7DEB780E075
:100EC00092E08E010F5F1F4FB80146E00E94772924
:100ED000882341F0A8E1B1E0F80186E001900D928D
:100EE0008150E1F788E191E00E946E190E944F0164
:100EF0000E94220926960FB6F894DEBF0FBECDBF22
:100F0000CF91DF911F910F9108950F931F93DF935E
:100F1000CF93CDB7DEB72E970FB6F894DEBF0FBED6
:100F2000CDBF8C010E9495180E9758F42E960FB6DF
:100F3000F894DEBF0FBECDBFCF91DF911F910F910F
:100F40000895C801BE016F5F7F4F4EE050E00E94E0
:100F5000A0188D859E858830910551F08850964067
:100F600029F7C801BE01695F7F4F0E949802DECF5A
:100F7000C801BE01695F7F4F0E94140BD7CFCF928B
:100F8000DF92EF92FF920F931F93CF93DF937C0139
:100F90006B01142F052F6EE070E00E940419FC0114
:100FA000EC01212F302FC901DC0186E00D90099260
:100FB0008150E1F7EF012696A8E1B1E086E00D90BF
:100FC00009928150E1F7D586C486C70160E00E948E
:100FD0000D1AC7010E94E11880E0DF91CF911F91A7
:100FE0000F91FF90EF90DF90CF9008950F931F9394
:100FF000DF93CF93CDB7DEB72E970FB6F894DEBF51
:101000000FBECDBF0E944C198C01009739F00E9491
:1010100095180E9770F4C8010E94BE182E960FB650
:10102000F894DEBF0FBECDBFCF91DF911F910F911E
:101030000895C801BE016F5F7F4F4EE050E00E94EF
:10104000A0188D859E858830910551F08850964076
:1010500011F7C801BE01695F7F4F0E949802DBCF84
:10106000C801BE01695F7F4F0E94140BD4CF8EE18F
:1010700091E008958F929F92AF92BF92CF92DF92AC
:10108000EF92FF920F931F93DF93CF93CDB7DEB70D
:101090002C970FB6F894DEBF0FBECDBF6C015B017D
:1010A0004A0180E091E0BE016F5F7F4F4CE00E94FB
:1010B0007729882321F580911E0190911F01A0912D
:1010C0002001B091210189839A83AB83BC838091F5
:1010D000260190912701A0912801B09129018D83CB
:1010E0009E83AF83B8878091220190912301A091C4
:1010F0002401B091250189879A87AB87BC87C114E9
:10110000D10469F129813A814B815C81122F00273A
:10111000FF24EE24852F9927AA27BB27E82AF92A3E
:101120000A2B1B2BDA01C90180709070B070892FD7
:101130009A2FAB2FBB27E82AF92A0A2B1B2B2070EA
:1011400040705070542F432F322F2227E22AF32A67
:10115000042B152BF601E082F18202831383A11484
:10116000B10469F12D813E814F815885122F0027EE
:10117000FF24EE24852F9927AA27BB27E82AF92ADE
:101180000A2B1B2BDA01C90180709070B070892F77
:101190009A2FAB2FBB27E82AF92A0A2B1B2B20708A
:1011A00040705070542F432F322F2227E22AF32A07
:1011B000042B152BF501E082F18202831383811445
:1011C000910469F129853A854B855C85122F0027AA
:1011D000FF24EE24852F9927AA27BB27E82AF92A7E
:1011E0000A2B1B2BDA01C90180709070B070892F17
:1011F0009A2FAB2FBB27E82AF92A0A2B1B2B20702A
:1012000040705070542F432F322F2227E22AF32AA6
:10121000042B152BF401E082F182028313832C96B8
:101220000FB6F894DEBF0FBECDBFCF91DF911F91F7
:101230000F91FF90EF90DF90CF90BF90AF909F9075
:101240008F900895DF93CF93CDB7DEB72C970FB66D
:10125000F894DEBF0FBECDBF80E091E0BE016F5FAE
:101260007F4F4CE00E947729882321F189819A8160
:10127000AB81BC8180931E0190931F01A09320013C
:10128000B093210189859A85AB85BC858093220125
:1012900090932301A0932401B09325018D819E8119
:1012A000AF81B8858093260190932701A0932801F0
:1012B000B09329012C960FB6F894DEBF0FBECDBFB8
:1012C000CF91DF9108954F925F926F927F928F92AC
:1012D0009F92AF92BF92CF92DF92EF92FF920F93C5
:1012E0001F93DF93CF93CDB7DEB72C970FB6F8944B
:1012F000DEBF0FBECDBF5B016C0139014A0180E04A
:1013000091E02E010894411C511CB2014CE00E9456
:101310007729882321F580911E0190911F01A091CA
:101320002001B091210189839A83AB83BC83809192
:10133000260190912701A0912801B09129018D8368
:101340009E83AF83B8878091220190912301A09161
:101350002401B091250189879A87AB87BC87A114A6
:10136000B104C104D10469F15A2D4427332722273F
:101370008D2D9927AA27BB27282B392B4A2B5B2B8E
:10138000D601C50180709070B070892F9A2FAB2F55
:10139000BB27282B392B4A2B5B2B80E09FEFA0E04B
:1013A000B0E0A822B922CA22DB22BC2DAB2D9A2D97
:1013B0008827282B392B4A2B5B2B29833A834B8395
:1013C0005C83611471048104910469F1562D4427F2
:1013D00033272227892D9927AA27BB27282B392B8A
:1013E0004A2B5B2BD401C30180709070B070892FA1
:1013F0009A2FAB2FBB27282B392B4A2B5B2B80E056
:101400009FEFA0E0B0E0682279228A229B22B82DCB
:10141000A72D962D8827282B392B4A2B5B2B2D8324
:101420003E834F835887E114F1040105110569F1EA
:101430005E2D442733272227812F9927AA27BB27F0
:10144000282B392B4A2B5B2BD801C7018070907059
:10145000B070892F9A2FAB2FBB27282B392B4A2B03
:101460005B2B80E09FEFA0E0B0E0E822F9220A23A6
:101470001B23B02FAF2D9E2D8827282B392B4A2BCD
:101480005B2B29873A874B875C8780E091E0B2012C
:101490004CE00E9438292C960FB6F894DEBF0FBEA0
:1014A000CDBFCF91DF911F910F91FF90EF90DF9013
:1014B000CF90BF90AF909F908F907F906F905F90F4
:1014C0004F9008958F929F92AF92BF92CF92DF92EA
:1014D000EF92FF920F931F93DF93CF9300D000D032
:1014E00000D0CDB7DEB75C016B01E42EFB0180813B
:1014F0009181A281B38120912201309123014091F9
:1015000024015091250182279327A427B5272091F4
:101510002601309127014091280150912901822311
:101520009323A423B5230097A105B10509F074C046
:10153000CB014E010894811C911CB4010E946F03E1
:10154000882309F06CC0C50164E170E00E940419B1
:101550008C0185E4F80180831182C5010E94861800
:10156000F92EC5010E948618382F20E08F2D90E0BB
:10157000282B392BF8013383228390912A01809103
:101580002B0184839583F60180819181A281B381AF
:10159000F801808B918BA28BB38B80911E0190916F
:1015A0001F01A0912001B091210184879587A68712
:1015B000B78780912A0190912B01019690932B017E
:1015C00080932A0180E490E09783868380E8808777
:1015D000E18613861286C80164E170E00E949B1ABE
:1015E000F80193878287C50168E070E0A4010E943A
:1015F000BF0726960FB6F894DEBF0FBECDBFCF91C2
:10160000DF911F910F91FF90EF90DF90CF90BF90EF
:10161000AF909F908F90089582E291E08ACFC501AC
:101620000E94E11881E0E5CFEF92FF920F931F93A4
:10163000DF93CF93CDB7DEB764970FB6F894DEBFD4
:101640000FBECDBF8C017B010E949518449768F4B2
:1016500064960FB6F894DEBF0FBECDBFCF91DF9179
:101660001F910F91FF90EF900895C801BE016F5F29
:101670007F4F44E150E00E94A01829893A894B89A4
:101680005C8980911E0190911F01A0912001B09171
:101690002101281739074A075B07D1F6F701808136
:1016A00080FD25C08091220190912301A091240109
:1016B000B09125012D853E854F8558898227932736
:1016C000A427B527209126013091270140912801B8
:1016D0005091290182239323A423B5230097A105C8
:1016E000B10581F4CE010D96B7010E9493008A8561
:1016F000813109F0ADCFC801BE01635F7F4F0E9409
:10170000880BA6CF82E291E0B7010E949300EFCF51
:10171000EF92FF920F931F93DF93CF93CDB7DEB776
:101720002E970FB6F894DEBF0FBECDBF8C017B01A4
:101730000E949518089768F42E960FB6F894DEBFAD
:101740000FBECDBFCF91DF911F910F91FF90EF9012
:101750000895C801BE01695F7F4F48E050E00E94D4
:10176000A018F70120813181428153817F816885F2
:1017700099858A8581569E41F9F66D837E832983FA
:101780003A834B835C83C801BE016F5F7F4F0E9429
:101790005D04D2CFAF92BF92CF92DF92EF92FF92D1
:1017A0000F931F936C015B017A0168E070E00E9467
:1017B00004198C01F70190818181F8018083918364
:1017C000F50194818581F8018283938317821682C3
:1017D000C6010E948618F92EC6010E948618382F6D
:1017E00020E08F2D90E0282B392BF80135832483BE
:1017F000C601B50141E10E94620A1F910F91FF905D
:10180000EF90DF90CF90BF90AF900895AF92BF92CE
:10181000CF92DF92EF92FF920F931F93DF93CF93BC
:1018200000D000D000D0CDB7DEB78C017B016A01BB
:10183000590180E093E0BE016F5F7F4F46E00E9458
:101840007729882379F480912C0190912D019A8336
:10185000898380912E018B8380912F018C838091CD
:1018600030018D8389819A81F801918380838B81F6
:10187000F70180838C81F60180838D81F50180835F
:1018800026960FB6F894DEBF0FBECDBFCF91DF9185
:101890001F910F91FF90EF90DF90CF90BF90AF908E
:1018A0000895BF92CF92DF92EF92FF920F931F9312
:1018B000DF93CF9300D000D000D0CDB7DEB78C013E
:1018C000D62EC42EB22E80E093E07E010894E11C57
:1018D000F11CB70146E00E9477291A830983DB8255
:1018E000CC82BD8280E093E0B70146E00E943829B7
:1018F00026960FB6F894DEBF0FBECDBFCF91DF9115
:101900001F910F91FF90EF90DF90CF90BF900895BF
:10191000DF93CF9300D00F92CDB7DEB780916009EF
:101920008130E9F00E94CF10882399F01B821A823F
:101930001982CE010296BE016F5F7F4F0E940F1188
:101940008A819B8169810E948B1A8A819B810E9476
:10195000F32D0F900F900F90CF91DF91089510927B
:10196000600988E399E0609161090E944328DACF19
:101970000E94BB100895DF93CF9300D000D000D019
:10198000CDB7DEB780E093E0BE016F5F7F4F46E0EA
:101990000E947729882379F089819A8190932D017B
:1019A00080932C018B8180932E018C8180932F0159
:1019B0008D818093300180912C0190912D01609157
:1019C0002E0140912F01209130010E943A1180E0B8
:1019D00090E060E00E94FF2B26960FB6F894DEBFE1
:1019E0000FBECDBFCF91DF9108950E945010089592
:1019F0000E94941008950E946C100895109222087D
:101A000010922108109224081092230808950F9331
:101A10001F938C0181E298E0B8010E94BF0FC801BA
:101A20000E94F32D1F910F9108958F929F92AF9274
:101A3000BF92CF92DF92EF92FF920F931F93CF93BB
:101A4000DF938C014B018EE090E00E94492DEC0168
:101A50000E94FB0CF42EE52ED62EC72EB82EA92EF2
:101A6000A801122F140FF1E0121708F0F0E0032F75
:101A7000050FE1E0031708F0E0E07F2F700F21E091
:101A8000701708F020E03E2F322B3F0D21E03F156C
:101A900008F020E0622F6E0D21E06E1508F020E0C6
:101AA000522F5D0D21E05D1508F020E0422F4C0D16
:101AB00021E04C1508F020E02B0D91E02B1508F0EB
:101AC00090E09A0D1C837D833E836F8358874987FE
:101AD0002A879B879D868C86E0912108F0912208B9
:101AE000309709F447C083859817A0F481E298E005
:101AF000BF01AE010E94260FCE01DF91CF911F9151
:101B00000F91FF90EF90DF90CF90BF90AF909F909C
:101B10008F900895891759F00280F381E02D309756
:101B200011F781E298E0BE010E94750FE5CF828532
:101B30002817E0F2821781F781854817B8F28417D9
:101B400059F78085581790F2851731F78781681704
:101B500068F2861709F78681381740F28317E1F695
:101B60008581781718F28717B9F68481181708F459
:101B7000BDCFD2CF81E298E0BE010E94460FBCCF1C
:101B8000AF92BF92CF92DF92EF92FF920F931F938B
:101B9000E0912108F09122083097F9F0A480B580F7
:101BA000C680D780F0841185E28403850E94FB0CF7
:101BB000901798F00917D1F06091210870912208D0
:101BC0008B01F801E484F58481E298E00E94BF0F64
:101BD000C8010E94F32DF70109951F910F91FF9005
:101BE000EF90DF90CF90BF90AF9008958E15A8F33F
:101BF000E81611F7711788F31717F1F66F1568F3E8
:101C0000F616D1F65D1548F3D516B1F64C1528F346
:101C1000C41691F63B1508F3B31671F62A15E8F2CF
:101C2000CBCF9F92AF92BF92CF92DF92EF92FF9273
:101C30000F931F93CF93DF93C0912108D091220877
:101C4000209709F48BC080E190E00E94492D8C011F
:101C50000E94FB0CC901B8014AE050E00E94932E9B
:101C600086E491E00E94502CC8010E94502CDD2493
:101C7000D3948C819D81B8014AE050E00E94932E5C
:101C80008BE591E00E94502CC8010E94502C0A80E4
:101C9000DB81C02D209761F7E0912108F0912208A7
:101CA0009480A580B680C780F084E1840285138586
:101CB0000E94FB0C911730F581E691E00E94502CB8
:101CC00082E090E00E94492D182F092F8D2D90E081
:101CD000612F702F4AE050E00E94932E87EA91E036
:101CE0000E94502C812F902F0E94502CDF91CF9179
:101CF0001F910F91FF90EF90DF90CF90BF90AF902A
:101D00009F900895191779F188E891E00E94502C6E
:101D1000E0912108F0912208309791F29480A580FB
:101D2000B680C780E084F184028513850E94FB0C95
:101D3000911730F21917E1F1609121087091220892
:101D40008B01F801E484F58481E298E00E94BF0FE2
:101D5000C8010E94F32DF7010995B2CF81E391E00C
:101D60000E94502CC3CF801708F4A6CF081761F645
:101D70007E1508F4A1CFE71639F66F1508F49CCF4D
:101D8000F61611F65C1508F497CFC51609F0BCCF0E
:101D90004B1508F491CFB41609F0B6CF3A1508F4F4
:101DA0008BCFA31609F0B0CF291508F0ADCF84CFA3
:101DB000801708F485CF081709F0BECF7F1508F407
:101DC0007FCFF71609F0B8CF6E1508F479CFE61675
:101DD00009F0B2CF5C1508F473CFC51609F0ACCF8B
:101DE0004B1508F46DCFB41609F0A6CF3A1508F4D8
:101DF00067CFA31609F0A0CF291508F461CF9CCFB7
:101E0000CF93DF939C01DB01FA017183608312960B
:101E10008D919C911397938382831296CD91DC913F
:101E20001397209749F0598348831396FC93EE93B8
:101E30001297DF91CF910895E9015B834A8313964E
:101E4000FC93EE931297DF91CF910895CF93DF9398
:101E50009C01DB01FA018D919C9111979183808304
:101E600073836283CD91DC911197209739F05B8366
:101E70004A83ED93FC93DF91CF910895E901598353
:101E80004883ED93FC93DF91CF910895CF93DF9337
:101E90009C01DB01EC01E881F9813097A1F08081A0
:101EA000918111969C938E931396FC93EE931297C7
:101EB000C081D1812097A9F07B836A83B183A083FD
:101EC000DF91CF910895798368837B836A8311962C
:101ED0001C921E9213961C921E921297DF91CF9124
:101EE0000895E90179836883E9CFCF93DF939C015B
:101EF000EB01DC011296ED91FC911397309789F07C
:101F0000F983E883828193819B838A83A281B38151
:101F10001097F9F06D937C93D383C283DF91CF91B7
:101F20000895ED91FC9111973097C9F080819181CE
:101F300099838883FB83EA83A081B1811097D9F0CC
:101F400013967C936E931297D183C083DF91CF91C8
:101F50000895D90113967C936E931297DDCF119655
:101F60007C936E9313967C936E93129719821882CA
:101F70001B821A82D3CFD9016D937C93E5CFCF9387
:101F8000DF93EC01FB01A081B181109781F0828188
:101F9000938113969C938E9312970280F381E02D88
:101FA000309771F0B183A083DF91CF910895828142
:101FB0009381998388830280F381E02D309791F794
:101FC000BB83AA83DF91CF910895CF93DF93FC0168
:101FD000DB018481882391F011961C921E92C081AE
:101FE000D181209779F079836883B183A08384813C
:101FF0008150848380E0DF91CF91089581E0DF916B
:10200000CF91089573836283F0CF20E0FC01828139
:102010009381892B09F021E0822F089520E0FC01B3
:102020008481882309F421E0822F0895FC01A28194
:10203000B381109751F08D919C9111979383828376
:10204000892B29F084818F5F8483CD0108951182CB
:102050001082F8CF1F920F920FB60F9211248F9318
:102060009F93AF93BF9312BE80912508909126084D
:10207000A0912708B09128080196A11DB11D809359
:10208000250890932608A0932708B0932808BF91AD
:10209000AF919F918F910F900FBE0F901F90189549
:1020A00010922508109226081092270810922808EE
:1020B00087B78C7F87BF80B7886080BF12BE11BE94
:1020C00083E083BF00B602FEFDCF86B78C7F86BF5C
:1020D00087B7816087BF0895AF92BF92CF92DF929A
:1020E000EF92FF920F931F93A0902508B0902608BF
:1020F000C0902708D090280882B7DC2CCB2CBA2CB3
:10210000AA24A80EB11CC11CD11C9501A60160E037
:1021100070E080E090E01F910F91FF90EF90DF90D2
:10212000CF90BF90AF900895209125083091260858
:10213000409127085091280882B7542F432F322FFF
:102140002227280F311D411D511DB901CA010895D3
:1021500020912508309126084091270850912808A1
:1021600082B7322F2227280F311DC90108955D9BA8
:10217000FECF8CB9089570E06115710571F020E013
:1021800030E0FC01E20FF31FE0815D9BFECFECB974
:102190002F5F3F4F26173707A4F3089508958DE169
:1021A00099E00E9405100895CF93DF93559882E23D
:1021B00099E00E941610EC018C8148E750E0481B22
:1021C00051094D55574F882319F1282F2150822F3F
:1021D00090E0DA01A80FB91FEA81FB81E80FF91F2F
:1021E00080818C93215098F78CE198E090931C09A2
:1021F00080931B098C81882321F08A819B810E9416
:10220000F32DCE010E94F32D559ADF91CF910895C1
:102210008CE198E090931C0980931B09F2CFEF9218
:10222000FF920F931F937C018B018DE199E00E9437
:102230001610FC018481D8018C9382819381D7018F
:102240008D939C93CF010E94F32D8091270990914B
:1022500028090E94070D80E092E061EE71E10E9482
:10226000150D90932809809327091F910F91FF90D6
:10227000EF90089532E032B910989093900089B9A8
:10228000599888E98AB9E5E9F0E080816295607F34
:10229000862B80838081440F440F440F842B8083DE
:1022A0008081220F822B808310921E0910921D09BB
:1022B0001092200910921F0925E02093210989E23C
:1022C00098E09093A2088093A1081092230910929D
:1022D00022091092250910922409209326098BE1E6
:1022E00099E090931C0980931B0980E092E061EED5
:1022F00071E10E94150D9093280980932709089594
:10230000EF92FF921F93CF93DF9357988DE199E05F
:102310000E940E10882381F585E090E00E94492DEF
:10232000EC018091A1089091A20829E2E22E28E018
:10233000F22E8E159F0599F1182F1E191C83812FDF
:1023400090E00E94492D8A839B83112379F0312FDD
:102350003150832F90E0FC01E75DF74F2081EA8147
:10236000FB81E80FF91F2083315098F78DE199E048
:10237000BE010E94E50F08C08FEB91E00E94502C37
:1023800089E2E82E88E0F82EF092A208E092A108F7
:10239000579ADF91CF911F91FF90EF9008951C8283
:1023A0001B821A8280916009882301F786EB91E0F5
:1023B00060E070E040E359E026E339E00E94320536
:1023C000D5CF0E94801180E092E061EE71E10E9421
:1023D000150D909328098093270908951F920F9255
:1023E0000FB60F920BB60F9211242F933F934F937A
:1023F0005F936F937F938F939F93AF93BF93EF936D
:10240000FF935D9BFECF8CB1E091A108F091A208F3
:1024100080838091A1089091A20801969093A208D0
:102420008093A108815A984010F00E948011FF917A
:10243000EF91BF91AF919F918F917F916F915F913C
:102440004F913F912F910F900BBE0F900FBE0F90A9
:102450001F9018951F920F920FB60F920BB60F9206
:1024600011242F933F934F935F936F937F938F9399
:102470009F93AF93BF93CF93DF93EF93FF93E0913D
:102480001B09F0911C0980818CB989E0EA31F807B9
:10249000D0F43196F0931C09E0931B09FF91EF9162
:1024A000DF91CF91BF91AF919F918F917F916F916C
:1024B0005F914F913F912F910F900BBE0F900FBEE8
:1024C0000F901F90189582E299E00E9405108823D2
:1024D00011F05598E3CF559882E299E00E941610CA
:1024E000EC018C8148E750E0481B51094D55574F8E
:1024F000882309F1282F2150822F90E0DA01A80FBC
:10250000B91FEA81FB81E80FF91F80818C9321506C
:1025100098F78CE198E090931C0980931B098C81BB
:10252000882321F08A819B810E94F32DCE010E9495
:10253000F32D559AB3CF8CE198E090931C098093CA
:102540001B09F4CFFB01C0988FB9779BFECF4115D3
:10255000510541F080818FB9779BFECF3196415074
:102560005040C1F7C09A0895DF93CF930F92CDB733
:10257000DEB76983C0988FB9779BFECFFE01319695
:102580009E012E5F3F4F81918FB9779BFECFE2175F
:10259000F307C9F7C09A0F90CF91DF910895FB011F
:1025A000C0988FB9779BFECF222329F01FB8779B65
:1025B000FECF2150D9F74115510551F01FB8779B37
:1025C000FECF8FB180834150504011F03196F6CF4D
:1025D000C09A0895DF93CF930F92CDB7DEB7482FFF
:1025E00087FD3BC0282F30E020763070809129098C
:1025F00090E08217930789F183E08983C0988FEB7D
:102600008FB9779BFECFBE016F5F7F4FFB01DE016D
:10261000129681918FB9779BFECFEA17FB07C9F716
:10262000C09A3595279535952795359527953595F4
:102630002795359527952983C0988FE98FB9779B82
:10264000FECFFB0181918FB9779BFECFEA17FB0785
:10265000C9F7C09A4076409329090F90CF91DF9136
:10266000089587E087BBBB98C09A80E58DB981E06B
:102670008EB910922909089590E080769070803488
:10268000910531F020E08036910511F0822F0895F8
:1026900021E0822F0895FC01C0988AE78FB9779BCB
:1026A000FECF6115710541F080818FB9779BFECF18
:1026B000319661507040C1F7C09A0895C0988FEF6D
:1026C0008FB9779BFECFC09A0895DF93CF930F9277
:1026D000CDB7DEB7C0988AE38FB9779BFECF1FB81E
:1026E000779BFECF8FB18983C09A89810F90CF915C
:1026F000DF910895DF93CF9300D0CDB7DEB7C098B8
:102700008AE38FB9779BFECFFE0131969E012E5F43
:102710003F4F1FB8779BFECF8FB18083E217F3073F
:1027200011F03196F6CFC09A89819A810F900F905F
:10273000CF91DF910895AC01C0988AE38FB9779B60
:10274000FECF6115710559F0FA011FB8779BFECFD6
:102750008FB180836150704011F03196F6CFC09AEE
:10276000CA010895FF920F931F93DF93CF930F92A7
:10277000CDB7DEB7A82FB62FF72E87FD6CC0282F58
:1027800030E0207630708091290990E0821793071D
:10279000A1F183E08983C0988FEB8FB9779BFECF3F
:1027A000BE016F5F7F4FFB018E010E5F1F4F819156
:1027B0008FB9779BFECFE017F107C9F7C09AC9011F
:1027C00095958795959587959595879595958795F1
:1027D000959587958983C0988FE98FB9779BFECFB0
:1027E000FB0181918FB9779BFECFE017F107C9F705
:1027F000C09A8A2F80768093290920343105F9F018
:1028000080E020363105D9F0C098AF71AFB9779B21
:10281000FECF882319F01FB8779BFECF41155105D5
:1028200081F08B2F9F2D9C01F9011FB8779BFECF64
:102830008FB180834150504021F03196F6CF81E036
:10284000E3CFC09A8B2F9F2D0F90CF91DF911F91D7
:102850000F91FF900895282F30E020763070CDCF73
:10286000DF93CF9300D0CDB7DEB7482F6A8387FDC3
:1028700054C0282F30E0207630708091290990E0F4
:102880008217930709F449C083E08983C0988FEBCE
:102890008FB9779BFECFDE011196FD01BE016E5F01
:1028A0007F4F81918FB9779BFECFE617F707C9F766
:1028B000C09A359527953595279535952795359562
:1028C0002795359527952983C0988FE98FB9779BF0
:1028D000FECFFD0181918FB9779BFECFE617F707F9
:1028E000C9F7C09A842F8076809329094F71406878
:1028F000C0984FB9779BFECFFB019E012D5F3F4FE4
:1029000081918FB9779BFECFE217F307C9F7C09A81
:102910000F900F90CF91DF910895BE016E5F7F4FB2
:10292000E5CFDF93CF9300D0CDB7DEB7482F6A83D2
:1029300087FD54C0282F30E020763070809129091F
:1029400090E08217930709F449C083E08983C09817
:102950008FEB8FB9779BFECFDE011196FD01BE0193
:102960006E5F7F4F81918FB9779BFECFE617F70798
:10297000C9F7C09A359527953595279535952795AB
:1029800035952795359527952983C0988FE98FB977
:10299000779BFECFFD0181918FB9779BFECFE61724
:1029A000F707C9F7C09A842F8076809329094F7161
:1029B000406AC0984FB9779BFECFFB019E012D5F07
:1029C0003F4F81918FB9779BFECFE217F307C9F78D
:1029D000C09A0F900F90CF91DF910895BE016E5F66
:1029E0007F4FE5CFEF92FF921F93DF93CF930F922C
:1029F000CDB7DEB7182FFB0187FD3FC0282F30E091
:102A0000207630708091290990E082179307A9F110
:102A100083E08983C0988FEB8FB9779BFECFBE018F
:102A20006F5F7F4FDB0182E0E82EF12CEC0EFD1E84
:102A30008D918FB9779BFECFAE15BF05C9F7C09AB0
:102A4000359527953595279535952795359527956E
:102A5000359527952983C0988FE98FB9779BFECF4D
:102A6000DB018D918FB9779BFECFAE15BF05C9F7FE
:102A7000C09A812F8076809329091F711064C098B5
:102A80001FB9779BFECF4115510541F080818FB969
:102A9000779BFECF319641505040C1F7C09A0F90BE
:102AA000CF91DF911F91FF90EF900895DF93CF9327
:102AB00000D0CDB7DEB7482F6A8387FD54C0282FDA
:102AC00030E0207630708091290990E082179307DA
:102AD00009F449C083E08983C0988FEB8FB9779B55
:102AE000FECFDE011196FD01BE016E5F7F4F819129
:102AF0008FB9779BFECFE617F707C9F7C09A3595D0
:102B000027953595279535952795359527953595AD
:102B100027952983C0988FE98FB9779BFECFFD0158
:102B200081918FB9779BFECFE617F707C9F7C09A57
:102B3000842F8076809329094F714064C0984FB9E3
:102B4000779BFECFFB019E012D5F3F4F81918FB997
:102B5000779BFECFE217F307C9F7C09A0F900F904B
:102B6000CF91DF910895BE016E5F7F4FE5CFDF9378
:102B7000CF9300D00F92CDB7DEB7482F7B836A8307
:102B800087FD55C0282F30E02076307080912909CC
:102B900090E08217930709F44AC083E08983C098C4
:102BA0008FEB8FB9779BFECFDE011196FD01BE0141
:102BB0006E5F7F4F81918FB9779BFECFE617F70746
:102BC000C9F7C09A35952795359527953595279559
:102BD00035952795359527952983C0988FE98FB925
:102BE000779BFECFFD0181918FB9779BFECFE617D2
:102BF000F707C9F7C09A842F8076809329094F710F
:102C00004064C0984FB9779BFECFFB019B012E5FBC
:102C10003F4F81918FB9779BFECFE217F307C9F73A
:102C2000C09A0F900F900F90CF91DF910895BE0141
:102C30006E5F7F4FE4CFEF92FF921F93DF93CF93AE
:102C40000F92CDB7DEB7182FFB0187FD3FC0282FAD
:102C500030E0207630708091290990E08217930748
:102C6000A9F183E08983C0988FEB8FB9779BFECF62
:102C7000BE016F5F7F4FDB0182E0E82EF12CEC0E8E
:102C8000FD1E8D918FB9779BFECFAE15BF05C9F79D
:102C9000C09A35952795359527953595279535957E
:102CA0002795359527952983C0988FE98FB9779B0C
:102CB000FECFDB018D918FB9779BFECFAE15BF059F
:102CC000C9F7C09A812F8076809329091F711064FB
:102CD000C0981FB9779BFECF4115510541F0808107
:102CE0008FB9779BFECF319641505040C1F7C09AC3
:102CF0000F90CF91DF911F91FF90EF900895DF9398
:102D0000CF9300D0CDB7DEB78A8380912909803474
:102D100009F492C083E08983C0988FEB8FB9779BC9
:102D2000FECFDE011196FD019E012E5F3F4F819186
:102D30008FB9779BFECFE217F307C9F7C09A82E0FD
:102D40008983C0988FE98FB9779BFECFFD01819170
:102D50008FB9779BFECFE217F307C9F7C09A80E4DB
:102D600080932909C09884E58FB9779BFECFF9013C
:102D7000AE014D5F5F4F81918FB9779BFECFE41716
:102D8000F507C9F7C09A6983C09886E58FB9779B24
:102D9000FECFFD0181918FB9779BFECFE217F3073C
:102DA000C9F7C09A7983C09887E58FB9779BFECF22
:102DB000FD0181918FB9779BFECFE217F307C9F729
:102DC000C09A90E463E07FEBAFE9BAE09036E9F0B7
:102DD0006A83C0987FB9779BFECFF90181918FB943
:102DE000779BFECFE417F507C9F7C09A6A83C098AE
:102DF000AFB9779BFECFF90181918FB9779BFECF59
:102E0000E417F507C9F7C09A90E6C098BFB9779B59
:102E1000FECF1FB8779BFECF1FB8779BFECF8FB139
:102E20008983C09A898180FDD1CF909329090F9021
:102E30000F90CF91DF910895DE0111969E012E5FD4
:102E40003F4F90CFDF93CF9300D00F92CDB7DEB737
:102E5000482F87FD68C0282F30E0207630708091A1
:102E6000290990E08217930709F465C083E08983FC
:102E7000C0988FEB8FB9779BFECFDE011196FD01D5
:102E8000BE016E5F7F4F81918FB9779BFECFE617B2
:102E9000F707C9F7C09AC9019595879595958795C4
:102EA0009595879595958795959587958983C098EC
:102EB0008FE98FB9779BFECFFD0181918FB9779B09
:102EC000FECFE617F707C9F7C09A842F8076809364
:102ED000290920343105E1F080E020363105C1F0C8
:102EE000C0984F714FB9779BFECF882319F01FB858
:102EF000779BFECFFB019E012D5F3F4F1FB8779B55
:102F0000FECF8FB18083E217F30721F03196F6CF21
:102F100081E0E6CFC09A8B819A810F900F900F903D
:102F2000CF91DF910895282F30E020763070BE01D8
:102F30006E5F7F4FCECFBE016E5F7F4FCACFDF93F4
:102F4000CF9300D0CDB7DEB7482F87FD5CC0282FC8
:102F500030E0207630708091290990E08217930745
:102F600099F183E08A83C0988FEB8FB9779BFECF6E
:102F7000BE016E5F7F4FFB01DE01139681918FB919
:102F8000779BFECFEA17FB07C9F7C09AC901959551
:102F90008795959587959595879595958795959519
:102FA00087958A83C0988FE98FB9779BFECFFB0105
:102FB00081918FB9779BFECFEA17FB07C9F7C09ABB
:102FC000842F80768093290920343105D1F080E068
:102FD00020363105B1F0C0984F714FB9779BFECFC5
:102FE000882319F01FB8779BFECF1FB8779BFECFC1
:102FF0008FB18983C09A89810F900F90CF91DF9113
:10300000089581E0E8CF282F30E020763070DCCFC3
:10301000FF920F931F93DF93CF930F92CDB7DEB73D
:10302000A82FB62FF72E87FD6CC0282F30E0207612
:1030300030708091290990E082179307A1F183E015
:103040008983C0988FEB8FB9779BFECFBE016F5FEE
:103050007F4FFB018E010E5F1F4F81918FB9779BD0
:10306000FECFE017F107C9F7C09AC901959587957A
:103070009595879595958795959587959595879538
:103080008983C0988FE98FB9779BFECFFB0181912F
:103090008FB9779BFECFE017F107C9F7C09A8A2F47
:1030A00080768093290920343105F9F080E02036BC
:1030B0003105D9F0C098AF71AFB9779BFECF8823A7
:1030C00019F01FB8779BFECF4115510581F08B2F6A
:1030D0009F2D9C01F9011FB8779BFECF8FB1808394
:1030E0004150504021F03196F6CF81E0E3CFC09AB5
:1030F0008B2F9F2D0F90CF91DF911F910F91FF90FC
:103100000895282F30E020763070CDCFFC0101905B
:10311000F081E02D309729F00680F781E02DCF0176
:103120000895E0E0F0E0CF010895FC01009721F060
:1031300020813181C901089520E030E0C90108955E
:103140000F931F93CF93DF938C01DC01ED91FC91E2
:10315000EA01E417F50708F4EF01CB01BE010E9474
:103160009B13F801808191818C1B9D0B918380833F
:10317000CE01DF91CF911F910F910895CF93DF93EF
:10318000EC016A817B81615070408AE16030780790
:1031900090F48CE00E94B7158EE960E40E94301430
:1031A0006A817B8180E00E94B715CE010E94F32DD9
:1031B000DF91CF9108958CE06FEF79E10E94B71510
:1031C000EBCF0F931F93CF93DF938C01009779F48C
:1031D00016C088819981009711F00E94F32D8C818F
:1031E0009D81F80191838083CE010E94F32DF80127
:1031F000C081D181209769F7C8010E94F32DDF912A
:10320000CF911F910F910895EF92FF920F931F930B
:10321000CF93DF937C018B0188E090E00E94492DE1
:10322000EC011B830A8301151105E9F41982188248
:10323000D701ED91FC91FD83EC83309701F18681FC
:1032400097812A813B81820F931F9F838E83F70191
:10325000D183C08388819981DF91CF911F910F9194
:10326000FF90EF900895C8010E94492D88839983AB
:10327000D701ED91FC91FD83EC83309701F78A81B2
:103280009B819F838E83E3CF82E090E00E94492D53
:10329000FC01118210820895CF93DF938CE90E9484
:1032A0009F1786FF13C084E090E00E94492DEC0137
:1032B0000E947A139B838A830E947A13998388835E
:1032C0000E947A13CE01DF91CF91089589E30E9485
:1032D0009F17882341F7C0E0D0E0F4CFCF93DF936E
:1032E000EC010E9431130E945E1320E030E040E7C1
:1032F00051E0CA010197F1F72F5F3F4F81E0243F72
:103300003807B9F78DE90E949F1780FFFBCF88E04F
:1033100060E00E94561589E060E00E9456158AE040
:103320006FEF0E9456158BE069E10E94561584E00C
:1033300060E07AE10E94B71586E06FEF7FE10E94BE
:10334000B71581E460E00E94561580E46DE00E94AC
:10335000561582E462E30E9456158AE46EEE0E94DE
:1033600056158BE465E00E94561584E462E10E94E4
:10337000561586E462E10E94561587E46CE00E94CF
:10338000561581E66D810E94561580E66C810E947B
:10339000561583E66B810E94561582E66A810E946B
:1033A000561585E669810E94561584E668810E945B
:1033B000561580E160E071E00E947F1684E162E7CB
:1033C00074E00E947F168FE964E00E94301480E070
:1033D00060E070E00E94B715DF91CF9108951F93D0
:1033E000CF93DF9311E3C0E0D0E906C0CE0101978F
:1033F000F1F711501F3F49F08FE90E949F1783FD9D
:10340000F5CFDF91CF911F91089585ED91E00E9456
:10341000502CDF91CF911F910895BF92CF92DF92F0
:10342000EF92FF920F931F93DF93CF930F92CDB73D
:10343000DEB76C01B62E12E3E12C80E9F82E06C04F
:10344000C7010197F1F7115009F457C08FE90E94A5
:103450009F1783FDF5CF84E060E07AE10E94B71505
:1034600082E060E07AE10E94B7151982CE010196F0
:1034700061E070E00E944B13F6010081118101159B
:10348000110581F0F80162817381808191810E9430
:103490004B13F801048115810115110599F7F60107
:1034A00000811181F801668177816050764E86E057
:1034B0000E94B7158FE960E80E9430148FE960E838
:1034C0000E9491148FE96CE00E9430141B2DB0FC17
:1034D00007C08FE90E949F1783FFFBCF11FF12C027
:1034E00090E0892F0F90CF91DF911F910F91FF9066
:1034F000EF90DF90CF90BF90089585ED91E00E940E
:10350000502CA9CF8DE90E949F1790E0827149F35A
:1035100091E0E7CF08952AE239E070E0A901245F45
:103520003F4F0E94FC0580E00895662309F408954A
:103530000E94B80C0895DC0160FD34C020E030E04A
:1035400040E050E0769567956115710501F1FB014A
:10355000E150F048EE0FFF1FEA0FFB1F80819181C1
:10356000A0E0B0E0280F391F4A1F5B1F329761505F
:103570007040A1F7CA01AA27BB270097A105B10592
:1035800069F040705070280F391F4A1F5B1FCA0135
:10359000AA27BB270097A105B10599F7209530957B
:1035A000C9010895FC01E60FF71F8081282F30E044
:1035B00040E050E0C7CFFC018081882341F090E0DB
:1035C0009F5F818131968823D9F7892F089590E0F4
:1035D000FCCFF8940C9400F080E0089581E0809393
:1035E000E00780E008958091E00708950F931F930E
:1035F000DF93CF93CDB7DEB72B970FB6F894DEBF2E
:103600000FBECDBF19828E010E5F1F4F8AE0F801F9
:1036100011928A95E9F780E090E060E070E040E088
:1036200050E09E012F5F3F4F0E94060C69816B5F47
:10363000698370E080E090E0A8012AE030E00E9419
:10364000B42E8A81882311F160E0FE0133966F5F0A
:1036500081918823E1F770E0C80140E359E026E357
:1036600039E00E94320587EE91E00E94502CC8019B
:103670000E94502C80E02B960FB6F894DEBF0FBE50
:10368000CDBFCF91DF911F910F91089560E070E061
:10369000E3CF0F931F93DF93CF93CDB7DEB72B9775
:1036A0000FB6F894DEBF0FBECDBF19828E010E5F3C
:1036B0001F4F8AE0F80111928A95E9F780E090E0C7
:1036C00060E070E0AE014F5F5F4F20E030E00E94AD
:1036D000060C698170E06F5F7F4F882777FD8095CA
:1036E000982FA8012AE030E00E94B42E8A81882316
:1036F00011F160E0FE0133966F5F81918823E1F75D
:1037000070E0C80140E359E026E339E00E94320549
:1037100084EF91E00E94502CC8010E94502C80E060
:103720002B960FB6F894DEBF0FBECDBFCF91DF91C1
:103730001F910F91089560E070E0E3CF0F931F9306
:10374000DF93CF93CDB7DEB72B970FB6F894DEBFDC
:103750000FBECDBF19828E010E5F1F4F8AE0F801A8
:1037600011928A95E9F780E090E0BE016F5F7F4F8C
:1037700040E050E020E030E00E94060C698170E0FB
:1037800080E090E0A8012AE030E00E94B42E8A8117
:103790008823F1F160E0FE0133966F5F8191882309
:1037A000E1F770E0C80140E359E026E339E00E9408
:1037B000320581E092E00E94502CC8010E94502CFA
:1037C0008981813001F1813080F484E092E00E94AF
:1037D000502C80E02B960FB6F894DEBF0FBECDBF05
:1037E000CF91DF911F910F910895823039F083308E
:1037F00081F78CE492E00E94502CEBCF8CE292E0B7
:103800000E94502CE6CF88E192E00E94502CE1CF3C
:1038100060E070E0C7CF0F931F93DF93CF93CDB7D6
:10382000DEB72C970FB6F894DEBF0FBECDBFCE012A
:10383000019660E070E040E050E020E030E00E945F
:10384000060C8E010D5F1F4F8AE0F80111928A95D8
:10385000E9F729813A812F5F3F4F22953295307FDA
:103860003227207F322740E050E060E070E081EEB8
:1038700090E00E941E2FCA01B901A8012AE030E0A1
:103880000E94B42E8B81882311F160E0FE013496F2
:103890006F5F81918823E1F770E0C80140E359E050
:1038A00026E339E00E9432058BE692E00E94502C1C
:1038B000C8010E94502C80E02C960FB6F894DEBF11
:1038C0000FBECDBFCF91DF911F910F91089560E0A2
:1038D00070E0E3CFDF93CF93CDB7DEB727970FB676
:1038E000F894DEBF0FBECDBF9F838E831D821C82E6
:1038F00019821A821B82CE010496BE016F5F7F4F30
:10390000AE014E5F5F4F9E012D5F3F4F0E94060C40
:10391000CE0106960E949626262F2550243050F080
:1039200081E027960FB6F894DEBF0FBECDBFCF91D2
:10393000DF9108952B838C819D8169814A810E944A
:10394000510C80E0EECFDF93CF93CDB7DEB7279752
:103950000FB6F894DEBF0FBECDBF9F838E831D824E
:103960001C8219821A821B82CE010496BE016F5FEF
:103970007F4FAE014E5F5F4F9E012D5F3F4F0E9414
:10398000060CCE0106960E949626462F41504230E4
:1039900050F081E027960FB6F894DEBF0FBECDBF82
:1039A000CF91DF9108954A838C819D8169812B811C
:1039B0000E94510C80E0EECFDF93CF93CDB7DEB7FE
:1039C00027970FB6F894DEBF0FBECDBF9F838E83BF
:1039D0001D821C8219821A821B82CE010496BE01AE
:1039E0006F5F7F4FAE014E5F5F4F9E012D5F3F4F78
:1039F0000E94060CCE0106960E949626643050F076
:103A000081E027960FB6F894DEBF0FBECDBFCF91F1
:103A1000DF9108958C819D814A812B8169830E9469
:103A2000510C80E0EECFDF93CF93CDB7DEB7279771
:103A30000FB6F894DEBF0FBECDBF9F838E831D826D
:103A40001C8219821A821B82CE010496BE016F5F0E
:103A50007F4FAE014E5F5F4F9E012D5F3F4F0E9433
:103A6000060CCE0106960E9496269B01AC01220F01
:103A7000331F441F551F220F331F441F551F220F92
:103A8000331F441F551F220F331F441F551F60E073
:103A900070E081EE90E00E941E2FDA01C9010197CB
:103AA0009D838C8369814A812B810E94510C80E027
:103AB00027960FB6F894DEBF0FBECDBFCF91DF9132
:103AC0000895CF92DF92EF92FF920F931F93DF93AF
:103AD000CF9300D0CDB7DEB79A838983CE0101960C
:103AE0000E9496266B017C0160E070E080E090E02F
:103AF00040E050E000E010E020E030E07601CC242F
:103B0000DD240E94A12A80E00F900F90CF91DF91D9
:103B10001F910F91FF90EF90DF90CF900895CF927B
:103B2000DF92EF92FF920F931F93DF93CF9300D01A
:103B3000CDB7DEB79A838983CE0101960E9496267F
:103B40009B01AC0160E070E080E090E0A90100E042
:103B500010E020E030E0EE24FF24CC24DD240E949D
:103B6000A12A80E00F900F90CF91DF911F910F91CC
:103B7000FF90EF90DF90CF9008950F931F93DF9306
:103B8000CF93CDB7DEB727970FB6F894DEBF0FBE41
:103B9000CDBF80E090E060E070E040E050E09E014A
:103BA0002F5F3F4F00E010E00E94BF298E010D5FA4
:103BB0001F4F85E0F80111928A95E9F769817A81B2
:103BC00080E090E0A8012AE030E00E94B42E8B81D2
:103BD000882311F160E0FE0134966F5F81918823A4
:103BE000E1F770E0C80140E359E026E339E00E94C4
:103BF000320581E892E00E94502CC8010E94502CAE
:103C000080E027960FB6F894DEBF0FBECDBFCF91F0
:103C1000DF911F910F91089560E070E0E3CF0F9363
:103C20001F93DF93CF93CDB7DEB727970FB6F894E6
:103C3000DEBF0FBECDBF80E090E0BE016F5F7F4F63
:103C400040E050E020E030E000E010E00E94BF29BA
:103C50008E010D5F1F4F85E0F80111928A95E9F7FB
:103C600069817A8180E090E0A8012AE030E00E943A
:103C7000B42E8B81882311F160E0FE0134966F5FD2
:103C800081918823E1F770E0C80140E359E026E321
:103C900039E00E94320589EA92E00E94502CC80166
:103CA0000E94502C80E027960FB6F894DEBF0FBE1E
:103CB000CDBFCF91DF911F910F91089560E070E02B
:103CC000E3CFCF92DF92EF92FF920F931F93DF9398
:103CD000CF9300D0CDB7DEB79A838983CE0101960A
:103CE0000E940C278B019C0160E070E080E090E076
:103CF00040E050E0EE24FF24CC24DD240E94A12AE1
:103D000080E00F900F90CF91DF911F910F91FF9066
:103D1000EF90DF90CF900895CF92DF92EF92FF92D5
:103D20000F931F93DF93CF9300D0CDB7DEB79A8365
:103D30008983CE0101960E940C2740E050E000E00C
:103D400010E020E030E0EE24FF24CC24DD240E94AB
:103D5000A12A80E00F900F90CF91DF911F910F91DA
:103D6000FF90EF90DF90CF9008956F927F928F92A7
:103D70009F92AF92BF92CF92DF92EF92FF920F93FA
:103D80001F93DF93CF9300D0CDB7DEB79A8389839B
:103D90008E010F5F1F4FC8010E940C273B014C0191
:103DA000E981FA818081803231F43196FA83E983A6
:103DB00080818032D1F3C8010E940C275B016C0125
:103DC000E981FA818081803231F43196FA83E98386
:103DD00080818032D1F3C8010E940C277B018C01C5
:103DE000C401B301A60195010E94630980E00F9010
:103DF0000F90CF91DF911F910F91FF90EF90DF9087
:103E0000CF90BF90AF909F908F907F906F900895CC
:103E1000EF92FF920F931F93DF93CF9300D0CDB714
:103E2000DEB79A838983CE0101960E940C277B011D
:103E30008C0160E070E080E090E020E030E040E065
:103E400050E00E94630980E00F900F90CF91DF91C6
:103E50001F910F91FF90EF900895EF92FF920F93B3
:103E60001F93DF93CF9300D0CDB7DEB79A838983BA
:103E7000CE0101960E940C279B01AC0160E070E02E
:103E800080E090E0EE24FF2487010E94630980E037
:103E90000F900F90CF91DF911F910F91FF90EF90B6
:103EA0000895EF92FF920F931F93DF93CF9300D06B
:103EB000CDB7DEB79A838983CE0101960E940C2785
:103EC00020E030E040E050E0EE24FF2487010E9433
:103ED000630980E00F900F90CF91DF911F910F91B8
:103EE000FF90EF900895BF92CF92DF92EF92FF92F2
:103EF0000F931F93DF93CF93CDB7DEB767970FB6BE
:103F0000F894DEBF0FBECDBFE7E0CE2ED12CCC0E95
:103F1000DD1E81E1F60111928A95E9F77E01089490
:103F2000E11CF11C86017AE3B72EF701808190E055
:103F3000B80140E150E00E94D92E02C00F5F1F4F30
:103F4000F8019081892F80538A30C0F381538630E5
:103F5000A8F39154963090F3B1920894E11CF11CAF
:103F6000EC14FD0411F08F01E0CFF80110828F8175
:103F7000882339F160E0FE0138966F5F81918823D4
:103F8000E1F770E0C60140E359E026E339E00E9422
:103F900032058FEC92E00E94502CC6010E94502CFA
:103FA00080E067960FB6F894DEBF0FBECDBFCF910D
:103FB000DF911F910F91FF90EF90DF90CF90BF9016
:103FC000089560E070E0DECFDF92EF92FF920F93F2
:103FD0001F93DF93CF9300D000D0CDB7DEB78C0115
:103FE00049835A836B837C83A4E0EA2EF12CEC0E88
:103FF000FD1EFEE2DF2EF701808190E0B8014AE06D
:1040000050E00E94D92E02C00F5F1F4FF80180813F
:1040100080538A30C8F3F801D1920894E108F1087E
:10402000EC16FD0611F08F01E6CFF8011082C801F1
:104030000F900F900F900F90CF91DF911F910F91E4
:10404000FF90EF90DF9008950F931F93DF93CF932E
:10405000CDB7DEB728970FB6F894DEBF0FBECDBF41
:1040600098878F838E01095F1F4FC8010E94DB264E
:1040700069838F819885019698878F83C8010E94F4
:10408000DB266A838F819885019698878F83C80184
:104090000E94DB266B838F819885019698878F839A
:1040A000C8010E94DB266C838F81988501969887D2
:1040B0008F83C8010E94DB266D838F8198850196CE
:1040C00098878F83C8010E94DB266E838F81988535
:1040D000019698878F83CE0101960E94310780E078
:1040E00028960FB6F894DEBF0FBECDBFCF91DF91FB
:1040F0001F910F9108959F92AF92BF92CF92DF923E
:10410000EF92FF920F931F93DF93CF93CDB7DEB75C
:1041100067970FB6F894DEBF0FBECDBF80E090E08A
:1041200060E070E0AE014F5F5F4F20E030E000E004
:1041300010E00E94BF2929E0A22EB12CAC0EBD1EBA
:104140008FE0F50111928A95E9F789819A81AB8117
:10415000BC818D839E83AF83B88798E0E92EF12CD4
:10416000EC0EFD1E850184E0C82ED12CCC0EDD1E88
:10417000BEE29B2EF701808190E0B8014AE050E05A
:104180000E94D92E02C00F5F1F4FF801808180531B
:104190008A30C8F3F80191920894E108F108EC1410
:1041A000FD0411F08F01E6CFF80110828985882384
:1041B00049F160E0FE013A966F5F81918823E1F753
:1041C00070E0C50140E359E026E339E00E94320582
:1041D0008FED92E00E94502CC5010E94502C80E08F
:1041E00067960FB6F894DEBF0FBECDBFCF91DF91BB
:1041F0001F910F91FF90EF90DF90CF90BF90AF9005
:104200009F90089560E070E0DCCF9F92AF92BF92E4
:10421000CF92DF92EF92FF920F931F93DF93CF9392
:10422000CDB7DEB767970FB6F894DEBF0FBECDBF30
:10423000CE01019660E070E040E050E020E030E028
:1042400000E010E00E94BF2969E0A62EB12CAC0E60
:10425000BD1E8FE0F50111928A95E9F789819A8157
:10426000AB81BC818D839E83AF83B88758E0E52EF8
:10427000F12CEC0EFD1E850144E0C42ED12CCC0E99
:10428000DD1E3EE2932EF701808190E0B8014AE006
:1042900050E00E94D92E02C00F5F1F4FF8018081AD
:1042A00080538A30C8F3F80191920894E108F1082C
:1042B000EC14FD0411F08F01E6CFF801108289851E
:1042C000882349F160E0FE013A966F5F819188236F
:1042D000E1F770E0C50140E359E026E339E00E94D0
:1042E000320585E093E00E94502CC5010E94502CBD
:1042F00080E067960FB6F894DEBF0FBECDBFCF91BA
:10430000DF911F910F91FF90EF90DF90CF90BF90C2
:10431000AF909F90089560E070E0DCCF4F925F9285
:104320006F927F929F92AF92BF92CF92DF92EF9265
:10433000FF920F931F93DF93CF93CDB7DEB7C75490
:10434000D0400FB6F894DEBF0FBECDBFCE010196B0
:10435000BE016B5F7F4FAE01475F5F4F0E943A081F
:1043600029E1422E512C4C0E5D1E8FE2F20111927A
:104370008A95E9F789819A81AB81BC818D879E8777
:10438000AF87B88B90E1692E712C6C0E7D1E630196
:1043900082018CE0A82EB12CAC0EBD1EBEE29B2E7D
:1043A000F601808190E0B8014AE050E00E94D92EE9
:1043B00002C00F5F1F4FF801808180538A30C8F31D
:1043C000F80191927F010894C108D108CA14DB0456
:1043D00011F08F01E5CF80E2F80180838D819E810D
:1043E000AF81B885898B9A8BAB8BBC8BA4E1AA2E4D
:1043F000B12CAC0EBD1E6501FEE29F2EF601808140
:1044000090E0B7014AE050E00E94D92E03C0089422
:10441000E11CF11CF701808180538A30C0F3F70161
:1044200091928F010894C108D108C614D70411F0E5
:104430007F01E4CF80E2F701808389859A85AB858F
:10444000BC858D8B9E8BAF8BB88FE8E1EE2EF12C67
:10445000EC0EFD1E7EE2D72EF701808190E0B801C0
:104460004AE050E00E94D92E02C00F5F1F4FF801B2
:10447000808180538A30C8F3F801D1920894E10812
:10448000F108EA14FB0411F08F01E6CFF801108265
:10449000898D882371F160E0FE017A966F5F8191CA
:1044A0008823E1F770E0C20140E359E026E339E0F8
:1044B0000E94320589E293E00E94502CC2010E94C2
:1044C000502C80E0C95BDF4F0FB6F894DEBF0FBE03
:1044D000CDBFCF91DF911F910F91FF90EF90DF90B3
:1044E000CF90BF90AF909F907F906F905F904F90D4
:1044F000089560E070E0D7CF9F92AF92BF92CF92C5
:10450000DF92EF92FF920F931F93DF93CF93CDB77C
:10451000DEB767970FB6F894DEBF0FBECDBF80E061
:1045200090E060E070E0AE014F5F5F4F0E943A089C
:1045300069E0A62EB12CAC0EBD1E8FE0F5011192E4
:104540008A95E9F789819A81AB81BC818D839E83AD
:10455000AF83B88758E0E52EF12CEC0EFD1E8501E7
:1045600044E0C42ED12CCC0EDD1E3EE2932EF7018A
:10457000808190E0B8014AE050E00E94D92E02C04C
:104580000F5F1F4FF801808180538A30C8F3F80114
:1045900091920894E108F108EC14FD0411F08F01E8
:1045A000E6CFF80110828985882349F160E0FE0199
:1045B0003A966F5F81918823E1F770E0C50140E38F
:1045C00059E026E339E00E9432058AE393E00E9435
:1045D000502CC5010E94502C80E067960FB6F894CD
:1045E000DEBF0FBECDBFCF91DF911F910F91FF9026
:1045F000EF90DF90CF90BF90AF909F90089560E0D4
:1046000070E0DCCF9F92AF92BF92CF92DF92EF9299
:10461000FF920F931F93DF93CF93CDB7DEB76797CA
:104620000FB6F894DEBF0FBECDBF80E090E0BE01B4
:104630006F5F7F4F40E050E00E943A08A9E0AA2E49
:10464000B12CAC0EBD1E8FE0F50111928A95E9F7F1
:1046500089819A81AB81BC818D839E83AF83B8872A
:10466000F8E0EF2EF12CEC0EFD1E8501E4E0CE2EDD
:10467000D12CCC0EDD1E7EE2972EF701808190E0DA
:10468000B8014AE050E00E94D92E02C00F5F1F4FD0
:10469000F801808180538A30C8F3F8019192089420
:1046A000E108F108EC14FD0411F08F01E6CFF801E8
:1046B00010828985882349F160E0FE013A966F5F98
:1046C00081918823E1F770E0C50140E359E026E3DA
:1046D00039E00E94320586E493E00E94502CC50127
:1046E0000E94502C80E067960FB6F894DEBF0FBE94
:1046F000CDBFCF91DF911F910F91FF90EF90DF9091
:10470000CF90BF90AF909F90089560E070E0DCCFB5
:104710009F92AF92BF92CF92DF92EF92FF920F9350
:104720001F93DF93CF93CDB7DEB767970FB6F8949B
:10473000DEBF0FBECDBFCE01019660E070E040E06D
:1047400050E00E943A0829E0A22EB12CAC0EBD1E0A
:104750008FE0F50111928A95E9F789819A81AB8101
:10476000BC818D839E83AF83B88798E0E92EF12CBE
:10477000EC0EFD1E850184E0C82ED12CCC0EDD1E72
:10478000BEE29B2EF701808190E0B8014AE050E044
:104790000E94D92E02C00F5F1F4FF8018081805305
:1047A0008A30C8F3F80191920894E108F108EC14FA
:1047B000FD0411F08F01E6CFF8011082898588236E
:1047C00049F160E0FE013A966F5F81918823E1F73D
:1047D00070E0C50140E359E026E339E00E9432056C
:1047E00087E593E00E94502CC5010E94502C80E088
:1047F00067960FB6F894DEBF0FBECDBFCF91DF91A5
:104800001F910F91FF90EF90DF90CF90BF90AF90EE
:104810009F90089560E070E0DCCF4F925F927F92AE
:104820008F929F92AF92BF92CF92DF92EF92FF92C0
:104830000F931F93DF93CF93CDB7DEB7C557D0400B
:104840000FB6F894DEBF0FBECDBFCE010C96BE01F1
:10485000605F7F4FAE014C5E5F4F0E943A0834E4C8
:10486000832E912C8C0E9D1E82E3F40111928A9569
:10487000E9F78C859D85AE85BF8588A399A3AAA3FA
:10488000BBA323E2422E512C4C0E5D1E620184011B
:104890009FE1A92EB12CAC0EBD1E8EE2782EF60142
:1048A000808190E0B8014AE050E00E94D92E02C019
:1048B0000F5F1F4FF801808180538A30C8F3F801E1
:1048C00071927F010894C108D108CA14DB0411F069
:1048D0008F01E5CF80E2F801808388899989AA89D0
:1048E000BB898CA39DA3AEA3BFA307E2A02EB12CCE
:1048F000AC0EBD1E65011EE2712EF601808190E0B6
:10490000B7014AE050E00E94D92E03C00894E11C90
:10491000F11CF701808180538A30C0F3F701719256
:104920008F010894C108D108C414D50411F07F0187
:10493000E4CF80E2F70180838C899D89AE89BF89AD
:1049400088A799A7AAA7BBA7BBE24B2E512C4C0E58
:104950005D1E7201AEE2DA2EF701808190E0B801AF
:104960004AE050E00E94D92E02C00F5F1F4FF801AD
:10497000808180538A30C8F3F801D1920894E1080D
:10498000F108EA14FB0411F08F01E6CFF801108260
:10499000F4018081882309F4C6C160E0F4013196F6
:1049A0006F5F81918823E1F770E0C40140E359E033
:1049B00026E339E00E94320586E693E00E94502CFF
:1049C0008AE793E00E94502C8FE893E00E94502CDD
:1049D000C4010E94502C8E010C5C1F4FC8010E9424
:1049E000F706F401108278018401FAE3CF2ED12C6E
:1049F000CC0EDD1EEAE3BE2EF701808190E0B80107
:104A000040E150E00E94D92E02C00F5F1F4FF80115
:104A10009081892F80538A30C0F381538630A8F368
:104A20009154963090F3B1920894E11CF11CEC146F
:104A3000FD0411F08F01E0CFF801108280EA93E0CD
:104A40000E94502C85EB93E00E94502CC4010E94E0
:104A5000502C1D821C8219821A821B82CE01049660
:104A6000BE016F5F7F4FAE014E5F5F4F9E012D5FB6
:104A70003F4F0E94060C8A818F5F8A838B818B5FF8
:104A80008B8384EC93E00E94502C89ED93E00E948C
:104A9000502C6C817D8180E090E0A7012AE030E01D
:104AA0000E94B42EC7010E94502C80E094E00E9426
:104AB000502C698170E080E090E0A7012AE030E0AE
:104AC0000E94B42EC7010E94502C80E094E00E9406
:104AD000502C6A8170E080E090E0A7012AE030E08D
:104AE0000E94B42EC7010E94502C80E094E00E94E6
:104AF000502C6B8170E080E090E0A7012AE030E06C
:104B00000E94B42EC7010E94502C83E094E00E94C2
:104B1000502C2C813D812F5F3F4F22953295307F65
:104B20003227207F322740E050E060E070E081EEE5
:104B300090E00E941E2FCA01B901A7012AE030E0CF
:104B40000E94B42EC7010E94502C8AE294E00E9479
:104B5000502C8981813009F4E1C0813008F450C0C3
:104B6000823009F4D6C0833021F483E894E00E94B7
:104B7000502CCE014896BE016A5F7F4FAE01445E65
:104B80005F4F9E01285F3F4F8E01065F1F4F0E94BF
:104B9000BF2980EA94E00E94502C85EB94E00E94AB
:104BA000502C81E092E00E94502C888D998DAA8D26
:104BB000BB8D8CA79DA7AEA7BFA76FE2A62EB12C79
:104BC000AC0EBD1E750184015EE2D52EF701808119
:104BD00090E0B8014AE050E00E94D92E02C00F5F79
:104BE0001F4FF801808180538A30C8F3F801D192B9
:104BF0000894E108F108E414F50439F08F01E6CFD8
:104C000081E494E00E94502CB4CFF8011082C401DA
:104C10000E94502C86ED94E00E94502C6E817F8182
:104C200080E090E0A4012AE030E00E94B42EC401AC
:104C30000E94502C86ED94E00E94502C8C8D9D8D0E
:104C4000AE8DBF8D88AB99ABAAABBBAB43E3E42E73
:104C5000F12CEC0EFD1E84013EE2D32EF701808183
:104C600090E0B8014AE050E00E94D92E02C00F5FE8
:104C70001F4FF801808180538A30C8F3F801D19228
:104C80000894E108F108EA14FB0411F08F01E6CF63
:104C9000F8011082C4010E94502C86ED94E00E941D
:104CA000502C6885798580E090E0A4012AE030E00E
:104CB0000E94B42EC4010E94502C86ED94E00E9404
:104CC000502C6A857B8580E090E0A4012AE030E0EA
:104CD0000E94B42EC4010E94502C81E092E00E94F8
:104CE000502C80E0CB58DF4F0FB6F894DEBF0FBEDC
:104CF000CDBFCF91DF911F910F91FF90EF90DF908B
:104D0000CF90BF90AF909F908F907F905F904F908B
:104D1000089585E694E00E94502C2BCF83E594E023
:104D20000E94502C26CF60E070E03FCEAF92BF9241
:104D3000DF92EF92FF920F931F93CF93DF935C016B
:104D4000FC01C081D181D8808D2D80538A3078F5C7
:104D5000EE24FF248701C801B7012AE030E040E0DB
:104D600050E00E94FF2E2D2D332727FD3095205334
:104D7000304079010027F7FC0095102FE60EF71E52
:104D8000081F191F2196D8808D2D80538A3018F363
:104D9000F501D183C083B701C801DF91CF911F9185
:104DA0000F91FF90EF90DF90BF90AF900895EE24A9
:104DB000FF248701EDCFDC01ED91FC91119780E09C
:104DC00020E030E040E050E0220F331F441F551F29
:104DD000220F331F441F551F220F331F441F551F1F
:104DE000220F331F441F551F280F311D411D511D18
:104DF0009081892F80538A3040F08153863020F093
:104E0000892F8154863018F4865F3196DDCFED937B
:104E1000FC93B901CA0108954F925F926F927F92FD
:104E20008F929F92AF92BF92CF92DF92EF92FF92BA
:104E30000F931F93DF93CF93CDB7DEB728970FB6AD
:104E4000F894DEBF0FBECDBF2C01DC01AD90BC904D
:104E5000F501D0808D2D80538A3008F002C1EE24F8
:104E6000FF248701C801B7012AE030E040E050E0AC
:104E70000E94FF2E2D2D332727FD309520533040E3
:104E800079010027F7FC0095102FE60EF71E081F8A
:104E9000191F0894A11CB11CD501DC908D2D8053E5
:104EA0008A3000F39E2C882477246624BEE2DB1629
:104EB000E9F020E030E040E050E0B901CA01289676
:104EC0000FB6F894DEBF0FBECDBFCF91DF911F911B
:104ED0000F91FF90EF90DF90CF90BF90AF909F9099
:104EE0008F907F906F905F904F9008956501089428
:104EF000C11CD11CF501B1808B2D80538A3008F084
:104F0000B4C0EE24FF248701C801B7012AE030E0D5
:104F100040E050E00E94FF2E2B2D332727FD3095D7
:104F20002053304079010027F7FC0095102FE60E42
:104F3000F71E081F191F0894C11CD11CD601BC9074
:104F40008B2D80538A3000F3D701992788278983D6
:104F50009A83AB83BC839EE2B91609F0AACF5601AF
:104F60000894A11CB11CD6011196DC908D2D8053A4
:104F70008A3008F07FC0EE24FF248701C801B70102
:104F80002AE030E040E050E00E94FF2E2D2D332734
:104F900027FD30952053304079010027F7FC00951C
:104FA000102FE60EF71E081F191F0894A11CB11C34
:104FB000F501D0808D2D80538A3000F3B02FAF2DB6
:104FC0009E2D88278D839E83AF83B8879EE2D91656
:104FD00009F06FCF65010894C11CD11CD501119651
:104FE000BC908B2D80538A3008F049C0EE24FF24FA
:104FF0008701C801B7012AE030E040E050E00E949C
:10500000FF2E2B2D332727FD30952053304079017B
:105010000027F7FC0095102FE60EF71E081F191F3A
:105020000894C11CD11CF601B0808B2D80538A30AE
:1050300000F329813A814B815C812629372948294F
:1050400059298D819E81AF81B885282B392B4A2B18
:105050005B2B2E293F29402B512BD201CD92DC9284
:105060002CCF66247724430121CF19821A821B8218
:105070001C8271CF1D821E821F821886A7CFEE244C
:10508000FF248701D6CF1F93CF93DF93EC01162F18
:105090000E94F31A882309F084C0123008F4D2C0A9
:1050A00089818F3361F0FE0191E004C082813196E5
:1050B0008F3319F09F5F9117C8F3911719F088810A
:1050C0008A33A9F08DE195E00E94502CCE010E9418
:1050D000502C81E495E06DE070E040E359E026E378
:1050E00039E00E943205DF91CF911F9108956091C0
:1050F0001707709118076115710509F43DC050E05C
:10510000A0E0B0E01AE3AA0FBB1FAA0FBB1FAB5E63
:10511000B84F0D90BC91A02D4C91842F81278F7595
:1051200009F05BC090E002C0E03279F09F5F292F68
:1051300030E0FD01E20FF31F4081FE01E20FF31F9B
:10514000E0818E2F84278F7579F3442331F4E03288
:1051500009F447C0EF3309F444C05F5FA52FB0E006
:10516000FD01EE0FFF1FEE0FFF1FE95EF84F60819C
:1051700071816115710539F68DE895E00E94502C1A
:10518000CE010E94502C85EB95E064E270E040E394
:1051900059E026E339E00E943205DF91CF911F915B
:1051A000089588ED94E069E170E040E359E026E37A
:1051B00039E00E94320582EF94E065E070E040E360
:1051C00059E026E339E00E94320588EF94E00E941E
:1051D000502CDF91CF911F910895EAE320E030E059
:1051E000B4CFDE01A20FB31F8C91803241F4F901DC
:1051F0003196EC0FFD1FDF0181918032E1F3CD018B
:10520000FB010995882379F48FE495E063E070E071
:1052100040E359E026E339E00E94320583E595E05A
:105220000E94502C60CF82EF94E065E070E040E394
:1052300059E026E339E00E9432058FE695E00E94AE
:10524000502C51CF91E039CF9C01E199FECF3FBB6B
:105250002EBBE09A8DB308959C01E199FECF3FBB30
:105260002EBB6DBB0FB6F894E29AE19A0FBE08957B
:10527000AF92BF92CF92DF92EF92FF920F931F9364
:10528000DF93CF9300D000D0CDB7DEB75C017B01B8
:10529000042F10E08CE2C82E89E2D82EC501A801A7
:1052A00096010E94772EC701B8010E949B1A9A832B
:1052B0008983809590959C838B83C501800F911F76
:1052C000BE016F5F7F4F44E050E096010E94772E51
:1052D0000F900F900F900F90CF91DF911F910F9132
:1052E000FF90EF90DF90CF90BF90AF900895CF9256
:1052F000DF92EF92FF920F931F93DF93CF9300D033
:1053000000D0CDB7DEB78C016B01E199FECFE42E62
:10531000FF24C601B801A70124E239E20E945B2EF6
:105320000E0D1F1DCE010196B80144E050E024E2AD
:1053300039E20E945B2E8B819C818095909529811A
:105340003A812817390779F040E0842F0F900F90A9
:105350000F900F90CF91DF911F910F91FF90EF90E1
:10536000DF90CF900895C601B7010E949B1A40E0DC
:1053700029813A818217930741F741E0E6CF4F92A6
:105380005F926F927F928F929F92AF92BF92CF92D5
:10539000DF92EF92FF920F931F93DF93CF93CDB7DE
:1053A000DEB762970FB6F894DEBF0FBECDBF6C01BB
:1053B0005B014A0139012801E199FECF8E010B5FA3
:1053C0001F4FC80160E074E04EE050E024E239E293
:1053D0000E945B2ECE0101966EE074E044E050E046
:1053E00024E239E20E945B2E8B819C81809590950E
:1053F00029813A812817390709F497C0D801EAE2D0
:10540000F9E08EE001900D928150E1F7C114D104D2
:1054100069F12D813E814F815885122F0027FF248D
:10542000EE24852F9927AA27BB27E82AF92A0A2BD9
:105430001B2BDA01C90180709070B070892F9A2FF0
:10544000AB2FBB27E82AF92A0A2B1B2B20704070B0
:105450005070542F432F322F2227E22AF32A042B95
:10546000152BF601E082F18202831383A114B104AB
:1054700029F089859A85F5019183808381149104AF
:1054800069F12B853C854D855E85122F0027FF2411
:10549000EE24852F9927AA27BB27E82AF92A0A2B69
:1054A0001B2BDA01C90180709070B070892F9A2F80
:1054B000AB2FBB27E82AF92A0A2B1B2B2070407040
:1054C0005070542F432F322F2227E22AF32A042B25
:1054D000152BF401E082F1820283138361147104BD
:1054E00029F08F859889F3019183808341145104B9
:1054F00029F089899A89F2019183808362960FB697
:10550000F894DEBF0FBECDBFCF91DF911F910F91F9
:10551000FF90EF90DF90CF90BF90AF909F908F90D3
:105520007F906F905F904F900895C8016EE070E09B
:105530000E949B1A29813A818217930709F05ECF56
:1055400065CF2F923F924F925F926F927F928F9290
:105550009F92AF92BF92CF92DF92EF92FF920F9302
:105560001F93DF93CF93CDB7DEB762970FB6F89452
:10557000DEBF0FBECDBF4B015C011A01280139010E
:10558000E199FECF8E010B5F1F4FC80160E074E010
:105590004EE050E024E239E20E945B2ECE010196FB
:1055A0006EE074E044E050E024E239E20E945B2EB9
:1055B0008B819C818095909529813A8128173907A4
:1055C00009F4B3C0D801EAE2F9E08EE001900D924F
:1055D0008150E1F781149104A104B10469F1582DBF
:1055E0004427332722278B2D9927AA27BB27282B2F
:1055F000392B4A2B5B2BD501C40180709070B070A1
:10560000892F9A2FAB2FBB27282B392B4A2B5B2BAB
:1056100080E09FEFA0E0B0E088229922AA22BB227E
:10562000BA2DA92D982D8827282B392B4A2B5B2B97
:105630002D833E834F8358872114310411F03A861D
:105640002986411451046104710469F1542D4427E1
:1056500033272227872D9927AA27BB27282B392BC9
:105660004A2B5B2BD301C20180709070B070892FE0
:105670009A2FAB2FBB27282B392B4A2B5B2B80E093
:105680009FEFA0E0B0E0482259226A227B22B62D8B
:10569000A52D942D8827282B392B4A2B5B2B2B8764
:1056A0003C874D875E87E114F10411F0F88AEF869C
:1056B000C114D10411F0DA8AC98A80E094E0B801FB
:1056C0004EE050E02CE239E20E94772EC8016EE0F5
:1056D00070E00E949B1A9A838983809590959C83A1
:1056E0008B838EE094E0BE016F5F7F4F44E050E01B
:1056F0002CE239E20E94772E62960FB6F894DEBF54
:105700000FBECDBFCF91DF911F910F91FF90EF9012
:10571000DF90CF90BF90AF909F908F907F906F90D1
:105720005F904F903F902F900895C8016EE070E019
:105730000E949B1A29813A818217930709F042CF70
:1057400049CFDF93CF9300D000D0CDB7DEB7E1993A
:10575000FECF8AE299E060E074E04EE050E024E29F
:1057600039E20E945B2ECE0101966EE074E044E0C7
:1057700050E024E239E20E945B2E8B819C8180956F
:10578000909529813A812817390769F121E835E494
:1057900040EB5DE720932A0930932B0940932C09B5
:1057A00050932D0981E69EE190932F0980932E0955
:1057B00020933009309331094093320950933309D3
:1057C00082E69EE1909335098093340982E097ED5B
:1057D00090933709809336090F900F900F900F9098
:1057E000CF91DF9108958AE299E06EE070E00E9427
:1057F0009B1A29813A818217930741F6EDCF8A9A45
:105800008B98929AEBE9F0E080818D7F808387E02E
:10581000809399001092980088EF80939A0086E018
:1058200080939D0085E083BF87B7816087BF82E654
:1058300099E090938B0980938A090895982F80911D
:105840009B0085FFFCCF90939C00089580919B0066
:1058500087FFFCCF80919C0008951F920F920FB696
:105860000F920BB60F9211248F93EF93FF93EAE9F7
:10587000F0E080818F7D8083FF91EF918F910F9079
:105880000BBE0F900FBE0F901F9018951F920F9296
:105890000FB60F9211240F900FBE0F901F90189506
:1058A000FC019081992351F080919B0085FFFCCFF2
:1058B00090939C00918131969923B1F708951F939D
:1058C000CF93DF93EC01162F6DE877E00E944B2E0B
:1058D0000097B1F4E4E9F7E092E480919B0085FF42
:1058E000FCCF90939C0091919923B9F71092E40713
:1058F0001092E3070E94110EDF91CF911F9108953E
:10590000CE0160EB77E00E944B2E0097B1F4E7EBFD
:10591000F7E092E480919B0085FFFCCF90939C0080
:1059200091919923B9F781E090E09093E4078093F7
:10593000E307DF91CF911F91089581E08093600983
:1059400088E399E0BE010E94542E10936109D4CFE0
:105950001F920F920FB60F920BB60F9211241F9346
:105960002F933F934F935F936F937F938F939F9367
:10597000AF93BF93CF93DF93EF93FF9380919B00FF
:1059800087FFFCCF90919C0080919B0085FFFCCF0E
:1059900090939C009D3021F1E0918A09F0918B0950
:1059A000908380918A0990918B09019690938B093D
:1059B00080938A09FF91EF91DF91CF91BF91AF91D1
:1059C0009F918F917F916F915F914F913F912F9117
:1059D0001F910F900BBE0F900FBE0F901F90189548
:1059E000E0918A09F0918B09108210918A09C2E630
:1059F000D9E0CE016DE877E00E944B2E009719F5B3
:105A0000E4E9F7E092E480919B0085FFFCCF90935E
:105A10009C0091919923B9F71092E4071092E30743
:105A20000E94110EE5EDF7E09EE680919B0085FF58
:105A3000FCCF90939C0091919923B9F7D0938B0957
:105A4000C0938A09B7CFCE0160EB77E00E944B2E5E
:105A5000009799F4E7EBF7E092E480919B0085FFD3
:105A6000FCCF90939C0091919923B9F781E090E04D
:105A70009093E4078093E307D5CF81E0809360099A
:105A800088E399E0BE010E94542E1C1B109361090B
:105A9000C9CFCF93DF93BC018230910510F462E04F
:105AA00070E0A0918E09B0918F09ED01E0E0F0E087
:105AB00040E050E021C0888199818617970769F4FA
:105AC0008A819B81309719F09383828304C09093DD
:105AD0008F0980938E09FE0134C06817790738F466
