:100000000C9446000C9466000C9466000C946600F8
:100010000C9466000C9466000C9466000C946600C8
:100020000C9466000C9466000C9466000C946600B8
:100030000C9466000C9466000C9466000C946600A8
:100040000C943E100C9466000C9406120C944C1206
:100050000C9466000C9466000C9466000C94660088
:100060000C9466000C9466000C9466000C94660078
:100070000C9466000C9466000C94B92D0C943E2DE3
:100080000C94572D0C9466000C94660011241FBE2E
:10009000CFEFD0E1DEBFCDBF18E0A0E0B1E0E4E2F9
:1000A000F1E600E00BBF02C007900D92A433B10748
:1000B000D9F71BBE19E0A4E3B8E001C01D92A53E2C
:1000C000B107E1F70E9468000C9490300C94000096
:1000D000F894109238081092370881E085BF15BE59
:1000E0000E94B22C0E94090D0E94120D0E94560718
:1000F0000E94C80C80E090E060E00E94102D0E94F9
:10010000AC1A78940E94D40D0E94950C0E94F607B8
:100110008091370890913808892BA1F380E091E015
:100120000E94612DEFCF0F931F93CF93DF93FC01BC
:10013000162F072F208131814281538180916D08D4
:1001400090916E08A0916F08B09170088217930784
:10015000A407B50709F472C0809162089091630802
:10016000A0916408B091650882179307A407B507AA
:1001700009F492C09091710880916608981708F070
:1001800054C0ECE5F8E08091570890915808A09190
:100190005908B0915A0882179307A407B50709F4C4
:1001A00072C0928580915B089817E0F180914C08AD
:1001B00090914D08A0914E08B0914F088217930777
:1001C000A407B50709F462C092858091500898177A
:1001D00078F18091410890914208A0914308B09134
:1001E000440882179307A407B50709F452C0928503
:1001F000809145089817F8F0268337834087518708
:10020000EF01812F902F9C01D90186E00D9009927A
:100210008150E1F78FEF828780E0DF91CF911F91CE
:100220000F910895E1E5F8E0C1CFE7E6F8E0ABCF44
:10023000E6E4F8E0CECFEBE3F8E0DECF44E050E0D8
:10024000BA01660F771FEA01CC0FDD1FCC0FDD1F4F
:10025000CC0FDD1FFB01EC0FFD1FE40FF51FE55C6C
:10026000F74F812F902F9C01D90186E00D900192CC
:100270008150E1F7C60FD71FC40FD51FC55CD74FFC
:100280008FEF8A87C9CF42E050E0DACF41E050E0FB
:10029000D7CF40E050E0D4CF43E050E0D1CF109230
:1002A00071081092660810925B0810925008109224
:1002B000450880E797E160E671E00E94290D089506
:1002C00080917108882319F0815080937108809182
:1002D0006608882319F081508093660880915B0836
:1002E000882319F0815080935B08809150088823FF
:1002F00019F081508093500880914508882319F0A7
:1003000081508093450880E797E160E671E00E94A4
:10031000290D0895AF92BF92CF92DF92EF92FF9294
:100320000F931F93DF93CF9300D000D000D0CDB7B1
:10033000DEB75C018B016A016CE170E00E94261956
:100340007C0180E091E0F7019183808388E090E078
:100350009383828386E0848384E08583F8018081AF
:100360009181A281B381F701808F918FA28FB38F8A
:100370000E94F406D7011896FC0186E001900D92C8
:100380008150E1F70E943708FC0180819181A281B0
:10039000B381F70186879787A08BB18BC114D104F5
:1003A00021F180E092E0F70197838683D70152968E
:1003B000F60186E001900D928150E1F7C50168E0F9
:1003C00076E0A6010E94BF0726960FB6F894DEBF1E
:1003D0000FBECDBFCF91DF911F910F91FF90EF9096
:1003E000DF90CF90BF90AF90089580E091E0978329
:1003F0008683128A138A148A158A168A178AAE018E
:100400004F5F5F4FDA01E8E0F1E086E001900D9286
:100410008150E1F7C50168E076E00E94BF07D4CFC4
:10042000AF92BF92CF92DF92EF92FF920F931F9302
:10043000DF93CF9300D000D000D0CDB7DEB78C01D2
:100440006B010E9466195C016CE170E00E94261944
:100450007C0180E091E0F7019183808388E090E067
:100460009383828386E0848384E08583F80180819E
:100470009181A281B381F701808F918FA28FB38F79
:100480000E94F406D7011896FC0186E001900D92B7
:100490008150E1F70E943708FC0180819181A2819F
:1004A000B381F70186879787A08BB18BC114D104E4
:1004B00021F180E092E0F70197838683D70152967D
:1004C000F60186E001900D928150E1F7C50168E0E8
:1004D00076E0A6010E94BF0726960FB6F894DEBF0D
:1004E0000FBECDBFCF91DF911F910F91FF90EF9085
:1004F000DF90CF90BF90AF90089580E091E0978318
:100500008683128A138A148A158A168A178AAE017C
:100510004F5F5F4FDA01E8E0F1E086E001900D9275
:100520008150E1F7C50168E076E00E94BF07D4CFB3
:10053000EF92FF920F931F93DF93CF93CDB7DEB768
:100540006C970FB6F894DEBF0FBECDBF8C010E9432
:10055000B7184C9768F46C960FB6F894DEBF0FBED0
:10056000CDBFCF91DF911F910F91FF90EF90089534
:10057000C801BE016F5F7F4F4CE150E00E94C2187E
:1005800089819A818050914031F78B819C810897B5
:1005900011F78D818630F9F68E818430E1F6E98C91
:1005A000FA8C0B8D1C8D0E943708FC018081918193
:1005B000A281B381E816F9060A071B0761F68F814D
:1005C000988521E08030920789F08050924009F0B0
:1005D000C2CF3FE0E32EF12CEC0EFD1E8E01075F33
:1005E0001F4FC701B8010E949300B5CF2FE0E22E44
:1005F000F12CEC0EFD1E8E01075F1F4FC701B801E5
:100600000E941002EECFCF92DF92EF92FF920F93F3
:100610001F93DF93CF9300D000D000D0CDB7DEB7CB
:100620008C010E9466196C016CE170E00E94261931
:100630007C0180E091E0F7019183808388E090E085
:100640009383828386E0848384E08583F8018081BC
:100650009181A281B381F701808F918FA28FB38F97
:100660000E94F406D7011896FC0186E001900D92D5
:100670008150E1F70E943708FC0180819181A281BD
:10068000B381F70186879787A08BB18B80E091E0DB
:1006900097838683128A138A148A158A168A178A80
:1006A000AE014F5F5F4FDA01E8E0F1E086E00190D4
:1006B0000D928150E1F7C60168E076E00E94BF0725
:1006C00026960FB6F894DEBF0FBECDBFCF91DF9157
:1006D0001F910F91FF90EF90DF90CF900895CF92F0
:1006E000DF92EF92FF920F931F93DF93CF9300D08F
:1006F00000D000D0CDB7DEB77C01DC012D913D915B
:100700004D915C9180916D0890916E08A0916F0859
:10071000B091700882179307A407B50709F4C0C009
:100720008091620890916308A0916408B091650877
:1007300082179307A407B50709F4B5C0809157083D
:1007400090915808A0915908B0915A0882179307C0
:10075000A407B50709F4AAC080914C0890914D08F0
:10076000A0914E08B0914F0882179307A407B507D0
:1007700009F49FC08091410890914208A0914308DC
:10078000B091440882179307A407B50709F451C034
:100790000E9466196C016CE170E00E9426198C01C0
:1007A00080E091E0F8019183808388E090E093837A
:1007B000828386E0848384E08583F7018081918150
:1007C000A281B381F801808F918FA28FB38F0E9495
:1007D000F406D8011896FC0186E001900D92815034
:1007E000E1F70E943708FC0180819181A281B381E9
:1007F000F80186879787A08BB18B80E091E0978383
:100800008683128A138A148A158A168A178AAE0179
:100810004F5F5F4FDA01E8E0F1E086E001900D9272
:100820008150E1F7C60168E076E00E94BF0781E0F1
:1008300028C040E050E08A01000F111F7A01EE0C41
:10084000FF1CEE0CFF1CEE0CFF1CF801EE0DFF1D53
:10085000E40FF51F9B01E55CF74F86E00190D9019D
:100860000D929D018150D1F7E00EF11EE40EF51EB0
:10087000EBE3F8E0EE0EFF1E8FEFD7011A968C9394
:1008800080E026960FB6F894DEBF0FBECDBFCF91A5
:10089000DF911F910F91FF90EF90DF90CF9008951F
:1008A00044E050E0C8CF43E050E0C5CF42E050E024
:1008B000C2CF41E050E0BFCF0895EF92FF920F9377
:1008C0001F93DF93CF93CDB7DEB766970FB6F8943B
:1008D000DEBF0FBECDBF7C010E94B7180C9768F435
:1008E00066960FB6F894DEBF0FBECDBFCF91DF91F5
:1008F0001F910F91FF90EF900895C701BE01655FB2
:100900007F4F4CE050E00E94C2188C858D3419F165
:10091000853231F7C701BE016F5F7F4F4AE050E07B
:100920000E94C21889818823D9F290E00E944E2E3D
:10093000182F092F4981C701612F702F50E00E94A5
:10094000C218682F812F902F0E945429812F902F39
:100950000E94F82EC5CFC701BE016F5F7F4F4AE0EE
:1009600050E00E94C2188981882309F4B9CF90E031
:100970000E944E2E182F092F4981C701612F702F19
:1009800050E00E94C218682F812F902F0E94B71A42
:10099000812F902F0E94F82EA3CF6F927F928F927B
:1009A0009F92AF92BF92CF92DF92EF92FF920F93FE
:1009B0001F935C01162F4A0139016CE070E00E9420
:1009C00026196C0180E8F601808311830E940C0DCA
:1009D000162F0027FF24EE24292F332744275527DD
:1009E000E22AF32A042B152B9B01AC0120703070F6
:1009F0005070232F342F452F5527E22AF32A042B3A
:100A0000152B607080709070982F872F762F662737
:100A1000E62AF72A082B192BF601E482F5820683D1
:100A20001783108611861286138680917308909121
:100A3000740892838383019690937408809373085B
:100A4000C501B401A3010E94CA0B1F910F91FF9031
:100A5000EF90DF90CF90BF90AF909F908F907F905E
:100A60006F9008956F927F928F929F92AF92BF92F4
:100A7000CF92DF92EF92FF920F931F93CF93DF936A
:100A80008C01EB014A0139010E9466195C01209733
:100A900009F47EC0BE01665F7F4F0E942619FC01EB
:100AA000C0831182128213821482158216821782E9
:100AB000108611869E0121503040D801A20FB31F2D
:100AC000EC0FFD1F02C0215030408C91818711979F
:100AD000319721153105B9F7C5016CE070E00E942E
:100AE00026196C0180E8F601808385E281830E94EB
:100AF0000C0D162F0027FF24EE24292F332744271F
:100B00005527E22AF32A042B152B9B01AC012070F8
:100B100030705070232F342F452F5527E22AF32AA7
:100B2000042B152B607080709070982F872F762F74
:100B30006627E62AF72A082B192BD6011496ED9280
:100B4000FD920D931C931797E601188619861A8655
:100B50001B8680917308909174089A838B83019609
:100B60009093740880937308C501B401A3010E9497
:100B7000CA0BDF91CF911F910F91FF90EF90DF9003
:100B8000CF90BF90AF909F908F907F906F9008957F
:100B900063E170E00E942619FC011082118212822A
:100BA0001382148215821682178210861186DC0148
:100BB0001A96E801888518968C9318978F81179656
:100BC0008C9317978E8116968C9316978D81159618
:100BD0008C9315978C8114968C9314978B81139614
:100BE0008C9313978A8112968C9312978981119610
:100BF0008C938881828770CF6F927F928F929F9221
:100C0000AF92BF92CF92DF92EF92FF920F931F931A
:100C1000CF93DF938C01EB014A0139016115710516
:100C200009F47DC00E9466195C0160EA70E00E94D0
:100C30002619FC01C083118212821382148215824C
:100C400016821782108611869E0121503040D801ED
:100C5000A20FB31FEC0FFD1F02C0215030408C913A
:100C600081871197319721153105B9F7C5016CE0DE
:100C700070E00E9426196C0180E8F60180838DE403
:100C800081830E940C0D162F0027FF24EE24292FAC
:100C9000332744275527E22AF32A042B152B9B01DF
:100CA000AC01207030705070232F342F452F552702
:100CB000E22AF32A042B152B607080709070982F15
:100CC000872F762F6627E62AF72A082B192BF6019D
:100CD000E482F582068317831086118612861386B6
:100CE0008091730890917408928383830196909306
:100CF000740880937308C501B401A3010E94CA0B54
:100D0000DF91CF911F910F91FF90EF90DF90CF90E7
:100D1000BF90AF909F908F907F906F9008950E94AA
:100D20006619EC0160EA70E00E942619FC0110824D
:100D30001182128213821482158216821782108603
:100D400011863A96AEE0B1E089E00D9001928150B3
:100D5000E1F7CE016CE070E00E9426196C0180E89A
:100D6000F60180838DE481830E940C0D162F0027ED
:100D7000FF24EE24292F332744275527E22AF32A7C
:100D8000042B152B9B01AC01207030705070232F69
:100D9000342F452F5527E22AF32A042B152B607098
:100DA00080709070982F872F762F6627E62AF72A73
:100DB000082B192BF601E482F5820683178310862F
:100DC000118612861386809173089091740892831D
:100DD000838301969093740880937308CE01B401C5
:100DE000A3010E94CA0B8CCF88E191E00895EF9295
:100DF000FF920F931F93DF93CF9300D000D000D0CA
:100E0000CDB7DEB78C0180E092E07E010894E11C52
:100E1000F11CB70146E00E94882A882341F4D701DB
:100E2000E8E1F1E086E001900D928150E1F78981DF
:100E3000F80180838A8181838B8182838C81838383
:100E40008D8184838E81858326960FB6F894DEBFCC
:100E50000FBECDBFCF91DF911F910F91FF90EF900B
:100E60000895DF93CF9300D000D000D0CDB7DEB788
:100E7000FC018081898381818A8382818B83838144
:100E80008C8384818D8385818E8380E092E0BE0196
:100E90006F5F7F4F46E00E94492A26960FB6F8946E
:100EA000DEBF0FBECDBFCF91DF9108950F931F938B
:100EB000DF93CF9300D000D000D0CDB7DEB780E075
:100EC00092E08E010F5F1F4FB80146E00E94882A12
:100ED000882341F0A8E1B1E0F80186E001900D928D
:100EE0008150E1F788E191E00E9490190E944F0142
:100EF0000E94220926960FB6F894DEBF0FBECDBF22
:100F0000CF91DF911F910F9108950F931F93DF935E
:100F1000CF93CDB7DEB72E970FB6F894DEBF0FBED6
:100F2000CDBF8C010E94B7180E9758F42E960FB6BD
:100F3000F894DEBF0FBECDBFCF91DF911F910F910F
:100F40000895C801BE016F5F7F4F4EE050E00E94E0
:100F5000C2188D859E858830910551F08850964045
:100F600029F7C801BE01695F7F4F0E949802DECF5A
:100F7000C801BE01695F7F4F0E94140BD7CFCF928B
:100F8000DF92EF92FF920F931F93CF93DF937C0139
:100F90006B01142F052F6EE070E00E942619FC01F2
:100FA000EC01212F302FC901DC0186E00D90099260
:100FB0008150E1F7EF012696A8E1B1E086E00D90BF
:100FC00009928150E1F7D586C486C70160E00E948E
:100FD0002F1AC7010E94031980E0DF91CF911F9162
:100FE0000F91FF90EF90DF90CF9008950F931F9394
:100FF000DF93CF93CDB7DEB72E970FB6F894DEBF51
:101000000FBECDBF0E946E198C01009739F00E946F
:10101000B7180E9770F4C8010E94E0182E960FB60C
:10102000F894DEBF0FBECDBFCF91DF911F910F911E
:101030000895C801BE016F5F7F4F4EE050E00E94EF
:10104000C2188D859E858830910551F08850964054
:1010500011F7C801BE01695F7F4F0E949802DBCF84
:10106000C801BE01695F7F4F0E94140BD4CF8EE18F
:1010700091E008958F929F92AF92BF92CF92DF92AC
:10108000EF92FF920F931F93DF93CF93CDB7DEB70D
:101090002C970FB6F894DEBF0FBECDBF6C015B017D
:1010A0004A0180E091E0BE016F5F7F4F4CE00E94FB
:1010B000882A882321F580911E0190911F01A0911B
:1010C0002001B091210189839A83AB83BC838091F5
:1010D000260190912701A0912801B09129018D83CB
:1010E0009E83AF83B8878091220190912301A091C4
:1010F0002401B091250189879A87AB87BC87C114E9
:10110000D10469F129813A814B815C81122F00273A
:10111000FF24EE24852F9927AA27BB27E82AF92A3E
:101120000A2B1B2BDA01C90180709070B070892FD7
:101130009A2FAB2FBB27E82AF92A0A2B1B2B2070EA
:1011400040705070542F432F322F2227E22AF32A67
:10115000042B152BF601E082F18202831383A11484
:10116000B10469F12D813E814F815885122F0027EE
:10117000FF24EE24852F9927AA27BB27E82AF92ADE
:101180000A2B1B2BDA01C90180709070B070892F77
:101190009A2FAB2FBB27E82AF92A0A2B1B2B20708A
:1011A00040705070542F432F322F2227E22AF32A07
:1011B000042B152BF501E082F18202831383811445
:1011C000910469F129853A854B855C85122F0027AA
:1011D000FF24EE24852F9927AA27BB27E82AF92A7E
:1011E0000A2B1B2BDA01C90180709070B070892F17
:1011F0009A2FAB2FBB27E82AF92A0A2B1B2B20702A
:1012000040705070542F432F322F2227E22AF32AA6
:10121000042B152BF401E082F182028313832C96B8
:101220000FB6F894DEBF0FBECDBFCF91DF911F91F7
:101230000F91FF90EF90DF90CF90BF90AF909F9075
:101240008F900895DF93CF93CDB7DEB72C970FB66D
:10125000F894DEBF0FBECDBF80E091E0BE016F5FAE
:101260007F4F4CE00E94882A882321F189819A814E
:10127000AB81BC8180931E0190931F01A09320013C
:10128000B093210189859A85AB85BC858093220125
:1012900090932301A0932401B09325018D819E8119
:1012A000AF81B8858093260190932701A0932801F0
:1012B000B09329012C960FB6F894DEBF0FBECDBFB8
:1012C000CF91DF9108954F925F926F927F928F92AC
:1012D0009F92AF92BF92CF92DF92EF92FF920F93C5
:1012E0001F93DF93CF93CDB7DEB72C970FB6F8944B
:1012F000DEBF0FBECDBF5B016C0139014A0180E04A
:1013000091E02E010894411C511CB2014CE00E9456
:10131000882A882321F580911E0190911F01A091B8
:101320002001B091210189839A83AB83BC83809192
:10133000260190912701A0912801B09129018D8368
:101340009E83AF83B8878091220190912301A09161
:101350002401B091250189879A87AB87BC87A114A6
:10136000B104C104D10469F15A2D4427332722273F
:101370008D2D9927AA27BB27282B392B4A2B5B2B8E
:10138000D601C50180709070B070892F9A2FAB2F55
:10139000BB27282B392B4A2B5B2B80E09FEFA0E04B
:1013A000B0E0A822B922CA22DB22BC2DAB2D9A2D97
:1013B0008827282B392B4A2B5B2B29833A834B8395
:1013C0005C83611471048104910469F1562D4427F2
:1013D00033272227892D9927AA27BB27282B392B8A
:1013E0004A2B5B2BD401C30180709070B070892FA1
:1013F0009A2FAB2FBB27282B392B4A2B5B2B80E056
:101400009FEFA0E0B0E0682279228A229B22B82DCB
:10141000A72D962D8827282B392B4A2B5B2B2D8324
:101420003E834F835887E114F1040105110569F1EA
:101430005E2D442733272227812F9927AA27BB27F0
:10144000282B392B4A2B5B2BD801C7018070907059
:10145000B070892F9A2FAB2FBB27282B392B4A2B03
:101460005B2B80E09FEFA0E0B0E0E822F9220A23A6
:101470001B23B02FAF2D9E2D8827282B392B4A2BCD
:101480005B2B29873A874B875C8780E091E0B2012C
:101490004CE00E94492A2C960FB6F894DEBF0FBE8E
:1014A000CDBFCF91DF911F910F91FF90EF90DF9013
:1014B000CF90BF90AF909F908F907F906F905F90F4
:1014C0004F9008958F929F92AF92BF92CF92DF92EA
:1014D000EF92FF920F931F93DF93CF9300D000D032
:1014E00000D0CDB7DEB75C016B01E42EFB0180813B
:1014F0009181A281B38120912201309123014091F9
:1015000024015091250182279327A427B5272091F4
:101510002601309127014091280150912901822311
:101520009323A423B5230097A105B10509F074C046
:10153000CB014E010894811C911CB4010E946F03E1
:10154000882309F06CC0C50164E170E00E9426198F
:101550008C0185E4F80180831182C5010E94A818DE
:10156000F92EC5010E94A818382F20E08F2D90E099
:10157000282B392BF8013383228390912A01809103
:101580002B0184839583F60180819181A281B381AF
:10159000F801808B918BA28BB38B80911E0190916F
:1015A0001F01A0912001B091210184879587A68712
:1015B000B78780912A0190912B01019690932B017E
:1015C00080932A0180E490E09783868380E8808777
:1015D000E18613861286C80164E170E00E94BD1A9C
:1015E000F80193878287C50168E070E0A4010E943A
:1015F000BF0726960FB6F894DEBF0FBECDBFCF91C2
:10160000DF911F910F91FF90EF90DF90CF90BF90EF
:10161000AF909F908F90089582E291E08ACFC501AC
:101620000E94031981E0E5CFEF92FF920F931F9381
:10163000DF93CF93CDB7DEB764970FB6F894DEBFD4
:101640000FBECDBF8C017B010E94B718449768F490
:1016500064960FB6F894DEBF0FBECDBFCF91DF9179
:101660001F910F91FF90EF900895C801BE016F5F29
:101670007F4F44E150E00E94C21829893A894B8982
:101680005C8980911E0190911F01A0912001B09171
:101690002101281739074A075B07D1F6F701808136
:1016A00080FD25C08091220190912301A091240109
:1016B000B09125012D853E854F8558898227932736
:1016C000A427B527209126013091270140912801B8
:1016D0005091290182239323A423B5230097A105C8
:1016E000B10581F4CE010D96B7010E9493008A8561
:1016F000813109F0ADCFC801BE01635F7F4F0E9409
:10170000880BA6CF82E291E0B7010E949300EFCF51
:10171000EF92FF920F931F93DF93CF93CDB7DEB776
:101720002E970FB6F894DEBF0FBECDBF8C017B01A4
:101730000E94B718089768F42E960FB6F894DEBF8B
:101740000FBECDBFCF91DF911F910F91FF90EF9012
:101750000895C801BE01695F7F4F48E050E00E94D4
:10176000C218F70120813181428153817F816885D0
:1017700099858A8581569E41F9F66D837E832983FA
:101780003A834B835C83C801BE016F5F7F4F0E9429
:101790005D04D2CFAF92BF92CF92DF92EF92FF92D1
:1017A0000F931F936C015B017A0168E070E00E9467
:1017B00026198C01F70190818181F8018083918342
:1017C000F50194818581F8018283938317821682C3
:1017D000C6010E94A818F92EC6010E94A818382F29
:1017E00020E08F2D90E0282B392BF80135832483BE
:1017F000C601B50141E10E94620A1F910F91FF905D
:10180000EF90DF90CF90BF90AF9008958F929F920E
:10181000AF92BF92CF92DF92EF92FF920F931F93FE
:10182000DF93CF9300D000D000D0CDB7DEB77C01DE
:101830006B015A01490180E093E0BE016F5F7F4F69
:1018400046E00E94882A882391F480912C0190918F
:101850002D019A83898380912E018B8380912F01A2
:101860008C83809130018D83809131018E838981B9
:101870009A81F701918380838B81F60180838C812B
:10188000F50180838D81F40180838E81F80180834E
:1018900026960FB6F894DEBF0FBECDBFCF91DF9175
:1018A0001F910F91FF90EF90DF90CF90BF90AF907E
:1018B0009F908F900895AF92BF92CF92DF92EF9258
:1018C000FF920F931F93DF93CF9300D000D000D0EF
:1018D000CDB7DEB77C01D62EC42EB22EA02E80E06E
:1018E00093E08E010F5F1F4FB80146E00E94882AE7
:1018F000FA82E982DB82CC82BD82AE8280E093E014
:10190000B80146E00E94492A26960FB6F894DEBF39
:101910000FBECDBFCF91DF911F910F91FF90EF9040
:10192000DF90CF90BF90AF900895DF93CF9300D01A
:101930000F92CDB7DEB78091B5098130E9F00E94F2
:10194000E310882399F01B821A821982CE01029635
:10195000BE016F5F7F4F0E9423118A819B81698145
:101960000E94AD1A8A819B810E94F82E0F900F90E1
:101970000F90CF91DF9108951092B5098DE899E00D
:101980006091B6090E945429DACF0E94CF100895C1
:101990000F93DF93CF9300D000D000D0CDB7DEB748
:1019A00080E093E0BE016F5F7F4F46E00E94882A8F
:1019B000882391F089819A8190932D0180932C0145
:1019C0008B8180932E018C8180932F018D81809358
:1019D00030018E818093310180912C0190912D01F5
:1019E00060912E0140912F01209130010091310131
:1019F0000E944E1180E090E060E00E94102D26963B
:101A00000FB6F894DEBF0FBECDBFCF91DF910F911F
:101A100008950E94641008950E94A81008950E94DD
:101A20008010089510927608109275081092780828
:101A30001092770808950F931F938C0185E798E023
:101A4000B8010E94D30FC8010E94F82E1F910F9178
:101A500008958F929F92AF92BF92CF92DF92EF92B2
:101A6000FF920F931F93CF93DF938C014B018EE076
:101A700090E00E944E2EEC010E940F0DF42EE52EF8
:101A8000D62EC72EB82EA92EA801122F140FF1E0C2
:101A9000121708F0F0E0032F050FE1E0031708F03C
:101AA000E0E07F2F700F21E0701708F020E03E2F5C
:101AB000322B3F0D21E03F1508F020E0622F6E0D24
:101AC00021E06E1508F020E0522F5D0D21E05D153C
:101AD00008F020E0422F4C0D21E04C1508F020E0EA
:101AE0002B0D91E02B1508F090E09A0D1C837D835F
:101AF0003E836F83588749872A879B879D868C867C
:101B0000E0917508F0917608309709F447C0838515
:101B10009817A0F485E798E0BF01AE010E943A0F44
:101B2000CE01DF91CF911F910F91FF90EF90DF9049
:101B3000CF90BF90AF909F908F900895891759F0E4
:101B40000280F381E02D309711F785E798E0BE0120
:101B50000E94890FE5CF82852817E0F2821781F76E
:101B600081854817B8F2841759F78085581790F285
:101B7000851731F78781681768F2861709F786811C
:101B8000381740F28317E1F68581781718F2871726
:101B9000B9F68481181708F4BDCFD2CF85E798E055
:101BA000BE010E945A0FBCCFAF92BF92CF92DF927C
:101BB000EF92FF920F931F93E0917508F0917608D2
:101BC0003097F9F0A480B580C680D780F084118565
:101BD000E28403850E940F0D901798F00917D1F049
:101BE00060917508709176088B01F801E484F584A2
:101BF00085E798E00E94D30FC8010E94F82EF701F4
:101C000009951F910F91FF90EF90DF90CF90BF90BB
:101C1000AF9008958E15A8F3E81611F7711788F3A1
:101C20001717F1F66F1568F3F616D1F65D1548F340
:101C3000D516B1F64C1528F3C41691F63B1508F3EA
:101C4000B31671F62A15E8F2CBCF9F92AF92BF92EE
:101C5000CF92DF92EF92FF920F931F93CF93DF9378
:101C6000C0917508D0917608209709F48BC080E167
:101C700090E00E944E2E8C010E940F0DC901B80108
:101C80004AE050E00E94982F87E491E00E94612D85
:101C9000C8010E94612DDD24D3948C819D81B801FF
:101CA0004AE050E00E94982F8CE591E00E94612D5F
:101CB000C8010E94612D0A80DB81C02D209761F749
:101CC000E0917508F09176089480A580B680C78071
:101CD000F084E184028513850E940F0D911730F581
:101CE00082E691E00E94612D82E090E00E944E2EFB
:101CF000182F092F8D2D90E0612F702F4AE050E0B2
:101D00000E94982F88EA91E00E94612D812F902FE8
:101D10000E94612DDF91CF911F910F91FF90EF9065
:101D2000DF90CF90BF90AF909F900895191779F1F1
:101D300089E891E00E94612DE0917508F0917608A4
:101D4000309791F29480A580B680C780E084F184BA
:101D5000028513850E940F0D911730F21917E1F1DA
:101D600060917508709176088B01F801E484F58420
:101D700085E798E00E94D30FC8010E94F82EF70172
:101D80000995B2CF82E391E00E94612DC3CF801705
:101D900008F4A6CF081761F67E1508F4A1CFE71660
:101DA00039F66F1508F49CCFF61611F65C1508F499
:101DB00097CFC51609F0BCCF4B1508F491CFB416D8
:101DC00009F0B6CF3A1508F48BCFA31609F0B0CFBF
:101DD000291508F0ADCF84CF801708F485CF0817F8
:101DE00009F0BECF7F1508F47FCFF71609F0B8CF02
:101DF0006E1508F479CFE61609F0B2CF5C1508F439
:101E000073CFC51609F0ACCF4B1508F46DCFB416DF
:101E100009F0A6CF3A1508F467CFA31609F0A0CFB2
:101E2000291508F461CF9CCFCF93DF939C01DB0190
:101E3000FA017183608312968D919C91139793831D
:101E400082831296CD91DC911397209749F05983A4
:101E500048831396FC93EE931297DF91CF910895E8
:101E6000E9015B834A831396FC93EE931297DF910B
:101E7000CF910895CF93DF939C01DB01FA018D91FF
:101E80009C9111979183808373836283CD91DC91C0
:101E90001197209739F05B834A83ED93FC93DF9190
:101EA000CF910895E90159834883ED93FC93DF9125
:101EB000CF910895CF93DF939C01DB01EC01E88182
:101EC000F9813097A1F08081918111969C938E9336
:101ED0001396FC93EE931297C081D1812097A9F0BD
:101EE0007B836A83B183A083DF91CF910895798347
:101EF00068837B836A8311961C921E9213961C92B0
:101F00001E921297DF91CF910895E901798368833A
:101F1000E9CFCF93DF939C01EB01DC011296ED91A9
:101F2000FC911397309789F0F983E883828193813C
:101F30009B838A83A281B3811097F9F06D937C9380
:101F4000D383C283DF91CF910895ED91FC911197D6
:101F50003097C9F08081918199838883FB83EA83DC
:101F6000A081B1811097D9F013967C936E9312974C
:101F7000D183C083DF91CF910895D90113967C93CB
:101F80006E931297DDCF11967C936E9313967C938C
:101F90006E931297198218821B821A82D3CFD901AD
:101FA0006D937C93E5CFCF93DF93EC01FB01A08190
:101FB000B181109781F08281938113969C938E93C7
:101FC00012970280F381E02D309771F0B183A083E6
:101FD000DF91CF91089582819381998388830280D4
:101FE000F381E02D309791F7BB83AA83DF91CF91E6
:101FF0000895CF93DF93FC01DB018481882391F066
:1020000011961C921E92C081D181209779F079831C
:102010006883B183A08384818150848380E0DF91D1
:10202000CF91089581E0DF91CF910895738362830A
:10203000F0CF20E0FC0182819381892B09F021E01F
:10204000822F089520E0FC018481882309F421E097
:10205000822F0895FC01A281B381109751F08D91D8
:102060009C91119793838283892B29F084818F5FC0
:102070008483CD01089511821082F8CF1F920F92B0
:102080000FB60F9211248F939F93AF93BF9312BEFD
:102090008091790890917A08A0917B08B0917C0892
:1020A0000196A11DB11D8093790890937A08A093A1
:1020B0007B08B0937C08BF91AF919F918F910F9057
:1020C0000FBE0F901F9018951092790810927A0801
:1020D00010927B0810927C0887B78C7F87BF80B7EF
:1020E000886080BF12BE11BE83E083BF00B602FECF
:1020F000FDCF86B78C7F86BF87B7816087BF089585
:10210000AF92BF92CF92DF92EF92FF920F931F9305
:10211000A0907908B0907A08C0907B08D0907C0895
:1021200082B7DC2CCB2CBA2CAA24A80EB11CC11C63
:10213000D11C9501A60160E070E080E090E01F9165
:102140000F91FF90EF90DF90CF90BF90AF900895E8
:102150002091790830917A0840917B0850917C0851
:1021600082B7542F432F322F2227280F311D411DB4
:10217000511DB901CA0108952091790830917A085A
:1021800040917B0850917C0882B7322F2227280F7C
:10219000311DC90108955D9BFECF8CB9089570E093
:1021A0006115710571F020E030E0FC01E20FF31FD2
:1021B000E0815D9BFECFECB92F5F3F4F26173707BD
:1021C000A4F30895089582E799E00E9419100895F4
:1021D000CF93DF93559887E799E00E942A10EC018E
:1021E0008C8148E750E0481B51094950574F8823DC
:1021F00019F1282F2150822F90E0DA01A80FB91F82
:10220000EA81FB81E80FF91F80818C93215098F7B8
:1022100080E798E09093700980936F098C81882300
:1022200021F08A819B810E94F82ECE010E94F82E17
:10223000559ADF91CF91089580E798E090937009C7
:1022400080936F09F2CFEF92FF920F931F937C015F
:102250008B0182E799E00E942A10FC018481D80159
:102260008C9382819381D7018D939C93CF010E949F
:10227000F82E80917C0990917D090E941B0D80E0D1
:1022800092E069EF71E10E94290D90937D0980939E
:102290007C091F910F91FF90EF9008950F9332E00A
:1022A00032B910989093900089B9599888E98AB901
:1022B000E5E9F0E080816295607F862B80838081F4
:1022C000440F440F440F842B80838081220F822B84
:1022D00080831092730910927209109275091092FE
:1022E000740925E0209376098DE798E09093F6082D
:1022F0008093F508109278091092770910927A0964
:102300001092790920937B098FE699E090937009E8
:1023100080936F090093710980E092E069EF71E1A9
:102320000E94290D90937D0980937C090F91089557
:10233000EF92FF921F93CF93DF93579882E799E034
:102340000E942210882381F585E090E00E944E2EA5
:10235000EC018091F5089091F6082DE7E22E28E037
:10236000F22E8E159F0599F1182F1E191C83812FAF
:1023700090E00E944E2E8A839B83112379F0312FA7
:102380003150832F90E0FC01E358F74F2081EA8120
:10239000FB81E80FF91F2083315098F782E799E01D
:1023A000BE010E94F90F08C080EC91E00E94612DEF
:1023B0008DE7E82E88E0F82EF092F608E092F50816
:1023C000579ADF91CF911F91FF90EF9008951C8253
:1023D0001B821A828091B509882301F787EB91E06F
:1023E00060E070E045E859E02BE839E00E943205F2
:1023F000D5CF0E94981180E092E069EF71E10E94D0
:10240000290D90937D0980937C0908951F920F9266
:102410000FB60F920BB60F9211242F933F934F9349
:102420005F936F937F938F939F93AF93BF93EF933C
:10243000FF935D9BFECF8CB1E091F508F091F6081B
:1024400080832091F5083091F6082F5F3F4F30933D
:10245000F6082093F5088091710990E08358974F12
:102460002817390730F086ED91E00E94612D0E9417
:102470009811FF91EF91BF91AF919F918F917F91B3
:102480006F915F914F913F912F910F900BBE0F90E5
:102490000FBE0F901F9018951F920F920FB60F92BC
:1024A0000BB60F9211242F933F934F935F936F932B
:1024B0007F938F939F93AF93BF93CF93DF93EF93CC
:1024C000FF93E0916F09F091700980818CB989E0E8
:1024D000EE36F807D0F43196F0937009E0936F0967
:1024E000FF91EF91DF91CF91BF91AF919F918F912C
:1024F0007F916F915F914F913F912F910F900BBE04
:102500000F900FBE0F901F90189587E799E00E94DB
:102510001910882311F05598E3CF559887E799E073
:102520000E942A10EC018C8148E750E0481B5109B9
:102530004950574F882309F1282F2150822F90E0CE
:10254000DA01A80FB91FEA81FB81E80FF91F80812A
:102550008C93215098F780E798E0909370098093CE
:102560006F098C81882321F08A819B810E94F82E3B
:10257000CE010E94F82E559AB3CF80E798E0909351
:10258000700980936F09F4CFFB01C0988FB9779BD6
:10259000FECF4115510541F080818FB9779BFECF69
:1025A000319641505040C1F7C09A0895DF93CF93C0
:1025B0000F92CDB7DEB76983C0988FB9779BFECFF6
:1025C000FE0131969E012E5F3F4F81918FB9779B1F
:1025D000FECFE217F307C9F7C09A0F90CF91DF91B2
:1025E0000895FB01C0988FB9779BFECF222329F075
:1025F0001FB8779BFECF2150D9F74115510551F0F7
:102600001FB8779BFECF8FB180834150504011F0AF
:102610003196F6CFC09A0895DF93CF930F92CDB73E
:10262000DEB7482F87FD3BC0282F30E02076307082
:1026300080917E0990E08217930789F183E0898376
:10264000C0988FEB8FB9779BFECFBE016F5F7F4F36
:10265000FB01DE01129681918FB9779BFECFEA17BD
:10266000FB07C9F7C09A3595279535952795359578
:10267000279535952795359527952983C0988FE916
:102680008FB9779BFECFFB0181918FB9779BFECFEE
:10269000EA17FB07C9F7C09A407640937E090F906E
:1026A000CF91DF91089587E087BBBB98C09A80E502
:1026B0008DB981E08EB910927E09089590E0807600
:1026C00090708034910531F020E08036910511F052
:1026D000822F089521E0822F0895FC01C0988AE797
:1026E0008FB9779BFECF6115710541F080818FB95D
:1026F000779BFECF319661507040C1F7C09A089524
:10270000C0988FEF8FB9779BFECFC09A0895DF9363
:10271000CF930F92CDB7DEB7C0988AE38FB9779B7E
:10272000FECF1FB8779BFECF8FB18983C09A898176
:102730000F90CF91DF910895DF93CF9300D0CDB765
:10274000DEB7C0988AE38FB9779BFECFFE01319642
:102750009E012E5F3F4F1FB8779BFECF8FB18083C6
:10276000E217F30711F03196F6CFC09A89819A816A
:102770000F900F90CF91DF910895AC01C0988AE33C
:102780008FB9779BFECF6115710559F0FA011FB81B
:10279000779BFECF8FB180836150704011F03196EE
:1027A000F6CFC09ACA010895FF920F931F93DF934B
:1027B000CF930F92CDB7DEB7A82FB62FF72E87FD98
:1027C0006CC0282F30E02076307080917E0990E038
:1027D00082179307A1F183E08983C0988FEB8FB9AB
:1027E000779BFECFBE016F5F7F4FFB018E010E5FB7
:1027F0001F4F81918FB9779BFECFE017F107C9F783
:10280000C09AC901959587959595879595958795D2
:1028100095958795959587958983C0988FE98FB908
:10282000779BFECFFB0181918FB9779BFECFE0179D
:10283000F107C9F7C09A8A2F807680937E092034E9
:102840003105F9F080E020363105D9F0C098AF713C
:10285000AFB9779BFECF882319F01FB8779BFECFC7
:102860004115510581F08B2F9F2D9C01F9011FB857
:10287000779BFECF8FB180834150504021F031963D
:10288000F6CF81E0E3CFC09A8B2F9F2D0F90CF9191
:10289000DF911F910F91FF900895282F30E020764F
:1028A0003070CDCFDF93CF9300D0CDB7DEB7482FB8
:1028B0006A8387FD54C0282F30E0207630708091E5
:1028C0007E0990E08217930709F449C083E0898369
:1028D000C0988FEB8FB9779BFECFDE011196FD017B
:1028E000BE016E5F7F4F81918FB9779BFECFE61758
:1028F000F707C9F7C09A35952795359527953595EA
:10290000279535952795359527952983C0988FE983
:102910008FB9779BFECFFD0181918FB9779BFECF59
:10292000E617F707C9F7C09A842F807680937E094F
:102930004F714068C0984FB9779BFECFFB019E0155
:102940002D5F3F4F81918FB9779BFECFE217F30741
:10295000C9F7C09A0F900F90CF91DF910895BE01F3
:102960006E5F7F4FE5CFDF93CF9300D0CDB7DEB75B
:10297000482F6A8387FD54C0282F30E020763070BE
:1029800080917E0990E08217930709F449C083E0A3
:102990008983C0988FEB8FB9779BFECFDE011196AC
:1029A000FD01BE016E5F7F4F81918FB9779BFECF96
:1029B000E617F707C9F7C09A3595279535952795F6
:1029C0003595279535952795359527952983C09871
:1029D0008FE98FB9779BFECFFD0181918FB9779BEE
:1029E000FECFE617F707C9F7C09A842F8076809349
:1029F0007E094F71406AC0984FB9779BFECFFB01AB
:102A00009E012D5F3F4F81918FB9779BFECFE217DB
:102A1000F307C9F7C09A0F900F90CF91DF910895F7
:102A2000BE016E5F7F4FE5CFEF92FF921F93DF9362
:102A3000CF930F92CDB7DEB7182FFB0187FD3FC0B4
:102A4000282F30E02076307080917E0990E0821748
:102A50009307A9F183E08983C0988FEB8FB9779BA7
:102A6000FECFBE016F5F7F4FDB0182E0E82EF12CCD
:102A7000EC0EFD1E8D918FB9779BFECFAE15BF0575
:102A8000C9F7C09A3595279535952795359527959A
:102A900035952795359527952983C0988FE98FB966
:102AA000779BFECFDB018D918FB9779BFECFAE1563
:102AB000BF05C9F7C09A812F807680937E091F7168
:102AC0001064C0981FB9779BFECF4115510541F0A6
:102AD00080818FB9779BFECF319641505040C1F72E
:102AE000C09A0F90CF91DF911F91FF90EF900895C2
:102AF000DF93CF9300D0CDB7DEB7482F6A8387FD31
:102B000054C0282F30E02076307080917E0990E00C
:102B10008217930709F449C083E08983C0988FEB3B
:102B20008FB9779BFECFDE011196FD01BE016E5F6E
:102B30007F4F81918FB9779BFECFE617F707C9F7D3
:102B4000C09A3595279535952795359527953595CF
:102B50002795359527952983C0988FE98FB9779B5D
:102B6000FECFFD0181918FB9779BFECFE617F70766
:102B7000C9F7C09A842F807680937E094F71406494
:102B8000C0984FB9779BFECFFB019E012D5F3F4F51
:102B900081918FB9779BFECFE217F307C9F7C09AEF
:102BA0000F900F90CF91DF910895BE016E5F7F4F20
:102BB000E5CFDF93CF9300D00F92CDB7DEB7482F8C
:102BC0007B836A8387FD55C0282F30E020763070E4
:102BD00080917E0990E08217930709F44AC083E050
:102BE0008983C0988FEB8FB9779BFECFDE0111965A
:102BF000FD01BE016E5F7F4F81918FB9779BFECF44
:102C0000E617F707C9F7C09A3595279535952795A3
:102C10003595279535952795359527952983C0981E
:102C20008FE98FB9779BFECFFD0181918FB9779B9B
:102C3000FECFE617F707C9F7C09A842F80768093F6
:102C40007E094F714064C0984FB9779BFECFFB015E
:102C50009B012E5F3F4F81918FB9779BFECFE2178B
:102C6000F307C9F7C09A0F900F900F90CF91DF91A3
:102C70000895BE016E5F7F4FE4CFEF92FF921F93E6
:102C8000DF93CF930F92CDB7DEB7182FFB0187FDEF
:102C90003FC0282F30E02076307080917E0990E090
:102CA00082179307A9F183E08983C0988FEB8FB9CE
:102CB000779BFECFBE016F5F7F4FDB0182E0E82E86
:102CC000F12CEC0EFD1E8D918FB9779BFECFAE15CA
:102CD000BF05C9F7C09A3595279535952795359540
:102CE000279535952795359527952983C0988FE9A0
:102CF0008FB9779BFECFDB018D918FB9779BFECF8C
:102D0000AE15BF05C9F7C09A812F807680937E09E2
:102D10001F711064C0981FB9779BFECF41155105F4
:102D200041F080818FB9779BFECF31964150504062
:102D3000C1F7C09A0F90CF91DF911F91FF90EF9054
:102D40000895DF93CF9300D0CDB7DEB78A8380910B
:102D50007E09803409F492C083E08983C0988FEBA8
:102D60008FB9779BFECFDE011196FD019E012E5F8C
:102D70003F4F81918FB9779BFECFE217F307C9F7D9
:102D8000C09A82E08983C0988FE98FB9779BFECF84
:102D9000FD0181918FB9779BFECFE217F307C9F749
:102DA000C09A80E480937E09C09884E58FB9779BB0
:102DB000FECFF901AE014D5F5F4F81918FB9779BD7
:102DC000FECFE417F507C9F7C09A6983C09886E576
:102DD0008FB9779BFECFFD0181918FB9779BFECF95
:102DE000E217F307C9F7C09A7983C09887E58FB9CE
:102DF000779BFECFFD0181918FB9779BFECFE217C4
:102E0000F307C9F7C09A90E463E07FEBAFE9BAE05B
:102E10009036E9F06A83C0987FB9779BFECFF901BD
:102E200081918FB9779BFECFE417F507C9F7C09A58
:102E30006A83C098AFB9779BFECFF90181918FB9B2
:102E4000779BFECFE417F507C9F7C09A90E6C098C4
:102E5000BFB9779BFECF1FB8779BFECF1FB8779B7C
:102E6000FECF8FB18983C09A898180FDD1CF9093A5
:102E70007E090F900F90CF91DF910895DE0111969A
:102E80009E012E5F3F4F90CFDF93CF9300D00F92E4
:102E9000CDB7DEB7482F87FD68C0282F30E02076F9
:102EA000307080917E0990E08217930709F465C025
:102EB00083E08983C0988FEB8FB9779BFECFDE01CB
:102EC0001196FD01BE016E5F7F4F81918FB9779B97
:102ED000FECFE617F707C9F7C09AC9019595879500
:102EE00095958795959587959595879595958795CA
:102EF0008983C0988FE98FB9779BFECFFD018191BF
:102F00008FB9779BFECFE617F707C9F7C09A842FD2
:102F1000807680937E0920343105E1F080E0203610
:102F20003105C1F0C0984F714FB9779BFECF882310
:102F300019F01FB8779BFECFFB019E012D5F3F4F1D
:102F40001FB8779BFECF8FB18083E217F30721F084
:102F50003196F6CF81E0E6CFC09A8B819A810F90AF
:102F60000F900F90CF91DF910895282F30E02076B9
:102F70003070BE016E5F7F4FCECFBE016E5F7F4F60
:102F8000CACFDF93CF9300D0CDB7DEB7482F87FDF0
:102F90005CC0282F30E02076307080917E0990E070
:102FA0008217930799F183E08A83C0988FEB8FB9DA
:102FB000779BFECFBE016E5F7F4FFB01DE01139654
:102FC00081918FB9779BFECFEA17FB07C9F7C09AAB
:102FD000C90195958795959587959595879595952B
:102FE0008795959587958A83C0988FE98FB9779B48
:102FF000FECFFB0181918FB9779BFECFEA17FB07CC
:10300000C9F7C09A842F807680937E0920343105D9
:10301000D1F080E020363105B1F0C0984F714FB942
:10302000779BFECF882319F01FB8779BFECF1FB880
:10303000779BFECF8FB18983C09A89810F900F90C3
:10304000CF91DF91089581E0E8CF282F30E02076FE
:103050003070DCCFFF920F931F93DF93CF930F92CB
:10306000CDB7DEB7A82FB62FF72E87FD6CC0282F5F
:1030700030E02076307080917E0990E082179307CF
:10308000A1F183E08983C0988FEB8FB9779BFECF46
:10309000BE016F5F7F4FFB018E010E5F1F4F81915D
:1030A0008FB9779BFECFE017F107C9F7C09AC90126
:1030B00095958795959587959595879595958795F8
:1030C000959587958983C0988FE98FB9779BFECFB7
:1030D000FB0181918FB9779BFECFE017F107C9F70C
:1030E000C09A8A2F807680937E0920343105F9F0CA
:1030F00080E020363105D9F0C098AF71AFB9779B29
:10310000FECF882319F01FB8779BFECF41155105DC
:1031100081F08B2F9F2D9C01F9011FB8779BFECF6B
:103120008FB180834150504021F03196F6CF81E03D
:10313000E3CFC09A8B2F9F2D0F90CF91DF911F91DE
:103140000F91FF900895282F30E020763070CDCF7A
:10315000FC010190F081E02D309729F00680F78185
:10316000E02DCF010895E0E0F0E0CF010895FC01EB
:10317000009721F020813181C901089520E030E0DD
:10318000C90108950F931F93CF93DF938C01DC0146
:10319000ED91FC91EA01E417F50708F4EF01CB018A
:1031A000BE010E94BD13F801808191818C1B9D0B93
:1031B00091838083CE01DF91CF911F910F9108956C
:1031C000CF93DF93EC016A817B81615070408AE18B
:1031D0006030780790F48CE00E94D9158EE960E4A5
:1031E0000E9452146A817B8180E00E94D915CE0131
:1031F0000E94F82EDF91CF9108958CE06FEF79E176
:103200000E94D915EBCF0F931F93CF93DF938C01BF
:10321000009779F416C088819981009711F00E9477
:10322000F82E8C819D81F80191838083CE010E94CC
:10323000F82EF801C081D181209769F7C8010E945A
:10324000F82EDF91CF911F910F910895EF92FF9289
:103250000F931F93CF93DF937C018B0188E090E065
:103260000E944E2EEC011B830A8301151105E9F41F
:1032700019821882D701ED91FC91FD83EC83309780
:1032800001F1868197812A813B81820F931F9F8361
:103290008E83F701D183C08388819981DF91CF919B
:1032A0001F910F91FF90EF900895C8010E944E2E3C
:1032B00088839983D701ED91FC91FD83EC8330974E
:1032C00001F78A819B819F838E83E3CF82E090E028
:1032D0000E944E2EFC01118210820895CF93DF933D
:1032E0008CE90E94C11786FF13C084E090E00E9421
:1032F0004E2EEC010E949C139B838A830E949C1398
:10330000998388830E949C13CE01DF91CF91089509
:1033100089E30E94C117882341F7C0E0D0E0F4CFD1
:10332000CF93DF93EC010E9453130E94801320E09F
:1033300030E040E751E0CA010197F1F72F5F3F4FBE
:1033400081E0243F3807B9F78DE90E94C11780FF5B
:10335000FBCF88E060E00E94781589E060E00E9481
:1033600078158AE06FEF0E9478158BE069E10E9482
:10337000781584E060E07AE10E94D91586E06FEF6D
:103380007FE10E94D91581E460E00E94781580E415
:103390006DE00E94781582E462E30E9478158AE469
:1033A0006EEE0E9478158BE465E00E94781584E447
:1033B00062E10E94781586E462E10E94781587E454
:1033C0006CE00E94781581E66D810E94781580E698
:1033D0006C810E94781583E66B810E94781582E6E5
:1033E0006A810E94781585E669810E94781584E6D5
:1033F00068810E94781580E160E071E00E94A1166A
:1034000084E162E774E00E94A1168FE964E00E9403
:10341000521480E060E070E00E94D915DF91CF91F6
:1034200008951F93CF93DF9311E3C0E0D0E906C066
:10343000CE010197F1F711501F3F49F08FE90E942B
:10344000C11783FDF5CFDF91CF911F9108958AEDCC
:1034500091E00E94612DDF91CF911F910895BF925D
:10346000CF92DF92EF92FF920F931F93DF93CF9350
:103470000F92CDB7DEB76C01B62E12E3E12C80E9D6
:10348000F82E06C0C7010197F1F7115009F457C093
:103490008FE90E94C11783FDF5CF84E060E07AE1F7
:1034A0000E94D91582E060E07AE10E94D915198264
:1034B000CE01019661E070E00E946D13F60100817B
:1034C00011810115110581F0F801628173818081FC
:1034D00091810E946D13F801048115810115110578
:1034E00099F7F60100811181F801668177816050BA
:1034F000764E86E00E94D9158FE960E80E9452144A
:103500008FE960E80E94B3148FE96CE00E945214C6
:103510001B2DB0FC07C08FE90E94C11783FFFBCFB2
:1035200011FF12C090E0892F0F90CF91DF911F9172
:103530000F91FF90EF90DF90CF90BF9008958AEDAC
:1035400091E00E94612DA9CF8DE90E94C11790E002
:10355000827149F391E0E7CF08952FE739E070E0F9
:10356000A901245F3F4F0E94FC0580E00895662377
:1035700009F408950E94C50C0895DC0160FD34C073
:1035800020E030E040E050E07695679561157105E8
:1035900001F1FB01E150F048EE0FFF1FEA0FFB1FA6
:1035A00080819181A0E0B0E0280F391F4A1F5B1F86
:1035B000329761507040A1F7CA01AA27BB27009734
:1035C000A105B10569F040705070280F391F4A1FDE
:1035D0005B1FCA01AA27BB270097A105B10599F770
:1035E00020953095C9010895FC01E60FF71F8081F1
:1035F000282F30E040E050E0C7CFFC0180818823D5
:1036000041F090E09F5F818131968823D9F7892F1F
:10361000089590E0FCCFF8940C9400F080E00895B9
:1036200081E08093340880E0089580913408089503
:10363000EF92FF920F931F93DF93CF93CDB7DEB737
:103640002B970FB6F894DEBF0FBECDBF198282E074
:10365000E82EF12CEC0EFD1E8AE0F70111928A95FE
:10366000E9F780E090E060E070E040E050E020E0CA
:1036700030E08E010F5F1F4F0E94060C698170E0E1
:1036800080E090E0A7012AE030E00E94B92F8A8113
:10369000882321F160E0FE0133966F5F81918823DA
:1036A000E1F770E0C70145E859E02BE839E00E94F6
:1036B00032058CEE91E00E94612DC7010E94612DC0
:1036C00080E02B960FB6F894DEBF0FBECDBFCF9132
:1036D000DF911F910F91FF90EF90089560E070E0EF
:1036E000E1CFEF92FF920F931F93DF93CF93CDB76C
:1036F000DEB72B970FB6F894DEBF0FBECDBF198291
:1037000092E0E92EF12CEC0EFD1E8AE0F7011192F9
:103710008A95E9F780E090E060E070E040E050E0FA
:103720009E012F5F3F4F00E010E00E94060C698170
:103730006B5F698370E080E090E0A7012AE030E0F1
:103740000E94B92F8A81882321F160E0FE0133961F
:103750006F5F81918823E1F770E0C70145E859E088
:103760002BE839E00E94320580E092E00E94612D52
:10377000C7010E94612D80E02B960FB6F894DEBF42
:103780000FBECDBFCF91DF911F910F91FF90EF90B2
:10379000089560E070E0E1CFEF92FF920F931F93E6
:1037A000DF93CF93CDB7DEB72B970FB6F894DEBF7C
:1037B0000FBECDBF198222E0E22EF12CEC0EFD1ED1
:1037C0008AE0F70111928A95E9F780E090E060E0E5
:1037D00070E0AE014F5F5F4F20E030E000E010E0AE
:1037E0000E94060C698170E06F5F7F4F882777FD2C
:1037F0008095982FA7012AE030E00E94B92F8A8196
:10380000882321F160E0FE0133966F5F8191882368
:10381000E1F770E0C70145E859E02BE839E00E9484
:1038200032058DE092E00E94612DC7010E94612D5A
:1038300080E02B960FB6F894DEBF0FBECDBFCF91C0
:10384000DF911F910F91FF90EF90089560E070E07D
:10385000E1CFEF92FF920F931F93DF93CF93CDB7FA
:10386000DEB72B970FB6F894DEBF0FBECDBF19821F
:1038700032E0E32EF12CEC0EFD1E8AE0F7011192EE
:103880008A95E9F780E090E0BE016F5F7F4F40E0EE
:1038900050E020E030E000E010E00E94060C69817A
:1038A00070E080E090E0A7012AE030E00E94B92FAC
:1038B0008A81882309F440C060E0FE0133966F5F7F
:1038C00081918823E1F770E0C70145E859E02BE8D2
:1038D00039E00E9432058AE192E00E94612DC70121
:1038E0000E94612D8981813011F1813090F48DE148
:1038F00092E00E94612D80E02B960FB6F894DEBF17
:103900000FBECDBFCF91DF911F910F91FF90EF9030
:103910000895823039F0833071F785E692E00E9495
:10392000612DE9CF85E492E00E94612DE4CF81E32F
:1039300092E00E94612DDFCF60E070E0C5CF0F9371
:103940001F93DF93CF93CDB7DEB72C970FB6F894C4
:10395000DEBF0FBECDBFCE01019660E070E040E05B
:1039600050E020E030E000E010E00E94060C8E0104
:103970000D5F1F4F8AE0F80111928A95E9F72981BE
:103980003A812F5F3F4F22953295307F3227207F3B
:10399000322740E050E060E070E081EE90E00E946D
:1039A0002330CA01B901A8012AE030E00E94B92FF2
:1039B0008B81882311F160E0FE0134966F5F819165
:1039C0008823E1F770E0C80145E859E02BE839E0C9
:1039D0000E94320584E892E00E94612DC8010E9495
:1039E000612D80E02C960FB6F894DEBF0FBECDBFE0
:1039F000CF91DF911F910F91089560E070E0E3CFC8
:103A00000F931F93DF93CF93CDB7DEB728970FB6F1
:103A1000F894DEBF0FBECDBF98878F831E821D82B4
:103A200019821A821B821C82CE010596BE016F5F2D
:103A30007F4FAE014E5F5F4F9E012D5F3F4F8E0166
:103A40000C5F1F4F0E94060CCE0107960E94A7270D
:103A5000062F862F8150863960F081E028960FB6B8
:103A6000F894DEBF0FBECDBFCF91DF911F910F91B4
:103A700008958D819E8169814A812B810C830E94EA
:103A80005B0C80E0EBCF0F931F93DF93CF93CDB709
:103A9000DEB728970FB6F894DEBF0FBECDBF98876C
:103AA0008F831E821D8219821A821B821C82CE0184
:103AB0000596BE016F5F7F4FAE014E5F5F4F9E0167
:103AC0002D5F3F4F8E010C5F1F4F0E94060CCE01F1
:103AD00007960E94A727262F2550243060F081E00A
:103AE00028960FB6F894DEBF0FBECDBFCF91DF9101
:103AF0001F910F9108952B838D819E8169814A8149
:103B00000C810E945B0C80E0EBCF0F931F93DF933F
:103B1000CF93CDB7DEB728970FB6F894DEBF0FBEB0
:103B2000CDBF98878F831E821D8219821A821B82C5
:103B30001C82CE010596BE016F5F7F4FAE014E5FC6
:103B40005F4F9E012D5F3F4F8E010C5F1F4F0E9404
:103B5000060CCE0107960E94A727462F41504230FF
:103B600060F081E028960FB6F894DEBF0FBECDBF9F
:103B7000CF91DF911F910F9108954A838D819E818E
:103B800069812B810C810E945B0C80E0EBCF0F934D
:103B90001F93DF93CF93CDB7DEB728970FB6F89476
:103BA000DEBF0FBECDBF98878F831E821D82198214
:103BB0001A821B821C82CE010596BE016F5F7F4F69
:103BC000AE014E5F5F4F9E012D5F3F4F8E010C5F38
:103BD0001F4F0E94060CCE0107960E94A727643053
:103BE00060F081E028960FB6F894DEBF0FBECDBF1F
:103BF000CF91DF911F910F9108958D819E814A8110
:103C00002B810C8169830E945B0C80E0EBCF0F93CA
:103C10001F93DF93CF93CDB7DEB728970FB6F894F5
:103C2000DEBF0FBECDBF98878F831E821D82198293
:103C30001A821B821C82CE010596BE016F5F7F4FE8
:103C4000AE014E5F5F4F9E012D5F3F4F8E010C5FB7
:103C50001F4F0E94060CCE0107960E94A7279B01CA
:103C6000AC01220F331F441F551F220F331F441F67
:103C7000551F220F331F441F551F220F331F441F90
:103C8000551F60E070E081EE90E00E942330DA0181
:103C9000C90101979E838D8369814A812B810C81A3
:103CA0000E945B0C80E028960FB6F894DEBF0FBE32
:103CB000CDBFCF91DF911F910F910895CF92DF92E9
:103CC000EF92FF920F931F93DF93CF9300D0CDB766
:103CD000DEB79A838983CE0101960E94A7276B01E4
:103CE0007C0160E070E080E090E040E050E000E0C7
:103CF00010E020E030E07601CC24DD240E94B22BDD
:103D000080E00F900F90CF91DF911F910F91FF9066
:103D1000EF90DF90CF900895CF92DF92EF92FF92D5
:103D20000F931F93DF93CF9300D0CDB7DEB79A8365
:103D30008983CE0101960E94A7279B01AC0160E018
:103D400070E080E090E0A90100E010E020E030E0C9
:103D5000EE24FF24CC24DD240E94B22B80E00F90BF
:103D60000F90CF91DF911F910F91FF90EF90DF9017
:103D7000CF9008950F931F93DF93CF93CDB7DEB706
:103D800027970FB6F894DEBF0FBECDBF80E090E05E
:103D900060E070E040E050E09E012F5F3F4F00E0A8
:103DA00010E00E94D02A8E010D5F1F4F85E0F801C0
:103DB00011928A95E9F769817A8180E090E0A80103
:103DC0002AE030E00E94B92F8B81882311F160E056
:103DD000FE0134966F5F81918823E1F770E0C8019E
:103DE00045E859E02BE839E00E9432058AE992E083
:103DF0000E94612DC8010E94612D80E027960FB6B8
:103E0000F894DEBF0FBECDBFCF91DF911F910F9110
:103E1000089560E070E0E3CF0F931F93DF93CF939B
:103E2000CDB7DEB727970FB6F894DEBF0FBECDBF74
:103E300080E090E0BE016F5F7F4F40E050E020E007
:103E400030E000E010E00E94D02A8E010D5F1F4F8D
:103E500085E0F80111928A95E9F769817A8180E01D
:103E600090E0A8012AE030E00E94B92F8B818823DE
:103E700011F160E0FE0134966F5F81918823E1F7D4
:103E800070E0C80145E859E02BE839E00E943205AE
:103E900082EC92E00E94612DC8010E94612D80E0B9
:103EA00027960FB6F894DEBF0FBECDBFCF91DF913E
:103EB0001F910F91089560E070E0E3CFCF92DF9201
:103EC000EF92FF920F931F93DF93CF9300D0CDB764
:103ED000DEB79A838983CE0101960E941D288B014B
:103EE0009C0160E070E080E090E040E050E0EE2473
:103EF000FF24CC24DD240E94B22B80E00F900F9091
:103F0000CF91DF911F910F91FF90EF90DF90CF90B5
:103F10000895CF92DF92EF92FF920F931F93DF935A
:103F2000CF9300D0CDB7DEB79A838983CE010196B7
:103F30000E941D2840E050E000E010E020E030E06A
:103F4000EE24FF24CC24DD240E94B22B80E00F90CD
:103F50000F90CF91DF911F910F91FF90EF90DF9025
:103F6000CF9008956F927F928F929F92AF92BF925F
:103F7000CF92DF92EF92FF920F931F93DF93CF9335
:103F800000D0CDB7DEB79A8389838E010F5F1F4FB4
:103F9000C8010E941D283B014C01E981FA81808102
:103FA000803231F43196FA83E98380818032D1F313
:103FB000C8010E941D285B016C01E981FA818081A2
:103FC000803231F43196FA83E98380818032D1F3F3
:103FD000C8010E941D287B018C01C401B301A60108
:103FE00095010E94630980E00F900F90CF91DF91BF
:103FF0001F910F91FF90EF90DF90CF90BF90AF9007
:104000009F908F907F906F900895EF92FF920F9303
:104010001F93DF93CF9300D0CDB7DEB79A83898308
:10402000CE0101960E941D287B018C0160E070E0AA
:1040300080E090E020E030E040E050E00E94630942
:1040400080E00F900F90CF91DF911F910F91FF9023
:10405000EF900895EF92FF920F931F93DF93CF930A
:1040600000D0CDB7DEB79A838983CE0101960E9436
:104070001D289B01AC0160E070E080E090E0EE2440
:10408000FF2487010E94630980E00F900F90CF9179
:10409000DF911F910F91FF90EF900895EF92FF92A3
:1040A0000F931F93DF93CF9300D0CDB7DEB79A83E2
:1040B0008983CE0101960E941D2820E030E040E077
:1040C00050E0EE24FF2487010E94630980E00F90F6
:1040D0000F90CF91DF911F910F91FF90EF90089576
:1040E000BF92CF92DF92EF92FF920F931F93DF93D5
:1040F000CF93CDB7DEB767970FB6F894DEBF0FBE8C
:10410000CDBFF7E0CF2ED12CCC0EDD1E81E1F60124
:1041100011928A95E9F77E010894E11CF11C860151
:10412000EAE3BE2EF701808190E0B80140E150E063
:104130000E94DE2F02C00F5F1F4FF8019081892F70
:1041400080538A30C0F381538630A8F3915496305F
:1041500090F3B1920894E11CF11CEC14FD0411F0F1
:104160008F01E0CFF80110828F81882339F160E060
:10417000FE0138966F5F81918823E1F770E0C601F8
:1041800045E859E02BE839E00E94320588EE92E0DC
:104190000E94612DC6010E94612D80E067960FB6D6
:1041A000F894DEBF0FBECDBFCF91DF911F910F916D
:1041B000FF90EF90DF90CF90BF90089560E070E0A7
:1041C000DECFDF92EF92FF920F931F93DF93CF9397
:1041D00000D000D0CDB7DEB78C0149835A836B8302
:1041E0007C83B4E0EB2EF12CEC0EFD1EAEE2DA2E59
:1041F000F701808190E0B8014AE050E00E94DE2F94
:1042000002C00F5F1F4FF801808180538A30C8F3CE
:10421000F801D1920894E108F108EC16FD0611F0BE
:104220008F01E6CFF8011082C8010F900F900F9018
:104230000F90CF91DF911F910F91FF90EF90DF9042
:1042400008950F931F93DF93CF93CDB7DEB72897D1
:104250000FB6F894DEBF0FBECDBF98878F838E0157
:10426000095F1F4FC8010E94EC2769838F819885E1
:10427000019698878F83C8010E94EC276A838F81FB
:104280009885019698878F83C8010E94EC276B83DD
:104290008F819885019698878F83C8010E94EC27AB
:1042A0006C838F819885019698878F83C8010E94BF
:1042B000EC276D838F819885019698878F83C8013D
:1042C0000E94EC276E838F819885019698878F8353
:1042D000CE0101960E94310780E028960FB6F8942F
:1042E000DEBF0FBECDBFCF91DF911F910F9108951B
:1042F0009F92AF92BF92CF92DF92EF92FF920F9375
:104300001F93DF93CF93CDB7DEB767970FB6F894BF
:10431000DEBF0FBECDBF80E090E060E070E0AE0198
:104320004F5F5F4F20E030E000E010E00E94D02AB5
:1043300039E0A32EB12CAC0EBD1E8FE0F501119219
:104340008A95E9F789819A81AB81BC818D839E83AF
:10435000AF83B88728E0E22EF12CEC0EFD1E85011C
:1043600094E0C92ED12CCC0EDD1E8EE2982EF701E2
:10437000808190E0B8014AE050E00E94DE2F02C048
:104380000F5F1F4FF801808180538A30C8F3F80116
:1043900091920894E108F108EC14FD0411F08F01EA
:1043A000E6CFF80110828985882349F160E0FE019B
:1043B0003A966F5F81918823E1F770E0C50145E887
:1043C00059E02BE839E00E94320588EF92E00E9424
:1043D000612DC5010E94612D80E067960FB6F894AB
:1043E000DEBF0FBECDBFCF91DF911F910F91FF9028
:1043F000EF90DF90CF90BF90AF909F90089560E0D6
:1044000070E0DCCF9F92AF92BF92CF92DF92EF929B
:10441000FF920F931F93DF93CF93CDB7DEB76797CC
:104420000FB6F894DEBF0FBECDBFCE01019660E09F
:1044300070E040E050E020E030E000E010E00E945A
:10444000D02A79E0A72EB12CAC0EBD1E8FE0F5016D
:1044500011928A95E9F789819A81AB81BC818D831C
:104460009E83AF83B88768E0E62EF12CEC0EFD1E2C
:10447000850154E0C52ED12CCC0EDD1E4EE2942ECB
:10448000F701808190E0B8014AE050E00E94DE2F01
:1044900002C00F5F1F4FF801808180538A30C8F33C
:1044A000F80191920894E108F108EC14FD0411F070
:1044B0008F01E6CFF80110828985882349F160E0F9
:1044C000FE013A966F5F81918823E1F770E0C501A4
:1044D00045E859E02BE839E00E9432058EE193E08F
:1044E0000E94612DC5010E94612D80E067960FB684
:1044F000F894DEBF0FBECDBFCF91DF911F910F911A
:10450000FF90EF90DF90CF90BF90AF909F90089575
:1045100060E070E0DCCF4F925F926F927F929F924B
:10452000AF92BF92CF92DF92EF92FF920F931F93C1
:10453000DF93CF93CDB7DEB7C754D0400FB6F89412
:10454000DEBF0FBECDBFCE010196BE016B5F7F4FB8
:10455000AE01475F5F4F0E943A0839E1432E512C6C
:104560004C0E5D1E8FE2F20111928A95E9F7898166
:104570009A81AB81BC818D879E87AF87B88B20E104
:10458000622E712C6C0E7D1E630182019CE0A92EAF
:10459000B12CAC0EBD1E8EE2982EF601808190E00B
:1045A000B8014AE050E00E94DE2F02C00F5F1F4FAB
:1045B000F801808180538A30C8F3F80191927F011D
:1045C0000894C108D108CA14DB0411F08F01E5CFAB
:1045D00080E2F80180838D819E81AF81B885898BCF
:1045E0009A8BAB8BBC8BB4E1AB2EB12CAC0EBD1E49
:1045F0006501AEE29A2EF601808190E0B7014AE0B3
:1046000050E00E94DE2F03C00894E11CF11CF7016A
:10461000808180538A30C0F3F70191928F01089412
:10462000C108D108C614D70411F07F01E4CF80E29D
:10463000F701808389859A85AB85BC858D8B9E8BA0
:10464000AF8BB88FF8E1EF2EF12CEC0EFD1EEEE2F1
:10465000DE2EF701808190E0B8014AE050E00E9430
:10466000DE2F02C00F5F1F4FF801808180538A3018
:10467000C8F3F801D1920894E108F108EA14FB04A8
:1046800011F08F01E6CFF8011082898D882371F136
:1046900060E0FE017A966F5F81918823E1F770E018
:1046A000C20145E859E02BE839E00E94320582E476
:1046B00093E00E94612DC2010E94612D80E0C95BE0
:1046C000DF4F0FB6F894DEBF0FBECDBFCF91DF91A5
:1046D0001F910F91FF90EF90DF90CF90BF90AF9020
:1046E0009F907F906F905F904F90089560E070E092
:1046F000D7CF9F92AF92BF92CF92DF92EF92FF926D
:104700000F931F93DF93CF93CDB7DEB767970FB6A5
:10471000F894DEBF0FBECDBF80E090E060E070E0B7
:10472000AE014F5F5F4F0E943A0879E0A72EB12C8F
:10473000AC0EBD1E8FE0F50111928A95E9F78981D3
:104740009A81AB81BC818D839E83AF83B88768E0FB
:10475000E62EF12CEC0EFD1E850154E0C52ED12C69
:10476000CC0EDD1E4EE2942EF701808190E0B80160
:104770004AE050E00E94DE2F02C00F5F1F4FF80199
:10478000808180538A30C8F3F80191920894E1083F
:10479000F108EC14FD0411F08F01E6CFF80110824E
:1047A0008985882349F160E0FE013A966F5F819127
:1047B0008823E1F770E0C50145E859E02BE839E0CE
:1047C0000E94320583E593E00E94612DC5010E949D
:1047D000612D80E067960FB6F894DEBF0FBECDBFA7
:1047E000CF91DF911F910F91FF90EF90DF90CF90CD
:1047F000BF90AF909F90089560E070E0DCCF9F92F3
:10480000AF92BF92CF92DF92EF92FF920F931F93DE
:10481000DF93CF93CDB7DEB767970FB6F894DEBFBF
:104820000FBECDBF80E090E0BE016F5F7F4F40E0E4
:1048300050E00E943A08B9E0AB2EB12CAC0EBD1E80
:104840008FE0F50111928A95E9F789819A81AB8110
:10485000BC818D839E83AF83B887A8E0EA2EF12CBC
:10486000EC0EFD1E8501F4E0CF2ED12CCC0EDD1E0A
:10487000EEE29E2EF701808190E0B8014AE050E020
:104880000E94DE2F02C00F5F1F4FF801808180530E
:104890008A30C8F3F80191920894E108F108EC1409
:1048A000FD0411F08F01E6CFF8011082898588237D
:1048B00049F160E0FE013A966F5F81918823E1F74C
:1048C00070E0C50145E859E02BE839E00E94320567
:1048D0008FE593E00E94612DC5010E94612D80E06B
:1048E00067960FB6F894DEBF0FBECDBFCF91DF91B4
:1048F0001F910F91FF90EF90DF90CF90BF90AF90FE
:104900009F90089560E070E0DCCF9F92AF92BF92DD
:10491000CF92DF92EF92FF920F931F93DF93CF938B
:10492000CDB7DEB767970FB6F894DEBF0FBECDBF29
:10493000CE01019660E070E040E050E00E943A084D
:1049400039E0A32EB12CAC0EBD1E8FE0F501119203
:104950008A95E9F789819A81AB81BC818D839E8399
:10496000AF83B88728E0E22EF12CEC0EFD1E850106
:1049700094E0C92ED12CCC0EDD1E8EE2982EF701CC
:10498000808190E0B8014AE050E00E94DE2F02C032
:104990000F5F1F4FF801808180538A30C8F3F80100
:1049A00091920894E108F108EC14FD0411F08F01D4
:1049B000E6CFF80110828985882349F160E0FE0185
:1049C0003A966F5F81918823E1F770E0C50145E871
:1049D00059E02BE839E00E94320580E793E00E941D
:1049E000612DC5010E94612D80E067960FB6F89495
:1049F000DEBF0FBECDBFCF91DF911F910F91FF9012
:104A0000EF90DF90CF90BF90AF909F90089560E0BF
:104A100070E0DCCF4F925F927F928F929F92AF9225
:104A2000BF92CF92DF92EF92FF920F931F93DF938B
:104A3000CF93CDB7DEB7C657D0400FB6F894DEBFE0
:104A40000FBECDBFCE010D96BE016F5E7F4FAE0192
:104A50004B5E5F4F0E943A0865E4862E912C8C0EC7
:104A60009D1E82E3F40111928A95E9F78D859E855A
:104A7000AF85B88989A39AA3ABA3BCA354E2452E02
:104A8000512C4C0E5D1E6201840140E2A42EB12C1B
:104A9000AC0EBD1E3EE2732EF601808190E0B8019F
:104AA0004AE050E00E94DE2F02C00F5F1F4FF80166
:104AB000808180538A30C8F3F80171927F01089495
:104AC000C108D108CA14DB0411F08F01E5CF80E2E0
:104AD000F801808389899A89AB89BC898DA39EA3BB
:104AE000AFA3B8A728E2A22EB12CAC0EBD1E650163
:104AF0009EE2792EF601808190E0B7014AE050E015
:104B00000E94DE2F03C00894E11CF11CF701808194
:104B100080538A30C0F3F70171928F010894C10865
:104B2000D108C414D50411F07F01E4CF80E2F7016D
:104B300080838D899E89AF89B88D89A79AA7ABA7F5
:104B4000BCA78CE2482E512C4C0E5D1E7201BEE2B9
:104B5000DB2EF701808190E0B8014AE050E00E942E
:104B6000DE2F02C00F5F1F4FF801808180538A3013
:104B7000C8F3F801D1920894E108F108EA14FB04A3
:104B800011F08F01E6CFF8011082F40180818823B3
:104B900009F4DAC160E0F40131966F5F81918823F6
:104BA000E1F770E0C40145E859E02BE839E00E94E4
:104BB00032058FE793E00E94612D83E993E00E9424
:104BC000612D88EA93E00E94612DC4010E94612D4D
:104BD0008E010B5C1F4FC8010E94F706F401108282
:104BE00078018401ABE3CA2ED12CCC0EDD1EFAE392
:104BF000BF2EF701808190E0B80140E150E00E94B3
:104C0000DE2F02C00F5F1F4FF8019081892F805364
:104C10008A30C0F381538630A8F39154963090F3D4
:104C2000B1920894E11CF11CEC14FD0411F08F0109
:104C3000E0CFF801108289EB93E00E94612D8EECA9
:104C400093E00E94612DC4010E94612D1E821D828D
:104C500019821A821B821C82CE010596BE016F5FEB
:104C60007F4FAE014E5F5F4F9E012D5F3F4F8E0124
:104C70000C5F1F4F0E94060C8A818F5F8A838B8195
:104C80008B5F8B838DED93E00E94612D82EF93E02B
:104C90000E94612D6D817E8180E090E0A7012AE075
:104CA00030E00E94B92FC7010E94612D89E294E093
:104CB0000E94612D698170E080E090E0A7012AE008
:104CC00030E00E94B92FC7010E94612D89E294E073
:104CD0000E94612D6A8170E080E090E0A7012AE0E7
:104CE00030E00E94B92FC7010E94612D89E294E053
:104CF0000E94612D6B8170E080E090E0A7012AE0C6
:104D000030E00E94B92FC7010E94612D89E294E032
:104D10000E94612D6C8170E080E090E0A7012AE0A4
:104D200030E00E94B92FC7010E94612D8CE294E00F
:104D30000E94612D2D813E812F5F3F4F229532953C
:104D4000307F3227207F322740E050E060E070E083
:104D500081EE90E00E942330CA01B901A7012AE048
:104D600030E00E94B92FC7010E94612D83E594E0D5
:104D70000E94612D8981813009F4E1C0813008F4FD
:104D800050C0823009F4D6C0833021F48CEA94E01C
:104D90000E94612DCE014996BE01695F7F4FAE0131
:104DA000435E5F4F9E01275F3F4F8E01055F1F4FA0
:104DB0000E94D02A89EC94E00E94612D8EED94E04F
:104DC0000E94612D8AE192E00E94612D898D9A8D69
:104DD000AB8DBC8D8DA79EA7AFA7B8AB70E3A72EF8
:104DE000B12CAC0EBD1E750184016EE2D62EF7010A
:104DF000808190E0B8014AE050E00E94DE2F02C0BE
:104E00000F5F1F4FF801808180538A30C8F3F8018B
:104E1000D1920894E108F108E414F50439F08F0107
:104E2000E6CF8AE694E00E94612DB4CFF8011082AB
:104E3000C4010E94612D8FEF94E00E94612D6F816B
:104E4000788580E090E0A4012AE030E00E94B92F4C
:104E5000C4010E94612D8FEF94E00E94612D8D8D21
:104E60009E8DAF8DB8A189AB9AABABABBCAB54E315
:104E7000E52EF12CEC0EFD1E84014EE2D42EF7013E
:104E8000808190E0B8014AE050E00E94DE2F02C02D
:104E90000F5F1F4FF801808180538A30C8F3F801FB
:104EA000D1920894E108F108EA14FB0411F08F0193
:104EB000E6CFF8011082C4010E94612D8FEF94E0CB
:104EC0000E94612D69857A8580E090E0A4012AE046
:104ED00030E00E94B92FC4010E94612D8FEF94E051
:104EE0000E94612D6B857C8580E090E0A4012AE022
:104EF00030E00E94B92FC4010E94612D8AE192E046
:104F00000E94612D80E0CA58DF4F0FB6F894DEBFD3
:104F10000FBECDBFCF91DF911F910F91FF90EF900A
:104F2000DF90CF90BF90AF909F908F907F905F90D9
:104F30004F9008958EE894E00E94612D2BCF8CE76E
:104F400094E00E94612D26CF60E070E02BCEAF92FE
:104F5000BF92DF92EF92FF920F931F93CF93DF9355
:104F60005C01FC01C081D181D8808D2D80538A30B5
:104F700078F5EE24FF248701C801B7012AE030E06C
:104F800040E050E00E9404302D2D332727FD30955E
:104F90002053304079010027F7FC0095102FE60ED2
:104FA000F71E081F191F2196D8808D2D80538A3037
:104FB00018F3F501D183C083B701C801DF91CF9108
:104FC0001F910F91FF90EF90DF90BF90AF900895E9
:104FD000EE24FF248701EDCFDC01ED91FC911197C8
:104FE00080E020E030E040E050E0220F331F441F1B
:104FF000551F220F331F441F551F220F331F441FFD
:10500000551F220F331F441F551F280F311D411DEF
:10501000511D9081892F80538A3040F08153863012
:1050200020F0892F8154863018F4865F3196DDCFC9
:10503000ED93FC93B901CA0108954F925F926F926C
:105040007F928F929F92AF92BF92CF92DF92EF9218
:10505000FF920F931F93DF93CF93CDB7DEB72897BF
:105060000FB6F894DEBF0FBECDBF2C01DC01AD90B2
:10507000BC90F501D0808D2D80538A3008F002C19C
:10508000EE24FF248701C801B7012AE030E040E0A8
:1050900050E00E9404302D2D332727FD30952053FA
:1050A000304079010027F7FC0095102FE60EF71E1F
:1050B000081F191F0894A11CB11CD501DC908D2D6F
:1050C00080538A3000F39E2C882477246624BEE225
:1050D000DB16E9F020E030E040E050E0B901CA0121
:1050E00028960FB6F894DEBF0FBECDBFCF91DF91EB
:1050F0001F910F91FF90EF90DF90CF90BF90AF90F6
:105100009F908F907F906F905F904F900895650172
:105110000894C11CD11CF501B1808B2D80538A30BD
:1051200008F0B4C0EE24FF248701C801B7012AE0CB
:1051300030E040E050E00E9404302B2D332727FD63
:1051400030952053304079010027F7FC0095102F4F
:10515000E60EF71E081F191F0894C11CD11CD601AA
:10516000BC908B2D80538A3000F3D7019927882774
:1051700089839A83AB83BC839EE2B91609F0AACFD8
:1051800056010894A11CB11CD6011196DC908D2DFE
:1051900080538A3008F07FC0EE24FF248701C801C5
:1051A000B7012AE030E040E050E00E9404302D2DAD
:1051B000332727FD30952053304079010027F7FC35
:1051C0000095102FE60EF71E081F191F0894A11C4A
:1051D000B11CF501D0808D2D80538A3000F3B02FA3
:1051E000AF2D9E2D88278D839E83AF83B8879EE247
:1051F000D91609F06FCF65010894C11CD11CD501E7
:105200001196BC908B2D80538A3008F049C0EE2453
:10521000FF248701C801B7012AE030E040E050E0F8
:105220000E9404302B2D332727FD3095205330402A
:1052300079010027F7FC0095102FE60EF71E081FD6
:10524000191F0894C11CD11CF601B0808B2D80530E
:105250008A3000F329813A814B815C8126293729E4
:10526000482959298D819E81AF81B885282B392BFA
:105270004A2B5B2B2E293F29402B512BD201CD925B
:10528000DC922CCF66247724430121CF19821A8225
:105290001B821C8271CF1D821E821F821886A7CF9F
:1052A000EE24FF248701D6CF1F93CF93DF93EC0129
:1052B000162F0E94151B882309F084C0123008F4B1
:1052C000D2C089818F3361F0FE0191E004C08281F8
:1052D00031968F3319F09F5F9117C8F3911719F02A
:1052E00088818A33A9F086E495E00E94612DCE0181
:1052F0000E94612D8AE695E06DE070E045E859E096
:105300002BE839E00E943205DF91CF911F9108957B
:1053100060916807709169076115710509F43DC0D6
:1053200050E0A0E0B0E01AE3AA0FBB1FAA0FBB1F1A
:10533000AA59B84F0D90BC91A02D4C91842F812774
:105340008F7509F05BC090E002C0E03279F09F5F9A
:10535000292F30E0FD01E20FF31F4081FE01E20F33
:10536000F31FE0818E2F84278F7579F3442331F466
:10537000E03209F447C0EF3309F444C05F5FA52F62
:10538000B0E0FD01EE0FFF1FEE0FFF1FE859F84FD1
:10539000608171816115710539F686EB95E00E9497
:1053A000612DCE010E94612D8EED95E064E270E0EA
:1053B00045E859E02BE839E00E943205DF91CF91B2
:1053C0001F91089581E095E069E170E045E859E0BA
:1053D0002BE839E00E9432058BE195E065E070E052
:1053E00045E859E02BE839E00E94320581E295E07A
:1053F0000E94612DDF91CF911F910895EAE320E093
:1054000030E0B4CFDE01A20FB31F8C91803241F4A3
:10541000F9013196EC0FFD1FDF0181918032E1F33C
:10542000CD01FB010995882379F488E795E063E0D5
:1054300070E045E859E02BE839E00E9432058CE73E
:1054400095E00E94612D60CF8BE195E065E070E012
:1054500045E859E02BE839E00E94320588E995E0FB
:105460000E94612D51CF91E039CF9C01E199FECF8F
:105470003FBB2EBBE09A8DB308959C01E199FECF0E
:105480003FBB2EBB6DBB0FB6F894E29AE19A0FBEFC
:105490000895AF92BF92CF92DF92EF92FF920F9357
:1054A0001F93DF93CF9300D000D0CDB7DEB75C0160
:1054B0007B01042F10E08DE3C82E8AE2D82EC501AF
:1054C000A80196010E947C2FC701B8010E94BD1A55
:1054D0009A838983809590959C838B83C501800FE7
:1054E000911FBE016F5F7F4F44E050E096010E9424
:1054F0007C2F0F900F900F900F90CF91DF911F9105
:105500000F91FF90EF90DF90CF90BF90AF900895F4
:10551000CF92DF92EF92FF920F931F93DF93CF937F
:1055200000D000D0CDB7DEB78C016B01E199FECF82
:10553000E42EFF24C601B801A70125E33AE20E9448
:10554000602F0E0D1F1DCE010196B80144E050E002
:1055500025E33AE20E94602F8B819C818095909593
:1055600029813A812817390779F040E0842F0F907C
:105570000F900F900F90CF91DF911F910F91FF909F
:10558000EF90DF90CF900895C601B7010E94BD1A39
:1055900040E029813A818217930741F741E0E6CF45
:1055A0004F925F926F927F928F929F92AF92BF9233
:1055B000CF92DF92EF92FF920F931F93DF93CF93DF
:1055C000CDB7DEB762970FB6F894DEBF0FBECDBF82
:1055D0006C015B014A0139012801E199FECF8E017E
:1055E0000B5F1F4FC80160E074E04EE050E025E320
:1055F0003AE20E94602FCE0101966EE074E044E032
:1056000050E025E33AE20E94602F8B819C818095D7
:10561000909529813A812817390709F497C0D80154
:10562000EFE7F9E08EE001900D928150E1F7C114AF
:10563000D10469F12D813E814F815885122F0027B9
:10564000FF24EE24852F9927AA27BB27E82AF92AC9
:105650000A2B1B2BDA01C90180709070B070892F62
:105660009A2FAB2FBB27E82AF92A0A2B1B2B207075
:1056700040705070542F432F322F2227E22AF32AF2
:10568000042B152BF601E082F18202831383A1140F
:10569000B10429F089859A85F5019183808381146D
:1056A000910469F12B853C854D855E85122F00277D
:1056B000FF24EE24852F9927AA27BB27E82AF92A59
:1056C0000A2B1B2BDA01C90180709070B070892FF2
:1056D0009A2FAB2FBB27E82AF92A0A2B1B2B207005
:1056E00040705070542F432F322F2227E22AF32A82
:1056F000042B152BF401E082F182028313836114E1
:10570000710429F08F859889F30191838083411476
:10571000510429F089899A89F201918380836296E4
:105720000FB6F894DEBF0FBECDBFCF91DF911F91B2
:105730000F91FF90EF90DF90CF90BF90AF909F9030
:105740008F907F906F905F904F900895C8016EE0AA
:1057500070E00E94BD1A29813A818217930709F0EF
:105760005ECF65CF2F923F924F925F926F927F9262
:105770008F929F92AF92BF92CF92DF92EF92FF9261
:105780000F931F93DF93CF93CDB7DEB762970FB61A
:10579000F894DEBF0FBECDBF4B015C011A0128019A
:1057A0003901E199FECF8E010B5F1F4FC80160E008
:1057B00074E04EE050E025E33AE20E94602FCE0113
:1057C00001966EE074E044E050E025E33AE20E9486
:1057D000602F8B819C818095909529813A81281733
:1057E000390709F4B3C0D801EFE7F9E08EE0019082
:1057F0000D928150E1F781149104A104B10469F183
:10580000582D4427332722278B2D9927AA27BB27DA
:10581000282B392B4A2B5B2BD501C401807090704B
:10582000B070892F9A2FAB2FBB27282B392B4A2BEF
:105830005B2B80E09FEFA0E0B0E088229922AA22B3
:10584000BB22BA2DA92D982D8827282B392B4A2B1E
:105850005B2B2D833E834F8358872114310411F035
:105860003A862986411451046104710469F1542D6A
:10587000442733272227872D9927AA27BB27282BA0
:10588000392B4A2B5B2BD301C20180709070B07012
:10589000892F9A2FAB2FBB27282B392B4A2B5B2B19
:1058A00080E09FEFA0E0B0E0482259226A227B22EC
:1058B000B62DA52D942D8827282B392B4A2B5B2B11
:1058C0002B873C874D875E87E114F10411F0F88A3D
:1058D000EF86C114D10411F0DA8AC98A80E094E01D
:1058E000B8014EE050E02DE33AE20E947C2FC8015F
:1058F0006EE070E00E94BD1A9A838983809590952E
:105900009C838B838EE094E0BE016F5F7F4F44E009
:1059100050E02DE33AE20E947C2F62960FB6F89495
:10592000DEBF0FBECDBFCF91DF911F910F91FF90D2
:10593000EF90DF90CF90BF90AF909F908F907F902F
:105940006F905F904F903F902F900895C8016EE048
:1059500070E00E94BD1A29813A818217930709F0ED
:1059600042CF49CFDF93CF9300D000D0CDB7DEB781
:10597000E199FECF8FE799E060E074E04EE050E0FF
:1059800025E33AE20E94602FCE0101966EE074E0BA
:1059900044E050E025E33AE20E94602F8B819C8135
:1059A0008095909529813A812817390769F121E876
:1059B00035E440EB5DE720937F0930938009409305
:1059C00081095093820981E69EE190938409809336
:1059D0008309209385093093860940938709509362
:1059E000880982E69EE190938A098093890982E082
:1059F00097ED90938C0980938B090F900F900F90E7
:105A00000F90CF91DF9108958FE799E06EE070E0FD
:105A10000E94BD1A29813A818217930741F6EDCF82
:105A20008A9A8B98929AEBE9F0E080818D7F80834F
:105A300087E0809399001092980088EF80939A00F5
:105A400086E080939D0085E083BF87B7816087BF34
:105A500087EB99E09093E0098093DF090895982FF0
:105A600080919B0085FFFCCF90939C0008958091CE
:105A70009B0087FFFCCF80919C0008951F920F929E
:105A80000FB60F920BB60F9211248F93EF93FF93E3
:105A9000EAE9F0E080818F7D8083FF91EF918F9123
:105AA0000F900BBE0F900FBE0F901F9018951F9276
:105AB0000F920FB60F9211240F900FBE0F901F90F0
:105AC0001895FC019081992351F080919B0085FFEE
:105AD000FCCF90939C00918131969923B1F7089562
